:100000000C94BA000C94E2000C94E2000C94E20010
:100010000C94E2000C94E2000C94E2000C94E200D8
:100020000C94E2000C94E2000C94E2000C94E200C8
:100030000C94E2000C94E2000C94E2000C94E200B8
:100040000C94650E0C94E2000C94D50E0C94AF0E3B
:100050000C94E2000C94E2000C94E2000C94E20098
:100060000C94460D0C94E2000000000023002600D2
:10007000290031333A30373A303100417072203143
:100080003920323032310031333A30373A303100B2
:100090004170722031392032303231004448547876
:1000A0007820556E69666965642053656E736F725A
:1000B000204578616D706C6500250048756D696438
:1000C0006974793A20004572726F722072656164BA
:1000D000696E672068756D6964697479210045727D
:1000E000726F722072656164696E672074656D70ED
:1000F0006572617475726521004572726F7220724B
:10010000656164696E672074656D70657261747590
:100110007265210000000000240027002A00000072
:100120000000250028002B0000000008000201004C
:1001300000030407000000000000000004040404A1
:100140000404040402020202020203030303030381
:10015000010204081020408001020408102001025E
:10016000040810201F1C1F1E1F1E1F1F1E1F1E0005
:10017000070F4F1511241FBECFEFD8E0DEBFCDBF54
:1001800013E0A0E0B1E0E4ECF4E302C005900D92CE
:10019000A834B107D9F725E0A8E4B3E001C01D9267
:1001A000A931B207E1F710E0C9EBD0E004C0219714
:1001B000FE010E943617C83BD107C9F70E945210B2
:1001C0000C94551A0C940000CF93DF93CDB7DEB793
:1001D00028970FB6F894DEBF0FBECDBF88E0EBEDD9
:1001E000F4E0DE01119601900D928A95E1F72981E4
:1001F0003A814B815C816D817E818F8198852896C3
:100200000FB6F894DEBF0FBECDBFDF91CF9108953A
:1002100020917D03260F3327331F21323105ECF463
:100220002091EE03FC0190E080E0243069F082E050
:100230000895A0917D032191AC01455A5C4FA40F14
:10024000B52FB11D2C930196861798F380917D03ED
:10025000680F60937D0380E0089581E0089508951C
:1002600008950895E091A7038091A603E81730F45C
:10027000F0E0E855FC4F808190E008958FEF9FEF0C
:1002800008959091A7038091A6032FEF3FEF981751
:1002900048F4E92FF0E0E855FC4F208130E09F5F03
:1002A0009093A703C90108958091A6039091A70395
:1002B000891B990B0895CF92DF92EF92FF920F93D3
:1002C0001F93CF93DF937C01CB018A012091F4032C
:1002D000222389F0EB016B01C40ED51ECC15DD0580
:1002E00069F06991D701ED91FC910190F081E02DC9
:1002F000C7010995F3CF642F0E940801C801DF915F
:10030000CF911F910F91FF90EF90DF90CF900895C4
:10031000CF93DF931F92CDB7DEB769832091F403AB
:100320002223F9F020911704203258F021E030E028
:10033000FC013383228390E080E00F90DF91CF9126
:1003400008958091F503E82FF0E0EA50FC4F998181
:1003500090838F5F8093F5038093170481E090E092
:10036000ECCF61E0CE0101960E940801F7CF90E04A
:10037000FC01E85DFE4F2491FC01E05BFE4F3491EF
:10038000FC01E45CFE4FE491EE23C9F0222339F036
:10039000233001F1A8F4213019F1223029F1F0E0E5
:1003A000EE0FFF1FE25EFE4FA591B4918FB7F89458
:1003B000EC91611126C030953E233C938FBF089588
:1003C0002730A9F02830C9F0243049F78091800007
:1003D0008F7D03C0809180008F7780938000DFCF76
:1003E00084B58F7784BDDBCF84B58F7DFBCF8091C3
:1003F000B0008F778093B000D2CF8091B0008F7D16
:10040000F9CF3E2BDACF1092EE0381E08093ED031B
:100410001092C80361E082E10E94B70161E083E1CC
:100420000E94B701E9EBF0E080818E7F80838081BC
:100430008D7F808388E48093B80085E48093BC003E
:100440000895CF93DF9391E090935A038823B9F0F6
:10045000C091B800D091BA008091BC008A7B809393
:10046000BC0060E082E10E94B70160E083E10E948D
:10047000B7010E940302D093BA00C093B800DF9185
:10048000CF910895CF93DF9390E0FC01E05BFE4FA6
:100490002491845C9E4FFC0184918823C9F090E0F4
:1004A000880F991FFC01EC5EFE4FA591B491FC01F1
:1004B000E25EFE4FC591D49161110DC09FB7F894D3
:1004C0008C91209582238C938881282328839FBF39
:1004D000DF91CF910895623051F49FB7F8943C9129
:1004E000822F809583238C93E8812E2BEFCF8FB7BB
:1004F000F894EC912E2B2C938FBFEACF8E50806412
:1005000080937C0080917A00806480937A0080914F
:100510007A0086FDFCCF8091780090917900089553
:100520003FB7F8948091560390915703A0915803D8
:10053000B091590326B5A89B05C02F3F19F001962D
:10054000A11DB11D3FBFBA2FA92F982F8827BC012D
:10055000CD01620F711D811D911D42E0660F771F55
:10056000881F991F4A95D1F70895CF92DF92EF9295
:10057000FF920F931F93CF93DF93D091170481E0E5
:10058000D13208F09CC0C09116040E9490026B0109
:100590007C018091EE0381116CC082E08093EE03B8
:1005A00081E08093ED038FEF8093EC031092EB03D7
:1005B000D093EA03A6EFB3E0EAECF3E080E0D813CF
:1005C0008DC01092C9038091C903CC0FC82BC09372
:1005D000C9038091C803813009F084C01092C80318
:1005E0000E9490026B017C018091C9038093BB0043
:1005F0008091F0039091F103A091F203B091F30385
:10060000892B8A2B8B2BA1F00E9490020091F00382
:100610001091F1032091F2033091F3036C197D09DD
:100620008E099F09061717072807390708F442C0E3
:100630008091BC0083FDD8CF85EC8093BC000E94E4
:1006400090026B017C018091EE03823009F44CC072
:100650008091EC038F3F09F469C08091EC038032F4
:1006600009F466C08091EC03803309F463C084E030
:1006700026C08091F0039091F103A091F203B09114
:10068000F303892B8A2B8B2B09F483CF0E949002D2
:100690000091F0031091F1032091F2033091F303E4
:1006A0006C197D098E099F09061717072807390756
:1006B00008F06FCF8091EF030E94210285E0109235
:1006C000F503109217041092F403DF91CF911F915C
:1006D0000F91FF90EF90DF90CF9008959D919193AF
:1006E0008F5F6DCF85EEA9CF8091F0039091F103DC
:1006F000A091F203B091F303892B8A2B8B2B09F481
:10070000A2CF0E9490020091F0031091F10320917A
:10071000F2033091F3036C197D098E099F090617C6
:1007200017072807390708F08ECFC4CF80E0C7CF5E
:1007300082E0C5CF83E0C3CFCF92DF92EF92FF92EA
:100740000F931F93CF93DF93D82FC62F613208F0FA
:1007500098C00E9490026B017C018091EE03811190
:100760006BC081E08093EE038093ED039FEF909345
:10077000EC031092EB039C0F9093EA038093C90360
:100780008091C903DD0FD82BD093C9038091C80392
:10079000813009F078C01092C8030E9490026B016A
:1007A0007C018091C9038093BB008091F0039091FC
:1007B000F103A091F203B091F303892B8A2B8B2BC9
:1007C000A1F00E9490020091F0031091F10320919A
:1007D000F2033091F3036C197D098E099F09061706
:1007E00017072807390708F448C08091BC0083FD2B
:1007F000D8CF85EC8093BC000E9490026B017C01F5
:100800008091EE03813009F440C08091EB038C1796
:1008100010F4C091EB03EAECF3E0A8EAB3E080E067
:100820008C1355C08C2FDF91CF911F910F91FF90AA
:10083000EF90DF90CF9008958091F0039091F103B5
:10084000A091F203B091F303892B8A2B8B2B09F42F
:1008500084CF0E9490020091F0031091F103209147
:10086000F2033091F3036C197D098E099F09061775
:1008700017072807390708F070CF8091EF030E940F
:100880002102C0E0CFCF85EEB5CF8091F0039091EB
:10089000F103A091F203B091F303892B8A2B8B2BE8
:1008A00009F4AECF0E9490020091F0031091F10381
:1008B0002091F2033091F3036C197D098E099F0991
:1008C000061717072807390708F09ACFD6CF919156
:1008D0009D938F5FA5CF8F929F92AF92BF92CF9241
:1008E000DF92EF92FF924B015C010E9490026B013C
:1008F0007C010E9490026C197D098E099F09683E57
:10090000734081059105A8F321E0821A9108A1089E
:10091000B10888EEC80E83E0D81EE11CF11C8114DA
:100920009104A104B10429F7FF90EF90DF90CF90DC
:10093000BF90AF909F908F900895AF92BF92CF924B
:10094000DF92EF92FF920F931F93CF93DF936C018F
:100950007B018B01040F151FEB015E01AE18BF0870
:10096000C017D10759F06991D601ED91FC91019022
:10097000F081E02DC6010995892B79F7C501DF913A
:10098000CF911F910F91FF90EF90DF90CF90BF908C
:10099000AF90089590E080E00895FC01538D448D60
:1009A000252F30E0842F90E0821B930B541710F01A
:1009B000CF96089501970895FC01918D828D981727
:1009C00061F0A28DAE0FBF2FB11D5D968C91928DFF
:1009D0009F5F9F73928F90E008958FEF9FEF089530
:1009E000FC01918D828D981731F0828DE80FF11DF9
:1009F000858D90E008958FEF9FEF0895FC01918D14
:100A0000228D892F90E0805C9F4F821B91098F730C
:100A10009927089584E294E00E94FE0421E0892B46
:100A200009F420E0822F089580E090E0892B29F0DE
:100A30000E940A0581110C9400000895FC01A48D08
:100A4000A80FB92FB11DA35ABF4F2C91848D90E0F0
:100A500001968F739927848FA689B7892C93A089D3
:100A6000B1898C91837080648C93938D848D98135D
:100A700006C00288F389E02D80818F7D80830895F0
:100A8000EF92FF920F931F93CF93DF93EC0181E0DE
:100A9000888F9B8D8C8D98131AC0E889F989808185
:100AA00085FF15C09FB7F894EE89FF896083E889B8
:100AB000F98980818370806480839FBF81E090E0AA
:100AC000DF91CF911F910F91FF90EF900895F62E37
:100AD0000B8D10E00F5F1F4F0F731127E02E8C8DD1
:100AE0008E110CC00FB607FCFACFE889F989808116
:100AF00085FFF5CFCE010E941E05F1CFEB8DEC0FE7
:100B0000FD2FF11DE35AFF4FF0829FB7F8940B8F32
:100B1000EA89FB8980818062CFCF0F931F93CF93A7
:100B2000DF938C01D0E0C0E0F801EC0FFD1F649171
:100B3000662341F084E294E00E944005892B11F085
:100B40002196F2CFCE01DF91CF911F910F910895A1
:100B5000CF93DF93EC01888D8823B9F0AA89BB89F4
:100B6000E889F9898C9185FD03C0808186FD0DC0DF
:100B70000FB607FCF7CF8C9185FFF2CF808185FF00
:100B8000EDCFCE010E941E05E9CFDF91CF910895F0
:100B9000FC01908190539A3008F090E0818180535D
:100BA0002AE0929F800D11240895DC0150E0E4E6D4
:100BB000F1E081E0861730F49491490F511D8F5F69
:100BC0003196F8CF633038F0CD0183709927892BA7
:100BD00011F44F5F5F4F9D012D5F3F4F3695279575
:100BE000369527956DE671E0A69FC001A79F900DF1
:100BF000B69F900D11240197820F931F840F951FAC
:100C00000895CF92DF92EF92FF92CF93DF93DC01B2
:100C10001796CC911797D0E06111DC2F18962C9184
:100C2000189730E0220F331F28593F4F50E040E023
:100C3000F90185919491FC01F080BA0190E080E087
:100C4000EF2DEC23ED1310C04F5F5F4F1D96CD903D
:100C5000DD90ED90FC9050976C157D058E059F05FD
:100C600038F36FEF7FEFCB01DF91CF91FF90EF90E3
:100C7000DF90CF9008958F929F92AF92BF92CF92C4
:100C8000DF92EF92FF920F931F93CF93DF93CDB735
:100C9000DEB7C054D1400FB6F894DEBF0FBECDBF53
:100CA0002FB7F8944091A2035091A3036091A4033D
:100CB0007091A5032FBFFC01018512852385348522
:100CC0006A017B01C01AD10AE20AF30A9701860180
:100CD000003D174021053105B0F4FC018189C05C5D
:100CE000DE4F0FB6F894DEBF0FBECDBFDF91CF91C0
:100CF0001F910F91FF90EF90DF90CF90BF90AF903A
:100D00009F908F9008958C01FC01418752876387E3
:100D100074871482138212821182108262E08581AC
:100D20000E94420261E070E080E090E00E946B046B
:100D300061E0F80185810E94420260E0F80185814E
:100D40000E94B701F80186818551823028F58BE237
:100D500091E10197F1F762E0F80185810E9442027A
:100D6000F801828990E08230910538F0880F991F50
:100D7000880F991F05970197F1F7F89460E0C80173
:100D80000E9401066F3F7F4F8F4F9F4F61F4F80124
:100D9000118A789480E0A3CF64E170E080E090E075
:100DA0000E946B04D8CF61E0C8010E9401066F3F2A
:100DB0007F4F8F4F9F4F59F3CE0101967C015E010B
:100DC0009FEBA91A9EEFB90A670160E0C8010E9473
:100DD0000106F601608371838283938361E0C80119
:100DE0000E940106F6016483758386839783F8E089
:100DF000CF0ED11CCA14DB0441F7789430E020E018
:100E0000F70180809180A280B38044815581668102
:100E10007781FFEF8F169F06AF06BF0631F04F3F79
:100E20008FEF58076807780719F4F801118AB2CFD5
:100E3000F90183E0F595E7958A95E1F7E00FF11F59
:100E40008081880F84169506A606B706F0F0808389
:100E50002F5F3F4FF8E0EF0EF11C2832310581F68D
:100E6000F801448120818181280F3327331F82813B
:100E7000280F311D8381820F932F911D99274817C9
:100E8000190699F681E0818B2ACF8160E0CFFC01C1
:100E900083898B3051F480E492E4AFE0B0E0FB0151
:100EA00084A395A3A6A3B7A3089580E894E8AEE130
:100EB000B0E0F5CF0895089581E08093F40388E6CB
:100EC000809316041092F503109217046FE088E1E6
:100ED00094E00E9488010E94B50261E088E60E94C9
:100EE0009C031092A7038093A60388E194E00E94DC
:100EF000410108951F93CF93DF93EC0181E080932C
:100F0000F40388E6809316041092F50310921704F8
:100F100060E088E194E00E9488012D811AE0822F30
:100F2000612F0E941617682F660F680F660F620FF9
:100F300088E194E00E9488012C81822F612F0E9419
:100F40001617682F660F680F660F620F88E194E02E
:100F50000E9488012B81822F612F0E941617682F13
:100F6000660F680F660F620F88E194E00E948801A7
:100F700088814A81698190E00E94D505069667E0E4
:100F800070E00E942217682F811101C067E088E19C
:100F900094E00E9488012A811AE0822F612F0E942A
:100FA0001617682F660F680F660F620F88E194E0CE
:100FB0000E9488012981822F612F0E941617682FB5
:100FC000660F680F660F620F88E194E00E94880147
:100FD0002881822F612F0E941617682F660F680FD5
:100FE000660F620F88E194E00E9488010E94B502BA
:100FF0000E945C07C82F81E08093F40388E6809309
:1010000016041092F503109217046FE088E194E043
:101010000E9488016C2F6F7788E194E00E9488011C
:10102000DF91CF911F910C94B502FC01019000203B
:10103000E9F73197AF01481B590BBC0184E294E0FA
:101040000C949D04CF93DF930E948D05EC018AE9F7
:1010500091E00E9415088C0F9D1FDF91CF9108959C
:101060008F929F92AF92BF920F931F93CF93DF9374
:10107000CDB7DEB7A1970FB6F894DEBF0FBECDBFD8
:1010800019A2423008F44AE08E010F5D1F4F842EF2
:10109000912CB12CA12CA50194010E94E516E62FFC
:1010A000B901CA01EA30F4F4E05DD801EE938D0194
:1010B000232B242B252B79F790E080E0109719F053
:1010C000CD010E941508A1960FB6F894DEBF0FBEA1
:1010D000CDBFDF91CF911F910F91BF90AF909F90A7
:1010E0008F900895E95CE1CFCF92DF92EF92FF926B
:1010F000CF93DF936C01990FEE08FF08F7FE1FC036
:101100006DE284E294E00E944005EC0166277727B7
:10111000CB016C197D098E099F094AE00E943008B5
:10112000C80FD91F8AE991E00E9415088C0F9D1FF6
:10113000DF91CF91FF90EF90DF90CF9008954AE03C
:10114000C701B6010E943008EC01ECCFCF93DF93CA
:101150000E941508EC018AE991E00E9415088C0FA5
:101160009D1FDF91CF9108954F925F926F927F9272
:101170008F929F92AF92BF92CF92DF92EF92FF92A7
:101180000F931F93CF936B017C01742EAC019B01D5
:101190000E944F18882399F08DE991E0CF911F911B
:1011A0000F91FF90EF90DF90CF90BF90AF909F9006
:1011B0008F907F906F905F904F900C941508460130
:1011C0005701E894B7F82FEF3FEF4FE75FE7C5010E
:1011D000B4010E944F1881110DC02FEF3FEF4FE770
:1011E0005FE7C501B4010E94601518161CF481EA7E
:1011F00091E0D4CF2FEF3FEF4FE75FE4C701B60197
:101200000E944A1818161CF485EA91E0C7CF2FEF08
:101210003FEF4FE75FECC701B6010E94601587FD05
:10122000F3CF20E030E0A901C701B6010E946015AC
:1012300010E000E087FF0AC06DE284E294E00E94C3
:1012400040058C01F7FAF094F7F8F094C0E060E004
:1012500070E080E09FE37C1641F020E030E040E267
:1012600051E40E94A917CF5FF6CFA70196010E9413
:101270003D172B013C010E941B184B015C014AE009
:101280000E9430087C01E00EF11ECC23C1F1C501A3
:10129000B4010E9465159B01AC01C301B2010E941B
:1012A0003C174B015C016EE284E294E00E94400531
:1012B000E80EF91EC15018F120E030E040E251E4A0
:1012C000C501B4010E94C6152B013C010E941B18E8
:1012D0004B01B12CA12C4AE0C501B4010E94300899
:1012E000E80EF91EC501B4010E9465159B01AC0111
:1012F000C301B2010E943C174B015C01DBCFC70167
:10130000CF911F910F91FF90EF90DF90CF90BF9002
:10131000AF909F908F907F906F905F904F900895C7
:1013200085ED8093BC008091F0039091F103A09132
:10133000F203B091F3030796A11DB11D23E0B6950A
:10134000A795979587952A95D1F72091BC0024FD04
:1013500003C01092EE0308954091F0035091F10301
:101360006091F2037091F303452B462B472B69F3F1
:101370000097A105B10541F025E32A95F1F700009A
:101380000197A109B109E1CF8091EF030C942102EB
:10139000FC0180819181009711F00C94F018089560
:1013A0000C94F0180C94F018EF92FF920F931F9387
:1013B000CF93DF93EC017B018A01888199810097AB
:1013C00029F02A813B812417350788F4B8016F5F23
:1013D0007F4F0E947919009791F0998388831B832E
:1013E0000A832C813D81232B11F4FC0110821D8383
:1013F0000C83B701888199810E943F1A0CC08881B3
:101400009981009711F00E94F018198218821D82AC
:101410001C821B821A82CE01DF91CF911F910F9106
:10142000FF90EF900895CF93DF93EC01FB018617B7
:10143000970749F0608171816115710541F0448120
:1014400055810E94D409CE01DF91CF910895888102
:101450009981009711F00E94F018198218821D825C
:101460001C821B821A82EFCFFC0111821082138230
:10147000128215821482FB0101900020E9F7319756
:10148000AF01461B570B0C94D409EF92FF920F93B8
:101490001F93CF93DF93CDB7DEB72B970FB6F8949A
:1014A000DEBF0FBECDBF8C017A014BE050E0CE0114
:1014B00001960E945715CE010A960E94C805F801B0
:1014C0008083E981E154E33118F50E2E000CFF0B07
:1014D000E459F54F0C943617BA0A880A880ACE0ADE
:1014E000880AB80A880A880A880A7F0A880A880A45
:1014F000C10ACC0ACA0A880A880A880AC80A8A81E4
:10150000813691F18B818E3689F187E0F8018183F4
:10151000CE0105960E94C805F801828348E050E09C
:10152000B701CE0101960E945715CE0101960E9487
:10153000C805F8018383CE0104960E94C805F8010E
:101540008483CE0107960E94C805F80185832B96F7
:101550000FB6F894DEBF0FBECDBFDF91CF911F91C4
:101560000F91FF90EF90089581E0D0CF86E0CECF2D
:1015700082E0CCCF8B81823711F088E0C7CF84E046
:10158000C5CF8B81823711F085E0C0CF83E0BECF1D
:1015900089E0BCCF8AE0BACF8BE0B8CF8CE0B6CF81
:1015A000CF92DF92EF92FF920F931F93CF93DF932F
:1015B000EB01FB01349620E2DF011D922A95E9F749
:1015C00044E250E060E070E0488359836A837B83A3
:1015D000FC0145815681678170854C835D836E83F4
:1015E0007F834CE050E060E070E0488759876A876D
:1015F0007B872FB7F8944091A2035091A303609189
:10160000A4037091A5032FBF488B598B6A8B7B8BEA
:1016100003811481C8010E943B06882349F0F80128
:1016200086818B3028F08D3040F08551823070F10A
:1016300060E070E080EC9FE71BC0618170E090E0AB
:1016400080E00E9467152DEC3CEC4CEC5DE30E94C1
:10165000C6156B017C01F801608170E090E080E0CC
:101660000E9467159B01AC01C701B6010E943D179E
:101670006C8B7D8B8E8B9F8B81E0DF91CF911F9147
:101680000F91FF90EF90DF90CF900895608171816E
:1016900076276727762790E080E00E9465152DEC7D
:1016A0003CEC4CEC5DE30E94C615E2CF8F929F921A
:1016B000AF92BF92EF92FF921F93CF93DF93EB0114
:1016C000FB01349620E2DF011D922A95E9F744E2FE
:1016D00050E060E070E0488359836A837B83FC01BB
:1016E00045815681678170854C835D836E837F83DE
:1016F0004DE050E060E070E0488759876A877B875B
:101700002FB7F8944091A2035091A3036091A403D2
:101710007091A5032FBF488B598B6A8B7B8BE3801D
:10172000F480C7010E943B06882341F0F7018681BF
:101730008C3009F455C038F48B30E1F060E070E093
:1017400080EC9FE73EC085518230C0F71281612F47
:1017500070E0762F662766277F778381682B90E07D
:1017600080E00E9465152DEC3CEC4CEC5DE30E94A2
:10177000C61551C0628170E090E080E00E9465155E
:101780004B015C01F701138117FF0AC0AC019B01FB
:1017900060E070E080E89FEB0E943C174B015C0129
:1017A0001F70612F70E090E080E00E9467152DECC3
:1017B0003CEC4CEC5DE30E94C615A50194010E942F
:1017C0003D176C8B7D8B8E8B9F8B81E0DF91CF9152
:1017D0001F91FF90EF90BF90AF909F908F900895D2
:1017E0001281612F70E090E080E00E9465154B014E
:1017F0005C01F70163816F7070E090E080E00E940F
:1018000067152DEC3CEC4CEC5DE30E94C615A50180
:1018100094010E943D1717FFD4CF9058D2CFCF9399
:10182000DF93EB01FC0183894BE050E06FEA71E04C
:101830008C30C1F058F44BE050E069EA71E08B3035
:1018400089F04BE050E061EC71E00CC04BE050E0FF
:1018500065EB71E0853131F04BE050E06BEB71E00E
:10186000863179F7CE010E94461A1B86DF91CF910F
:1018700008950F931F93CF93DF938C01EB0188E2C0
:10188000DB011D928A95E9F7F801838194810E941A
:101890000F0C81E090E0A0E0B0E08C879D87AE87E0
:1018A000BF87F80185819681A781B085888B998B48
:1018B000AA8BBB8B8CE090E0A0E0B0E08C8B9D8B82
:1018C000AE8BBF8BBE01838194810E944707D801F4
:1018D0001396ED91FC9183898C3009F441C078F422
:1018E0008B3009F1188E198E1A8E1B8E1C8E1D8E50
:1018F0001E8E1F8E18A219A21AA21BA22CC08551DF
:10190000823080F780E090E0A8ECB2E4888F998F75
:10191000AA8FBB8F1C8E1D8E1E8E1F8E8DEC9CEC95
:10192000ACECBDE314C080E090E0A0EAB2E4888FA4
:10193000998FAA8FBB8F80E090E0A0EAB1E48C8FF2
:101940009D8FAE8FBF8F80E090E0A0EAB0E488A3C7
:1019500099A3AAA3BBA3DF91CF911F910F910895E3
:1019600080E090E0AEEBB2E4E2CF0F931F93CF9311
:10197000DF938C01EB0188E2DB011D928A95E9F788
:10198000F801838194810E940F0C81E090E0A0E037
:10199000B0E08C879D87AE87BF87F80185819681EF
:1019A000A781B085888B998BAA8BBB8B8DE090E04B
:1019B000A0E0B0E08C8B9D8BAE8BBF8BBE01838192
:1019C00094810E944707D8011396ED91FC91838979
:1019D0008C3091F178F48B30B1F0188E198E1A8E0C
:1019E0001B8E1C8E1D8E1E8E1F8E18A219A21AA26F
:1019F0001BA21DC08531A9F1863179F780E090E006
:101A0000AAEFB2E432C080E090E0A8E4B2E4888FAC
:101A1000998FAA8FBB8F1C8E1D8E1E8E1F8E80E00D
:101A200090E0A0E0B0E488A399A3AAA3BBA3DF91B0
:101A3000CF911F910F91089580E090E0A0E7B2E46C
:101A4000888F998FAA8FBB8F80E090E0A0EAB1ECDD
:101A50008C8F9D8FAE8FBF8F80E090E0A0E0BFE3C2
:101A6000E2CF80E090E0A0EAB2E4888F998FAA8F5D
:101A7000BB8F80E090E0A0E2B2EC8C8F9D8FAE8FA8
:101A8000BF8F8DEC9CECACECBDE3CDCF1F920F92E1
:101A90000FB60F9211242F933F934F935F936F9341
:101AA0007F938F939F93AF93BF93EF93FF93809117
:101AB000B900887F803609F44AC0F0F5883209F40D
:101AC000A7C018F5803109F49BC0B8F4882309F445
:101AD000F9C0883009F494C0FF91EF91BF91AF91A4
:101AE0009F918F917F916F915F914F913F912F9136
:101AF0000F900FBE0F901F901895883109F488C081
:101B0000803251F78093EC0314C0803409F49DC0F7
:101B100040F48033B9F38833F9F68093EC0385EC15
:101B2000B0C0803509F485C0883509F496C0883482
:101B300099F60E949009D0CF883909F48CC038F505
:101B4000883729F050F4883611F0803729F683E081
:101B50008093EE031092A10357C0883809F47BC02C
:101B6000803919F0803809F0B7CF8091A103803215
:101B700008F071C0E091A10381E08E0F8093A10372
:101B80008091BB00F0E0EF57FC4F80833DC0803B6D
:101B900039F0E0F4803A09F479C0883A09F09CCF32
:101BA00084E08093EE0310927E0310927D03E09117
:101BB0007B03F0917C03099580917D0381110FC017
:101BC00081E080937D0310925B0309C0803C09F49F
:101BD000A6CF883C09F4A3CF883B09F07DCFE091E4
:101BE0007E0381E08E0F80937E03F0E0E55AFC4F88
:101BF00080818093BB0090917E0380917D0329C0FA
:101C00008091C9038093BB0085EC8093BC0064CFB6
:101C10009091EB038091EA03981758F5E091EB035C
:101C200081E08E0F8093EB03F0E0E653FC4F808160
:101C3000E9CFE091EB0381E08E0F8093EB0380917D
:101C4000BB00F0E0E653FC4F80839091EB03809162
:101C5000EA039817C8F285E8D8CFE091EB0381E05A
:101C60008E0F8093EB038091BB00F0E0E653FC4FB6
:101C700080838091ED0381115CCF81E08093C80364
:101C800084EA8093BC001092EE0326CF85EC80930B
:101C9000BC001092EE038091A103803230F4E091F9
:101CA000A103F0E0EF57FC4F10826091A10370E0B8
:101CB000E0917F03F091800381E893E00995109211
:101CC000A1030ACF1092EC0334CF1F920F920FB6EC
:101CD0000F9211242F933F938F939F93AF93BF93B2
:101CE0008091A2039091A303A091A403B091A503B6
:101CF0003091550323E0230F2D3758F50196A11D90
:101D0000B11D209355038093A2039093A303A09346
:101D1000A403B093A5038091560390915703A0911B
:101D20005803B09159030196A11DB11D809356032C
:101D300090935703A0935803B0935903BF91AF9169
:101D40009F918F913F912F910F900FBE0F901F90F9
:101D5000189526E8230F0296A11DB11DD2CF1F9220
:101D60000F920FB60F9211242F933F934F935F93CF
:101D70006F937F938F939F93AF93BF93EF93FF9353
:101D800084E294E00E941E05FF91EF91BF91AF9114
:101D90009F918F917F916F915F914F913F912F9183
:101DA0000F900FBE0F901F9018951F920F920FB6B5
:101DB0000F9211242F938F939F93EF93FF93E091B2
:101DC0003404F09135048081E0913A04F0913B04B1
:101DD00082FD1BC0908180913D048F5F8F732091A5
:101DE0003E04821741F0E0913D04F0E0EC5DFB4FD2
:101DF000958F80933D04FF91EF919F918F912F914B
:101E00000F900FBE0F901F9018958081F4CFCF9345
:101E1000DF93CDB7DEB7AC970FB6F894DEBF0FBE39
:101E2000CDBF10921B0410921A0488EE93E0A0E03C
:101E3000B0E080931C0490931D04A0931E04B09303
:101E40001F042EE531E030931904209318041092FA
:101E50002704109226048093280490932904A093C9
:101E60002A04B0932B0480E791E09093250480939B
:101E7000240485EC90E0909331048093300484EC4A
:101E800090E0909333048093320480EC90E0909340
:101E900035048093340481EC90E090933704809370
:101EA000360482EC90E0909339048093380486ECF9
:101EB00090E090933B0480933A0410923D0410927A
:101EC0003E0410923F0410924004109214051092A8
:101ED00013051092120510920F05E4E6F1E081E07F
:101EE0008C3051F09491823009F49F5F21E0280FEB
:101EF0003196992309F4D4C08093100581E0809332
:101F0000110529EE34E08FE08093EE048BE080939E
:101F1000EF04EFE5F1E0E491E093F004EBE4F1E0AD
:101F2000E491E093F10440E85EE360E070E0409308
:101F3000F6045093F7046093F8047093F9048093C7
:101F4000FC0480E991E09093FE048093FD043093BB
:101F50000105209300058FEF9FEFDC0180930205C0
:101F600090930305A0930405B093050542E851E062
:101F7000509307054093060530930A052093090501
:101F800080930B0590930C05A0930D05B0930E055F
:101F900069EA71E0CE0187960E94340A88E0EBEC92
:101FA000F4E0DE01599601900D928A95E1F788E000
:101FB000EBECF4E0DE01519601900D928A95E1F789
:101FC0001AA219A21CA21BA21EA21DA2BE01695D1B
:101FD0007F4FCE0181960E94130A88E0FE01799618
:101FE000DE01199601900D928A95E1F788E0FE01D5
:101FF0007196DE01119601900D928A95E1F763E1E9
:1020000073E083EE94E00E94340ABE016F5D7F4F5F
:1020100083EE94E00E94130A88E0FE013996A3ED56
:10202000B4E001900D928A95E1F788E0FE013196C7
:10203000ABEDB4E001900D928A95E1F7CE01819667
:102040000E94C809CE0187960E94C80966EC71E01B
:10205000CE0181960E94340A63E173E085EC94E03E
:102060000E94340ABE016F5D7F4F85EC94E00E94B0
:10207000130A8FEF9FEF9093C2048093C104909353
:10208000C4048093C304CE0181960E94C809AC9613
:102090000FB6F894DEBF0FBECDBFDF91CF9108958C
:1020A000822F1ECFCF93DF93CDB7DEB7C45BD109AC
:1020B0000FB6F894DEBF0FBECDBF789484B58260B2
:1020C00084BD84B5816084BD85B5826085BD85B5DC
:1020D000816085BD80916E00816080936E0010925A
:1020E00081008091810082608093810080918100D5
:1020F0008160809381008091800081608093800066
:102100008091B10084608093B1008091B0008160C3
:102110008093B00080917A00846080937A008091EF
:102120007A00826080937A0080917A008160809347
:102130007A0080917A00806880937A001092C100C2
:10214000E0913404F091350482E08083E091300422
:10215000F09131041082E0913204F09133048FEC5D
:10216000808310923C04E0913804F091390486E0B9
:102170008083E0913604F091370480818061808310
:10218000E0913604F0913704808188608083E0918B
:102190003604F0913704808180688083E0913604B2
:1021A000F091370480818F7D808310924A0385E00F
:1021B00090E090934903809348038CE990E00E945B
:1021C000220862E08091EE040E9442022FB7F89448
:1021D0008091A2039091A303A091A403B091A503C1
:1021E0002FBF805D9740A109B1098093F2049093BD
:1021F000F304A093F404B093F50487E38093FB0405
:1022000061E0809148030E94420260E084E00E9405
:1022100042021092A7031092A6031092F5031092A7
:1022200017040E9403028FE291E090937C03809355
:102230007B0380E391E09093800380937F0381E0B0
:102240008093F40388E6809316040E94B5028111FE
:10225000E4C20E945C0790E0880F892F881F990BC9
:10226000892B81F082EF91E00E94A60847E850E0B8
:1022700060E970E0CE0101960E94450ACE01019608
:102280000E947A0742E750E06BE770E0CE010196CA
:102290000E94450ACE0101960E947A07F9EC8F2E22
:1022A000FCEF9F2EAA24AA94BA2C8EE00E947E02F4
:1022B0009C01990F440B550B2F5F33404109510985
:1022C000A4E6B0E00E94A3162FE43CEF4FEF5FEFCF
:1022D0000E9484166901309354032093530380E1D4
:1022E0000E947E029C01990F440B550B2F5F3340D7
:1022F00041095109A4E6B0E00E94A316A50194018A
:102300000E9484162901190181E08093F40388E674
:10231000809316041092F5031092170460E088E190
:1023200094E00E9488010E94B50267E088E60E945E
:102330009C031092A7038093A60388E194E00E9477
:1023400041018F77282F30E094E0359527959A95B5
:10235000E1F7922F990F990F291B220F280FCD54C7
:10236000DF4F2883C35BD04088E194E00E944101A5
:102370009C0144E0359527954A95E1F72F70332766
:10238000922F990F990F291B220F280FCC54DF4F42
:102390002883C45BD04088E194E00E9441019C0105
:1023A00054E0359527955A95E1F72F703327922FF2
:1023B000990F990F291B220F280FC055DF4F288333
:1023C000C05BD04088E194E00E94410188E194E044
:1023D0000E9441019C0164E0359527956A95E1F7DB
:1023E0002F703327922F990F990F291B220F280F37
:1023F000CF54DF4F2883C15BD04088E194E00E9436
:1024000041019C0174E0359527957A95E1F72F708D
:102410003327922F990F990F291B220F280FCE5483
:10242000DF4F2883C25BD04088E194E00E944101E5
:102430009C01E4E035952795EA95E1F72F70332765
:10244000922F990F990F291B220F820F80930F054E
:10245000CE54DF4F9881C25BD04090931005CF548B
:10246000DF4F9881C15BD04090931105C055DF4F7D
:102470009881C05BD04090931205CC54DF4F988177
:10248000C45BD04090931305CD54DF4F9881C35B5C
:10249000D04090931405CF54DF4F4881C15BD040AA
:1024A000CE54DF4F6881C25BD04090E00E94D505DA
:1024B000069667E070E00E9422172CE0289FB0018A
:1024C000299F700D112460507F4FCE0186559F4F7C
:1024D0000E94340A8091FF048FA380E991E09EA3BB
:1024E0008DA3809100059091010599A788A78091FF
:1024F000020590910305A0910405B09105058AA7F6
:102500009BA7ACA7BDA7BE016F5F7F4FCE0185968D
:102510000E94560B809108052C968FAF2C9782E86D
:1025200091E02B969FAF8EAF2B97809109059091EC
:102530000A052E969FAF8EAF2E9780910B05909136
:102540000C05A0910D05B0910E0562968CAF9DAF64
:10255000AEAFBFAF6297BE016B5D7F4FCE01875BB1
:102560009F4F0E94D00A80914F0390915003C8164C
:10257000D90671F0D0925003C0924F0385E192E0EA
:102580000E94150880915303909154030E9474088F
:1025900080914B0390914C032816390671F05092AC
:1025A0004C0340924B0381E392E00E941508809116
:1025B0004B0390914C030E94740880914803209132
:1025C000530330915403273331050CF02BC161E0E4
:1025D0000E94B70181E080934A03CD88DE88EF88AE
:1025E000F88CA7019601C701B6010E944F188823F5
:1025F00009F41EC189EF90E00E94220881E492E074
:102600000E94A60869AD7AAD8BAD9CAD9B01AC0173
:102610000E944F18811173C163E173E0CE01875BA3
:102620009F4F0E94340A46E050E065E472E0CE011C
:10263000875B9F4F0E94D4090E94E400AB962FAFA6
:10264000AB97AC963FAFAC97AD964FAFAD97AE960C
:102650005FAFAE97AF966FAFAF97E0967FAFE09763
:10266000E1968FAFE197E2969FAFE297AE96CCAC42
:10267000DDACEEACFFACAE970E94E400A3962FAFAA
:10268000A397A4963FAFA497A5964FAFA597A696FC
:102690005FAFA697A7966FAFA797A8967FAFA897AB
:1026A000A9968FAFA997AA969FAFAA974D885E88E3
:1026B0006F88788CA3019201C701B6010E94601552
:1026C000C9ACDAACEBACFCAC811115C0A70196012A
:1026D000AA966CAD7DAD8EAD9FADAA970E94601598
:1026E000882309F44CC0A7019601C701B6010E94D6
:1026F0004F18811144C08CE492E00E94A6088EE736
:1027000092E00E9415082F964EAD5FAD2F972B9645
:102710006EAD7FAD2B9784E294E00E949D048AE920
:1027200091E00E94150880E992E00E94150842E0BD
:10273000C301B2010E94B40885EA92E00E94A60893
:102740008BEB90E00E948D0542E0C701B6010E942C
:10275000B40889EB90E00E94220820E030E040E7D6
:1027600052E4C701B6010E94601587FFC5C088EA20
:1027700092E00E94150884E193E00E94A608CE0131
:10278000875B9F4F0E94C8090E94E400C657DF4F35
:102790002883CA58D040C557DF4F3883CB58D04024
:1027A000C457DF4F4883CC58D040C357DF4F5883BE
:1027B000CD58D040C257DF4F6883CE58D040C15764
:1027C000DF4F7883CF58D040C057DF4F8883C05940
:1027D000D040CF56DF4F9883C159D040C9ACDAAC56
:1027E000EBACFCACA7019601C257DF4F6881798141
:1027F0008A819B81CE58D0400E946015882309F4BD
:1028000082C0A7019601C701B6010E944F18882314
:1028100009F4E7C086EC90E074C089ED91E00E9475
:10282000A608FFCF60E00E94B70110924A03D5CE00
:102830000E94E400CE57DF4F2883C258D040CD57C6
:10284000DF4F3883C358D040CC57DF4F4883C4583C
:10285000D040CB57DF4F5883C558D040CA57DF4FC1
:102860006883C658D040C957DF4F7883C758D040D7
:10287000C857DF4F8883C858D040C757DF4F988369
:10288000C958D040CE57DF4F288139814A815B81BA
:10289000C258D040C701B6010E946015882309F4D0
:1028A000B1CE88E0EBEDF4E0DE01AE58BF4F019011
:1028B0000D928A95E1F788E0FE01EE58FF4FDE01A8
:1028C000A658BF4F01900D928A95E1F7EE962CAD78
:1028D0003DAD4EAD5FADEE97C701B6010E946015EC
:1028E000882309F48FCEC092DB04D092DC04E092FE
:1028F000DD04F092DE0486CE88EE92E03ACF8EEDD3
:1029000090E00E9422080E94E400CE56DF4F288308
:10291000C259D040CD56DF4F3883C359D040CC5632
:10292000DF4F4883C459D040CB56DF4F5883C55939
:10293000D040CA56DF4F6883C659D040C956DF4FD2
:102940007883C759D040C856DF4F8883C859D040D4
:10295000C756DF4F9883C959D040C055DF4F888193
:10296000C05BD040883009F067C00E94E400C656C2
:10297000DF4F2883CA59D040C556DF4F3883CB5923
:10298000D040C456DF4F4883CC59D040C356DF4FA8
:102990005883CD59D040C256DF4F6883CE59D040BE
:1029A000C156DF4F7883CF59D040C056DF4F888360
:1029B000C05AD040CF55DF4F9883C15AD040CE0186
:1029C00086559F4F0E94C80980E090E0892B09F44A
:1029D0006CCC0E940A05882309F460CC0E94000098
:1029E0005DCC88E0EBEDF4E0DE01AE5ABF4F019024
:1029F0000D928A95E1F788E0FE01EE5AFF4FDE0165
:102A0000A65ABF4F01900D928A95E1F7A2962CAD80
:102A10003DAD4EAD5FADA297C701B6010E946015F6
:102A2000882309F470CFC092DF04D092E004E092D2
:102A3000E104F092E20467CFC055DF4F9881C05B9C
:102A4000D040913109F0BBCF0E94E400CE55DF4F5A
:102A50002883C25AD040CD55DF4F3883C35AD04067
:102A6000CC55DF4F4883C45AD040CB55DF4F5883F5
:102A7000C55AD040CA55DF4F6883C65AD040C955A1
:102A8000DF4F7883C75AD040C855DF4F8883C85A74
:102A9000D040C755DF4F9883C95AD04090CF85ECBE
:102AA00094E00E94C80983EE94E00C94C809FB01ED
:102AB000DC0102C005900D9241505040D8F70895B6
:102AC0000E94A21508F481E00895E89409C097FBDC
:102AD0003EF490958095709561957F4F8F4F9F4FF5
:102AE0009923A9F0F92F96E9BB279395F695879539
:102AF00077956795B795F111F8CFFAF4BB0F11F4FC
:102B000060FF1BC06F5F7F4F8F4F9F4F16C08823A2
:102B100011F096E911C0772321F09EE8872F762FD8
:102B200005C0662371F096E8862F70E060E02AF019
:102B30009A95660F771F881FDAF7880F9695879505
:102B400097F90895990F0008550FAA0BE0E8FEEFDA
:102B500016161706E807F907C0F012161306E40761
:102B6000F50798F0621B730B840B950B39F40A265A
:102B700061F0232B242B252B21F408950A2609F438
:102B8000A140A6958FEF811D811D08950E94D91542
:102B90000C944A160E943C1638F00E94431620F00E
:102BA000952311F00C9433160C94391611240C94BF
:102BB0007E160E945B1670F3959FC1F3950F50E04F
:102BC000551F629FF001729FBB27F00DB11D639FDF
:102BD000AA27F00DB11DAA1F649F6627B00DA11D85
:102BE000661F829F2227B00DA11D621F739FB00D2B
:102BF000A11D621F839FA00D611D221F749F33279B
:102C0000A00D611D231F849F600D211D822F762F33
:102C10006A2F11249F5750409AF0F1F088234AF010
:102C2000EE0FFF1FBB1F661F771F881F915050407C
:102C3000A9F79E3F510580F00C9433160C947E1634
:102C40005F3FE4F3983ED4F3869577956795B79503
:102C5000F795E7959F5FC1F7FE2B880F911D96951D
:102C6000879597F9089597F99F6780E870E060E08D
:102C700008959FEF80EC089500240A941616170615
:102C800018060906089500240A941216130614065D
:102C900005060895092E0394000C11F4882352F0C0
:102CA000BB0F40F4BF2B11F460FF04C06F5F7F4F78
:102CB0008F4F9F4F089557FD9058440F551F59F05F
:102CC0005F3F71F04795880F97FB991F61F09F3F19
:102CD00079F087950895121613061406551FF2CF42
:102CE0004695F1DF08C0161617061806991FF1CF92
:102CF00086957105610508940895E894BB276627B9
:102D00007727CB0197F90895052E97FB1EF40094C1
:102D10000E949B1657FD07D00E94E51607FC03D0C2
:102D20004EF40C949B1650954095309521953F4F4D
:102D30004F4F5F4F089590958095709561957F4FA7
:102D40008F4F9F4F08950E940717A59F900DB49F26
:102D5000900DA49F800D911D112408952F923F92F4
:102D60004F925F926F927F928F929F92AF92BF929B
:102D7000CF92DF92EF92FF920F931F93CF93DF9347
:102D8000CDB7DEB7CA1BDB0B0FB6F894DEBF0FBEA4
:102D9000CDBF09942A88398848885F846E847D84F1
:102DA0008C849B84AA84B984C884DF80EE80FD80F3
:102DB0000C811B81AA81B981CE0FD11D0FB6F89469
:102DC000DEBF0FBECDBFED010895A1E21A2EAA1BF2
:102DD000BB1BFD010DC0AA1FBB1FEE1FFF1FA217CB
:102DE000B307E407F50720F0A21BB30BE40BF50BC8
:102DF000661F771F881F991F1A9469F76095709551
:102E0000809590959B01AC01BD01CF010895A29FD3
:102E1000B001B39FC001A39F700D811D1124911DAE
:102E2000B29F700D811D1124911D0895991B79E0A9
:102E300004C0991F961708F0961B881F7A95C9F74A
:102E400080950895AA1BBB1B51E107C0AA1FBB1F99
:102E5000A617B70710F0A61BB70B881F991F5A9526
:102E6000A9F780959095BC01CD010895EE0FFF1F45
:102E70000590F491E02D09945058BB27AA270E9491
:102E800054170C944A160E943C1638F00E944316C0
:102E900020F039F49F3F19F426F40C9439160EF4FF
:102EA000E095E7FB0C943316E92F0E945B1658F36C
:102EB000BA17620773078407950720F079F4A6F51F
:102EC0000C947D160EF4E0950B2EBA2FA02D0B015D
:102ED000B90190010C01CA01A0011124FF27591B5F
:102EE00099F0593F50F4503E68F11A16F040A22F65
:102EF000232F342F4427585FF3CF469537952795D6
:102F0000A795F0405395C9F77EF41F16BA0B620BD4
:102F1000730B840BBAF09150A1F0FF0FBB1F661F1B
:102F2000771F881FC2F70EC0BA0F621F731F841F5E
:102F300048F4879577956795B795F7959E3F08F084
:102F4000B0CF9395880F08F09927EE0F9795879546
:102F500008950E94BD170C944A160E94431658F01B
:102F60000E943C1640F029F45F3F29F00C94331680
:102F700051110C947E160C9439160E945B1668F35E
:102F80009923B1F3552391F3951B550BBB27AA2722
:102F900062177307840738F09F5F5F4F220F331F5C
:102FA000441FAA1FA9F335D00E2E3AF0E0E832D024
:102FB00091505040E695001CCAF72BD0FE2F29D027
:102FC000660F771F881FBB1F261737074807AB07F9
:102FD000B0E809F0BB0B802DBF01FF2793585F4F6E
:102FE0003AF09E3F510578F00C9433160C947E16FF
:102FF0005F3FE4F3983ED4F3869577956795B79550
:10300000F7959F5FC9F7880F911D9695879597F95A
:103010000895E1E0660F771F881FBB1F62177307D3
:103020008407BA0720F0621B730B840BBA0BEE1FE8
:1030300088F7E09508950E94631688F09F5798F0EE
:10304000B92F9927B751B0F0E1F0660F771F881FAD
:10305000991F1AF0BA95C9F714C0B13091F00E94C7
:103060007D16B1E008950C947D16672F782F882780
:10307000B85F39F0B93FCCF3869577956795B395EE
:10308000D9F73EF490958095709561957F4F8F4F5D
:103090009F4F08950E94A21508F48FEF08950E9493
:1030A000A215880B990B08950F931F93CF93DF936D
:1030B0008230910510F482E090E0E0911705F091E4
:1030C000180530E020E0B0E0A0E0309799F4211539
:1030D000310509F44AC0281B390B24303105D8F5D5
:1030E0008A819B816115710589F1FB01938382833C
:1030F000FE0111C040815181028113814817590797
:10310000E0F04817590799F4109761F012960C9364
:10311000129713961C933296CF01DF91CF911F9196
:103120000F9108950093170510931805F4CF2115FA
:10313000310551F04217530738F0A901DB019A011C
:10314000BD01DF01F801C1CFEF01F9CF9093180560
:1031500080931705CDCFFE01E20FF31F819391936A
:103160002250310939832883D7CF2091150530911A
:103170001605232B41F420915601309157013093CD
:103180001605209315052091540130915501211504
:10319000310541F42DB73EB7409158015091590186
:1031A000241B350BE0911505F0911605E217F30786
:1031B000A0F42E1B3F0B2817390778F0AC014E5FA7
:1031C0005F4F2417350748F04E0F5F1F50931605C9
:1031D00040931505819391939FCFF0E0E0E09CCF61
:1031E000CF93DF930097E9F0FC01329713821282AC
:1031F000A0911705B0911805ED0130E020E010977F
:10320000A1F420813181820F931F20911505309107
:1032100016052817390709F061C0F0931605E093E9
:103220001505DF91CF910895EA01CE17DF07E8F584
:103230004A815B819E0141155105B1F7E901FB838C
:10324000EA8349915991C40FD51FEC17FD0761F42A
:10325000808191810296840F951FE901998388836B
:10326000828193819B838A83F0E0E0E012968D91C6
:103270009C9113970097B9F52D913C911197CD0131
:103280000296820F931F209115053091160528177D
:10329000390739F6309751F5109218051092170535
:1032A000B0931605A0931505BCCFD383C28340818C
:1032B0005181840F951FC817D90761F44E5F5F4F86
:1032C00088819981480F591F518340838A819B814E
:1032D000938382832115310509F0B0CFF09318054F
:1032E000E09317059ECFFD01DC01C0CF138212824F
:1032F000D7CFB0E0A0E0EFE7F9E10C94B0168C0175
:10330000009751F4CB010E9454188C01C801CDB72D
:10331000DEB7E0E10C94CC16FC01E60FF71F9C0130
:1033200022503109E217F30708F49DC0D901CD916D
:10333000DC911197C617D70798F0C530D10530F347
:10334000CE0104978617970708F3C61BD70B229761
:10335000C193D1936D937C93CF010E94F018D6CF87
:103360005B01AC1ABD0A4C018C0E9D1EA091170585
:10337000B0911805512C412CF12CE12C109731F50E
:1033800080911505909116058815990509F05CC086
:103390004616570608F058C0809154019091550187
:1033A000009741F48DB79EB7409158015091590153
:1033B000841B950BE817F90708F055C0F093160524
:1033C000E0931505F90171836083A0CF8D919C91E5
:1033D000119712966C90129713967C901397A815DC
:1033E000B90559F56C0142E0C40ED11CCA14DB04C6
:1033F00020F1AC014A195B09DA011296159780F0A9
:103400006282738251834083D9016D937C93E1146E
:10341000F10471F0D7011396FC93EE93129776CFD7
:1034200022968C0F9D1FF90191838083F301EFCFCA
:10343000F0931805E093170569CF4816590608F46C
:103440002C017D01D3019ACFCB010E9454187C013D
:10345000009749F0AE01B8010E94361AC8010E94D7
:10346000F018870153CF10E000E050CFFB01DC01E2
:1034700002C001900D9241505040D8F70895FB01D1
:10348000DC0101900D920020E1F70895FB01DC01C1
:103490004150504048F001900D920020C9F701C002
:1034A0001D9241505040E0F7089510E0C9EBD0E084
:1034B00004C0FE010E9436172196CA3BD107C9F706
:0434C000F894FFCFAE
:1034C40053756E0000000000000000004D6F6E0098
:1034D40000000000000000005475650000000000BA
:1034E40000000000576564000000000000000000B8
:1034F4005468750000000000000000004672690076
:10350400000000000000000053617400000000008F
:103514000000000000001905800000000000880180
:103524005B01CA0431015401410132010000000071
:1035340040059D04CD04A805FE04DC04F00400004D
:1035440000005A07D0095B07D00A390C00000000BC
:103554005A07D2095B07560BB50C0D0A006E616E53
:1035640000696E66006F7666004448543131004449
:1035740048543132004448543231004448543232C1
:10358400004448543F0073756E6C696768745F69E2
:103594006E74656E7369747900436F756C646E271D
:1035A400742066696E6420525443204D6F64756CB8
:1035B4006500525443206C6F737420706F7765728A
:1035C4002C206C6574732073657420746865207492
:1035D400696D65210053756E6C696768745F696E07
:1035E40074656E736974795F696E736964653A2092
:1035F40000736F696C206D6F6973747572653A201E
:103604000068657900496E73696465003D3D3D3D20
:103614003D3D3D3D3D3D3D3D3D3D3D3D3D3D3D3DD6
:103624003D3D3D3D3D3D3D3D3D3D3D3D3D3D3D3DC6
:103634003D3D3D3D3D3D3D3D3D3D3D3D3D004448E1
:103644005431312C20504F534954494F4E3A2000A5
:103654000A6576656E742E74656D70657261747535
:1036640072653A20002043000A4B414D49204D45E4
:103674004D42555455484B414E204B454C454D42C7
:103684004142414E20554441524121205349524127
:103694004D2054414E414D414E20494E4920534501
:1036A40047455241210A0A000A4B414D49205449D9
:1036B40044414B204D454D42555455484B414E20B5
:1036C4004B454C454D424142414E205544415241A7
:1036D400210A0A003D3D3D3D3D3D3D3D3D3D3D3DD5
:1036E4003D3D3D3D3D3D3D3D3D3D3D3D3D3D3D3D06
:1036F4003D3D3D3D3D3D3D3D3D3D3D3D3D3D3D3DF6
:083704003D3D3D3D3D0A0A0078
:00000001FF
