:100000000C94BA000C94E2000C94E2000C94E20010
:100010000C94E2000C94E2000C94E2000C94E200D8
:100020000C94E2000C94E2000C94E2000C94E200C8
:100030000C94E2000C94E2000C94E2000C94E200B8
:100040000C946B0E0C94E2000C94DB0E0C94B50E29
:100050000C94E2000C94E2000C94E2000C94E20098
:100060000C944C0D0C94E2000000000023002600CC
:10007000290030363A30373A32340041707220313C
:100080003920323032310030363A30373A323400AB
:100090004170722031392032303231004448547876
:1000A0007820556E69666965642053656E736F725A
:1000B000204578616D706C6500250048756D696438
:1000C0006974793A20004572726F722072656164BA
:1000D000696E672068756D6964697479210045727D
:1000E000726F722072656164696E672074656D70ED
:1000F0006572617475726521004572726F7220724B
:10010000656164696E672074656D70657261747590
:100110007265210000000000240027002A00000072
:100120000000250028002B0000000008000201004C
:1001300000030407000000000000000004040404A1
:100140000404040402020202020203030303030381
:10015000010204081020408001020408102001025E
:10016000040810201F1C1F1E1F1E1F1F1E1F1E0005
:100170000D0FE41411241FBECFEFD8E0DEBFCDBFBA
:1001800013E0A0E0B1E0EEEEF3E302C005900D92C3
:10019000AE33B107D9F725E0AEE3B3E001C01D925D
:1001A000A730B207E1F710E0C9EBD0E004C0219717
:1001B000FE010E94CB16C83BD107C9F70E94581018
:1001C0000C94EA190C940000CF93DF93CDB7DEB7FF
:1001D00028970FB6F894DEBF0FBECDBF88E0E9ECDC
:1001E000F4E0DE01119601900D928A95E1F72981E4
:1001F0003A814B815C816D817E818F8198852896C3
:100200000FB6F894DEBF0FBECDBFDF91CF9108953A
:1002100020916B03260F3327331F21323105ECF475
:100220002091DC03FC0190E080E0243069F082E062
:100230000895A0916B032191AC01475B5C4FA40F23
:10024000B52FB11D2C930196861798F380916B03FF
:10025000680F60936B0380E0089581E0089508952E
:1002600008950895E091950380919403E81730F480
:10027000F0E0EA56FC4F808190E008958FEF9FEF09
:10028000089590919503809194032FEF3FEF981775
:1002900048F4E92FF0E0EA56FC4F208130E09F5F00
:1002A00090939503C90108958091940390919503CB
:1002B000891B990B0895CF92DF92EF92FF920F93D3
:1002C0001F93CF93DF937C01CB018A012091E2033E
:1002D000222389F0EB016B01C40ED51ECC15DD0580
:1002E00069F06991D701ED91FC910190F081E02DC9
:1002F000C7010995F3CF642F0E940801C801DF915F
:10030000CF911F910F91FF90EF90DF90CF900895C4
:10031000CF93DF931F92CDB7DEB769832091E203BD
:100320002223F9F020910504203258F021E030E03A
:10033000FC013383228390E080E00F90DF91CF9126
:1003400008958091E303E82FF0E0EC51FC4F998190
:1003500090838F5F8093E3038093050481E090E0B6
:10036000ECCF61E0CE0101960E940801F7CF90E04A
:10037000FC01E85DFE4F2491FC01E05BFE4F3491EF
:10038000FC01E45CFE4FE491EE23C9F0222339F036
:10039000233001F1A8F4213019F1223029F1F0E0E5
:1003A000EE0FFF1FE25EFE4FA591B4918FB7F89458
:1003B000EC91611126C030953E233C938FBF089588
:1003C0002730A9F02830C9F0243049F78091800007
:1003D0008F7D03C0809180008F7780938000DFCF76
:1003E00084B58F7784BDDBCF84B58F7DFBCF8091C3
:1003F000B0008F778093B000D2CF8091B0008F7D16
:10040000F9CF3E2BDACF1092DC0381E08093DB033F
:100410001092B60361E082E10E94B70161E083E1DE
:100420000E94B701E9EBF0E080818E7F80838081BC
:100430008D7F808388E48093B80085E48093BC003E
:100440000895CF93DF9391E0909348038823B9F008
:10045000C091B800D091BA008091BC008A7B809393
:10046000BC0060E082E10E94B70160E083E10E948D
:10047000B7010E940302D093BA00C093B800DF9185
:10048000CF910895CF93DF9390E0FC01E05BFE4FA6
:100490002491845C9E4FFC0184918823C9F090E0F4
:1004A000880F991FFC01EC5EFE4FA591B491FC01F1
:1004B000E25EFE4FC591D49161110DC09FB7F894D3
:1004C0008C91209582238C938881282328839FBF39
:1004D000DF91CF910895623051F49FB7F8943C9129
:1004E000822F809583238C93E8812E2BEFCF8FB7BB
:1004F000F894EC912E2B2C938FBFEACF8E50806412
:1005000080937C0080917A00806480937A0080914F
:100510007A0086FDFCCF8091780090917900089553
:100520003FB7F8948091440390914503A09146030E
:10053000B091470326B5A89B05C02F3F19F001963F
:10054000A11DB11D3FBFBA2FA92F982F8827BC012D
:10055000CD01620F711D811D911D42E0660F771F55
:10056000881F991F4A95D1F70895CF92DF92EF9295
:10057000FF920F931F93CF93DF93D091050481E0F7
:10058000D13208F09CC0C09104040E9490026B011B
:100590007C018091DC0381116CC082E08093DC03DC
:1005A00081E08093DB038FEF8093DA031092D9030D
:1005B000D093D803A4EEB3E0E8EBF3E080E0D813E7
:1005C0008DC01092B7038091B703CC0FC82BC09396
:1005D000B7038091B603813009F084C01092B6034E
:1005E0000E9490026B017C018091B7038093BB0055
:1005F0008091DE039091DF03A091E003B091E103CD
:10060000892B8A2B8B2BA1F00E9490020091DE0394
:100610001091DF032091E0033091E1036C197D0913
:100620008E099F09061717072807390708F442C0E3
:100630008091BC0083FDD8CF85EC8093BC000E94E4
:1006400090026B017C018091DC03823009F44CC084
:100650008091DA038F3F09F469C08091DA03803218
:1006600009F466C08091DA03803309F463C084E042
:1006700026C08091DE039091DF03A091E003B0914A
:10068000E103892B8A2B8B2B09F483CF0E949002E4
:100690000091DE031091DF032091E0033091E1032C
:1006A0006C197D098E099F09061717072807390756
:1006B00008F06FCF8091DD030E94210285E0109247
:1006C000E303109205041092E203DF91CF911F9192
:1006D0000F91FF90EF90DF90CF9008959D919193AF
:1006E0008F5F6DCF85EEA9CF8091DE039091DF0300
:1006F000A091E003B091E103892B8A2B8B2B09F4A5
:10070000A2CF0E9490020091DE031091DF0320919E
:10071000E0033091E1036C197D098E099F090617EA
:1007200017072807390708F08ECFC4CF80E0C7CF5E
:1007300082E0C5CF83E0C3CFCF92DF92EF92FF92EA
:100740000F931F93CF93DF93D82FC62F613208F0FA
:1007500098C00E9490026B017C018091DC038111A2
:100760006BC081E08093DC038093DB039FEF909369
:10077000DA031092D9039C0F9093D8038093B703A8
:100780008091B703DD0FD82BD093B7038091B603C8
:10079000813009F078C01092B6030E9490026B017C
:1007A0007C018091B7038093BB008091DE03909120
:1007B000DF03A091E003B091E103892B8A2B8B2BFF
:1007C000A1F00E9490020091DE031091DF032091BE
:1007D000E0033091E1036C197D098E099F0906172A
:1007E00017072807390708F448C08091BC0083FD2B
:1007F000D8CF85EC8093BC000E9490026B017C01F5
:100800008091DC03813009F440C08091D9038C17BA
:1008100010F4C091D903E8EBF3E0A6E9B3E080E07F
:100820008C1355C08C2FDF91CF911F910F91FF90AA
:10083000EF90DF90CF9008958091DE039091DF03D9
:10084000A091E003B091E103892B8A2B8B2B09F453
:1008500084CF0E9490020091DE031091DF0320916B
:10086000E0033091E1036C197D098E099F09061799
:1008700017072807390708F070CF8091DD030E9421
:100880002102C0E0CFCF85EEB5CF8091DE039091FD
:10089000DF03A091E003B091E103892B8A2B8B2B1E
:1008A00009F4AECF0E9490020091DE031091DF03A5
:1008B0002091E0033091E1036C197D098E099F09B5
:1008C000061717072807390708F09ACFD6CF919156
:1008D0009D938F5FA5CF8F929F92AF92BF92CF9241
:1008E000DF92EF92FF924B015C010E9490026B013C
:1008F0007C010E9490026C197D098E099F09683E57
:10090000734081059105A8F321E0821A9108A1089E
:10091000B10888EEC80E83E0D81EE11CF11C8114DA
:100920009104A104B10429F7FF90EF90DF90CF90DC
:10093000BF90AF909F908F900895AF92BF92CF924B
:10094000DF92EF92FF920F931F93CF93DF936C018F
:100950007B018B01040F151FEB015E01AE18BF0870
:10096000C017D10759F06991D601ED91FC91019022
:10097000F081E02DC6010995892B79F7C501DF913A
:10098000CF911F910F91FF90EF90DF90CF90BF908C
:10099000AF90089590E080E00895FC01538D448D60
:1009A000252F30E0842F90E0821B930B541710F01A
:1009B000CF96089501970895FC01918D828D981727
:1009C00061F0A28DAE0FBF2FB11D5D968C91928DFF
:1009D0009F5F9F73928F90E008958FEF9FEF089530
:1009E000FC01918D828D981731F0828DE80FF11DF9
:1009F000858D90E008958FEF9FEF0895FC01918D14
:100A0000228D892F90E0805C9F4F821B91098F730C
:100A10009927089582E194E00E94FE0421E0892B49
:100A200009F420E0822F089580E090E0892B29F0DE
:100A30000E940A0581110C9400000895FC01A48D08
:100A4000A80FB92FB11DA35ABF4F2C91848D90E0F0
:100A500001968F739927848FA689B7892C93A089D3
:100A6000B1898C91837080648C93938D848D98135D
:100A700006C00288F389E02D80818F7D80830895F0
:100A8000EF92FF920F931F93CF93DF93EC0181E0DE
:100A9000888F9B8D8C8D98131AC0E889F989808185
:100AA00085FF15C09FB7F894EE89FF896083E889B8
:100AB000F98980818370806480839FBF81E090E0AA
:100AC000DF91CF911F910F91FF90EF900895F62E37
:100AD0000B8D10E00F5F1F4F0F731127E02E8C8DD1
:100AE0008E110CC00FB607FCFACFE889F989808116
:100AF00085FFF5CFCE010E941E05F1CFEB8DEC0FE7
:100B0000FD2FF11DE35AFF4FF0829FB7F8940B8F32
:100B1000EA89FB8980818062CFCF0F931F93CF93A7
:100B2000DF938C01D0E0C0E0F801EC0FFD1F649171
:100B3000662341F082E194E00E944005892B11F088
:100B40002196F2CFCE01DF91CF911F910F910895A1
:100B5000682F82E194E00C944005CF93DF93EC0181
:100B6000888D8823B9F0AA89BB89E889F9898C9195
:100B700085FD03C0808186FD0DC00FB607FCF7CF51
:100B80008C9185FFF2CF808185FFEDCFCE010E9451
:100B90001E05E9CFDF91CF910895FC01618190811D
:100BA000492F50E08281282F30E0E4E6F1E081E037
:100BB000861730F47491270F311D8F5F3196F8CF6F
:100BC000633020F0937011F42F5F3F4F6DE671E0BA
:100BD000469FC001479F900D569F900D112405968A
:100BE0004D5F5F4F5695479556954795840F951FD6
:100BF000820F931F67E070E00E94B7160895FC0112
:100C0000908190539A3008F090E0818180532AE0DF
:100C1000929F800D11240895CF92DF92EF92FF9260
:100C2000CF93DF93DC011796CC911797D0E0611139
:100C3000DC2F18962C91189730E0220F331F28597B
:100C40003F4F50E040E0F90185919491FC01F08024
:100C5000BA0190E080E0EF2DEC23ED1310C04F5F60
:100C60005F4F1D96CD90DD90ED90FC9050976C15E8
:100C70007D058E059F0538F36FEF7FEFCB01DF9188
:100C8000CF91FF90EF90DF90CF9008958F929F9239
:100C9000AF92BF92CF92DF92EF92FF920F931F938A
:100CA000CF93DF93CDB7DEB7C054D1400FB6F894E1
:100CB000DEBF0FBECDBF2FB7F89440919003509187
:100CC000910360919203709193032FBFFC01018502
:100CD0001285238534856A017B01C01AD10AE20A94
:100CE000F30A97018601003D174021053105B0F454
:100CF000FC018189C05CDE4F0FB6F894DEBF0FBEE9
:100D0000CDBFDF91CF911F910F91FF90EF90DF90BA
:100D1000CF90BF90AF909F908F9008958C01FC0171
:100D200041875287638774871482138212821182EB
:100D3000108262E085810E94420261E070E080E002
:100D400090E00E946B0461E0F80185810E944202FC
:100D500060E0F80185810E94B701F8018681855124
:100D6000823028F58BE291E10197F1F762E0F8011A
:100D700085810E944202F801828990E082309105CB
:100D800038F0880F991F880F991F05970197F1F781
:100D9000F89460E0C8010E940C066F3F7F4F8F4FB0
:100DA0009F4F61F4F801118A789480E0A3CF64E149
:100DB00070E080E090E00E946B04D8CF61E0C80151
:100DC0000E940C066F3F7F4F8F4F9F4F59F3CE010C
:100DD00001967C015E019FEBA91A9EEFB90A67019B
:100DE00060E0C8010E940C06F60160837183828373
:100DF000938361E0C8010E940C06F6016483758349
:100E000086839783F8E0CF0ED11CCA14DB0441F728
:100E1000789430E020E0F70180809180A280B38058
:100E20004481558166817781FFEF8F169F06AF065B
:100E3000BF0631F04F3F8FEF58076807780719F466
:100E4000F801118AB2CFF90183E0F595E7958A950B
:100E5000E1F7E00FF11F8081880F84169506A60642
:100E6000B706F0F080832F5F3F4FF8E0EF0EF11CE4
:100E70002832310581F6F801448120818181280FD3
:100E80003327331F8281280F311D8381820F932FD7
:100E9000911D99274817190699F681E0818B2ACF71
:100EA0008160E0CFFC0183898B3051F480E492E4CF
:100EB000AFE0B0E0FB0184A395A3A6A3B7A3089578
:100EC00080E894E8AEE1B0E0F5CF0895089581E0C0
:100ED0008093E20388E6809304041092E303109267
:100EE00005046FE086E094E00E9488010E94B5024C
:100EF00061E088E60E949C0310929503809394031E
:100F000086E094E00E94410108951F93CF93DF9300
:100F1000EC0181E08093E20388E680930404109260
:100F2000E3031092050460E086E094E00E948801EB
:100F30002D811AE0822F612F0E94AB16682F660F59
:100F4000680F660F620F86E094E00E9488012C8192
:100F5000822F612F0E94AB16682F660F680F660FF5
:100F6000620F86E094E00E9488012B81822F612F1E
:100F70000E94AB16682F660F680F660F620F86E03F
:100F800094E00E948801CE010E94CD05282F811196
:100F900001C027E01AE0822F612F0E94AB16682F54
:100FA000660F680F660F620F86E094E00E9488016A
:100FB0002A81822F612F0E94AB16682F660F680F5F
:100FC000660F620F86E094E00E9488012981822FDB
:100FD000612F0E94AB16682F660F680F660F620FB5
:100FE00086E094E00E9488012881822F612F0E9470
:100FF000AB16682F660F680F660F620F86E094E0ED
:101000000E9488010E94B5020E946707C82F81E0F4
:101010008093E20388E6809304041092E303109225
:1010200005046FE086E094E00E9488016C2F6F77E2
:1010300086E094E00E948801DF91CF911F910C948B
:10104000B502FC0101900020E9F73197AF01481B80
:10105000590BBC0182E194E00C949D04CF93DF9383
:101060000E948D05EC018AE991E00E9421088C0F15
:101070009D1FDF91CF9108958F929F92AF92BF9263
:101080000F931F93CF93DF93CDB7DEB7A1970FB622
:10109000F894DEBF0FBECDBF19A2423008F44AE07B
:1010A0008E010F5D1F4F842E912CB12CA12CA50118
:1010B00094010E947A16E62FB901CA01EA30F4F4CD
:1010C000E05DD801EE938D01232B242B252B79F79E
:1010D00090E080E0109719F0CD010E942108A196C0
:1010E0000FB6F894DEBF0FBECDBFDF91CF911F9139
:1010F0000F91BF90AF909F908F900895E95CE1CFE2
:10110000CF92DF92EF92FF92CF93DF936C01990F12
:10111000EE08FF08F7FE17C08DE20E94A805EC015B
:1011200066277727CB016C197D098E099F094AE054
:101130000E943C088C0F9D1FDF91CF91FF90EF9094
:10114000DF90CF9008954AE0C701B601DF91CF91BB
:10115000FF90EF90DF90CF900C943C08CF93DF93FB
:101160000E942108EC018AE991E00E9421088C0F7D
:101170009D1FDF91CF9108950C9421084F925F92AB
:101180006F927F928F929F92AF92BF92CF92DF9297
:10119000EF92FF920F931F93CF936B017C01742EFC
:1011A000AC019B010E94E417882399F08DE991E03E
:1011B000CF911F910F91FF90EF90DF90CF90BF9054
:1011C000AF909F908F907F906F905F904F900C9416
:1011D000210846015701E894B7F82FEF3FEF4FE79A
:1011E0005FE7C501B4010E94E41781110DC02FEF24
:1011F0003FEF4FE75FE7C501B4010E94F5141816F1
:101200001CF481EA91E0D4CF2FEF3FEF4FE75FE48A
:10121000C701B6010E94DF1718161CF485EA91E099
:10122000C7CF2FEF3FEF4FE75FECC701B6010E943A
:10123000F51487FDF3CF20E030E0A901C701B60126
:101240000E94F51410E000E087FF08C08DE20E94C4
:10125000A8058C01F7FAF094F7F8F094C0E060E08C
:1012600070E080E09FE37C1641F020E030E040E257
:1012700051E40E943E17CF5FF6CFA70196010E946E
:10128000D2162B013C010E94B0174B015C014AE0D1
:101290000E943C087C01E00EF11ECC23B1F1C50197
:1012A000B4010E94FA149B01AC01C301B2010E9477
:1012B000D1164B015C018EE20E94A805E80EF91ED2
:1012C000C15018F120E030E040E251E4C501B40122
:1012D0000E945B152B013C010E94B0174B01B12C01
:1012E000A12C4AE0C501B4010E943C08E80EF91E99
:1012F000C501B4010E94FA149B01AC01C301B20103
:101300000E94D1164B015C01DBCFC701CF911F9129
:101310000F91FF90EF90DF90CF90BF90AF909F9094
:101320008F907F906F905F904F90089585ED8093A0
:10133000BC008091DE039091DF03A091E003B091A7
:10134000E1030796A11DB11D23E0B695A7959795DA
:1013500087952A95D1F72091BC0024FD03C01092F7
:10136000DC0308954091DE035091DF036091E003B8
:101370007091E103452B462B472B69F30097A1059C
:10138000B10541F025E32A95F1F700000197A10985
:10139000B109E1CF8091DD030C942102FC01808131
:1013A0009181009711F00C94851808950C9485187C
:1013B0000C948518EF92FF920F931F93CF93DF93B6
:1013C000EC017B018A0188819981009729F02A81AB
:1013D0003B812417350788F4B8016F5F7F4F0E9467
:1013E0000E19009791F0998388831B830A832C81BF
:1013F0003D81232B11F4FC0110821D830C83B70166
:10140000888199810E94D4190CC0888199810097A4
:1014100011F00E948518198218821D821C821B827D
:101420001A82CE01DF91CF911F910F91FF90EF9023
:101430000895CF93DF93EC01FB018617970749F0DE
:10144000608171816115710541F0448155810E946F
:10145000DA09CE01DF91CF910895888199810097B3
:1014600011F00E948518198218821D821C821B822D
:101470001A82EFCFFC011182108213821282158230
:101480001482FB0101900020E9F73197AF01461B60
:10149000570B0C94DA09EF92FF920F931F93CF939F
:1014A000DF93CDB7DEB72B970FB6F894DEBF0FBE34
:1014B000CDBF8C017A014BE050E0CE0101960E9435
:1014C000EC14CE010A960E94FF05F8018083E981A1
:1014D000E154E33118F50E2E000CFF0BEE58F54FDA
:1014E0000C94CB16C00A8E0A8E0AD40A8E0ABE0A43
:1014F0008E0A8E0A8E0A850A8E0A8E0AC70AD20AB8
:10150000D00A8E0A8E0A8E0ACE0A8A81813691F11D
:101510008B818E3689F187E0F8018183CE010596B3
:101520000E94FF05F801828348E050E0B701CE0138
:1015300001960E94EC14CE0101960E94FF05F8016D
:101540008383CE0104960E94FF05F8018483CE01B7
:1015500007960E94FF05F80185832B960FB6F89435
:10156000DEBF0FBECDBFDF91CF911F910F91FF90D6
:10157000EF90089581E0D0CF86E0CECF82E0CCCF4F
:101580008B81823711F088E0C7CF84E0C5CF8B8193
:10159000823711F085E0C0CF83E0BECF89E0BCCFB9
:1015A0008AE0BACF8BE0B8CF8CE0B6CFCF92DF9293
:1015B000EF92FF920F931F93CF93DF93EB01FB0109
:1015C000349620E2DF011D922A95E9F744E250E0CB
:1015D00060E070E0488359836A837B83FC01458126
:1015E0005681678170854C835D836E837F834CE079
:1015F00050E060E070E0488759876A877B872FB7A3
:10160000F8944091900350919103609192037091EE
:1016100093032FBF488B598B6A8B7B8B038114817B
:10162000C8010E944606882349F0F80186818B3064
:1016300028F08D3040F08551823070F160E070E02C
:1016400080EC9FE71BC0618170E090E080E00E9429
:10165000FC142DEC3CEC4CEC5DE30E945B156B0143
:101660007C01F801608170E090E080E00E94FC1451
:101670009B01AC01C701B6010E94D2166C8B7D8B19
:101680008E8B9F8B81E0DF91CF911F910F91FF9007
:10169000EF90DF90CF900895608171817627672762
:1016A000762790E080E00E94FA142DEC3CEC4CECA4
:1016B0005DE30E945B15E2CF8F929F92AF92BF9243
:1016C000EF92FF921F93CF93DF93EB01FB013496D0
:1016D00020E2DF011D922A95E9F744E250E060E044
:1016E00070E0488359836A837B83FC01458156817E
:1016F000678170854C835D836E837F834DE050E00E
:1017000060E070E0488759876A877B872FB7F89435
:1017100040919003509191036091920370919303D3
:101720002FBF488B598B6A8B7B8BE380F480C7017A
:101730000E944606882341F0F70186818C3009F427
:1017400055C038F48B30E1F060E070E080EC9FE74A
:101750003EC085518230C0F71281612F70E0762F34
:10176000662766277F778381682B90E080E00E9460
:10177000FA142DEC3CEC4CEC5DE30E945B1551C07F
:10178000628170E090E080E00E94FA144B015C01FD
:10179000F701138117FF0AC0AC019B0160E070E004
:1017A00080E89FEB0E94D1164B015C011F70612FF6
:1017B00070E090E080E00E94FC142DEC3CEC4CECDE
:1017C0005DE30E945B15A50194010E94D2166C8B0B
:1017D0007D8B8E8B9F8B81E0DF91CF911F91FF904E
:1017E000EF90BF90AF909F908F9008951281612FDE
:1017F00070E090E080E00E94FA144B015C01F70178
:1018000063816F7070E090E080E00E94FC142DEC2A
:101810003CEC4CEC5DE30E945B15A50194010E9439
:10182000D21617FFD4CF9058D2CFCF93DF93EB01CE
:10183000FC0183894BE050E06FEA71E08C30C1F02D
:1018400058F44BE050E069EA71E08B3089F04BE0EE
:1018500050E061EC71E00CC04BE050E065EB71E0F2
:10186000853131F04BE050E06BEB71E0863179F778
:10187000CE010E94DB191B86DF91CF9108950F9353
:101880001F93CF93DF938C01EB0188E2DB011D9264
:101890008A95E9F7F801838194810E94150C81E013
:1018A00090E0A0E0B0E08C879D87AE87BF87F8010D
:1018B00085819681A781B085888B998BAA8BBB8BFC
:1018C0008CE090E0A0E0B0E08C8B9D8BAE8BBF8B6A
:1018D000BE01838194810E945207D8011396ED9135
:1018E000FC9183898C3009F441C078F48B3009F184
:1018F000188E198E1A8E1B8E1C8E1D8E1E8E1F8E9C
:1019000018A219A21AA21BA22CC08551823080F7FE
:1019100080E090E0A8ECB2E4888F998FAA8FBB8F0B
:101920001C8E1D8E1E8E1F8E8DEC9CECACECBDE3D0
:1019300014C080E090E0A0EAB2E4888F998FAA8F6B
:10194000BB8F80E090E0A0EAB1E48C8F9D8FAE8FDA
:10195000BF8F80E090E0A0EAB0E488A399A3AAA397
:10196000BBA3DF91CF911F910F91089580E090E08C
:10197000AEEBB2E4E2CF0F931F93CF93DF938C01D2
:10198000EB0188E2DB011D928A95E9F7F80183817A
:1019900094810E94150C81E090E0A0E0B0E08C877B
:1019A0009D87AE87BF87F80185819681A781B08525
:1019B000888B998BAA8BBB8B8DE090E0A0E0B0E088
:1019C0008C8B9D8BAE8BBF8BBE01838194810E94DB
:1019D0005207D8011396ED91FC9183898C3091F1D7
:1019E00078F48B30B1F0188E198E1A8E1B8E1C8EE7
:1019F0001D8E1E8E1F8E18A219A21AA21BA21DC018
:101A00008531A9F1863179F780E090E0AAEFB2E460
:101A100032C080E090E0A8E4B2E4888F998FAA8F6A
:101A2000BB8F1C8E1D8E1E8E1F8E80E090E0A0E06E
:101A3000B0E488A399A3AAA3BBA3DF91CF911F9180
:101A40000F91089580E090E0A0E7B2E4888F998F2D
:101A5000AA8FBB8F80E090E0A0EAB1EC8C8F9D8FC5
:101A6000AE8FBF8F80E090E0A0E0BFE3E2CF80E0E8
:101A700090E0A0EAB2E4888F998FAA8FBB8F80E0B4
:101A800090E0A0E2B2EC8C8F9D8FAE8FBF8F8DEC7B
:101A90009CECACECBDE3CDCF1F920F920FB60F9232
:101AA00011242F933F934F935F936F937F938F9363
:101AB0009F93AF93BF93EF93FF938091B900887F7B
:101AC000803609F44AC0F0F5883209F4A7C018F549
:101AD000803109F49BC0B8F4882309F4F9C0883038
:101AE00009F494C0FF91EF91BF91AF919F918F91B5
:101AF0007F916F915F914F913F912F910F900FBE0A
:101B00000F901F901895883109F488C0803251F7E2
:101B10008093DA0314C0803409F49DC040F480330C
:101B2000B9F38833F9F68093DA0385ECB0C08035D9
:101B300009F485C0883509F496C0883499F60E9466
:101B40009609D0CF883909F48CC038F5883729F048
:101B500050F4883611F0803729F683E08093DC0357
:101B600010928F0357C0883809F47BC0803919F070
:101B7000803809F0B7CF80918F03803208F071C0B0
:101B8000E0918F0381E08E0F80938F038091BB00E3
:101B9000F0E0E159FC4F80833DC0803B39F0E0F438
:101BA000803A09F479C0883A09F09CCF84E08093A8
:101BB000DC0310926C0310926B03E0916903F091C7
:101BC0006A03099580916B0381110FC081E08093B6
:101BD0006B031092490309C0803C09F4A6CF883CEE
:101BE00009F4A3CF883B09F07DCFE0916C0381E03D
:101BF0008E0F80936C03F0E0E75BFC4F8081809355
:101C0000BB0090916C0380916B0329C08091B70356
:101C10008093BB0085EC8093BC0064CF9091D90386
:101C20008091D803981758F5E091D90381E08E0F81
:101C30008093D903F0E0E854FC4F8081E9CFE09134
:101C4000D90381E08E0F8093D9038091BB00F0E02F
:101C5000E854FC4F80839091D9038091D803981762
:101C6000C8F285E8D8CFE091D90381E08E0F809348
:101C7000D9038091BB00F0E0E854FC4F8083809151
:101C8000DB0381115CCF81E08093B60384EA80930B
:101C9000BC001092DC0326CF85EC8093BC00109230
:101CA000DC0380918F03803230F4E0918F03F0E009
:101CB000E159FC4F108260918F0370E0E0916D0359
:101CC000F0916E038FE693E0099510928F030ACF8F
:101CD0001092DA0334CF1F920F920FB60F92112495
:101CE0002F933F938F939F93AF93BF9380919003D4
:101CF00090919103A0919203B0919303309143038B
:101D000023E0230F2D3758F50196A11DB11D209317
:101D100043038093900390939103A0939203B09315
:101D200093038091440390914503A0914603B091A1
:101D300047030196A11DB11D809344039093450371
:101D4000A0934603B0934703BF91AF919F918F91AA
:101D50003F912F910F900FBE0F901F90189526E87E
:101D6000230F0296A11DB11DD2CF1F920F920FB665
:101D70000F9211242F933F934F935F936F937F9311
:101D80008F939F93AF93BF93EF93FF9382E194E080
:101D90000E941E05FF91EF91BF91AF919F918F918E
:101DA0007F916F915F914F913F912F910F900FBE57
:101DB0000F901F9018951F920F920FB60F9211243B
:101DC0002F938F939F93EF93FF93E0912204F091D1
:101DD00023048081E0912804F091290482FD1BC036
:101DE000908180912B048F5F8F7320912C04821738
:101DF00041F0E0912B04F0E0EE5EFB4F958F809375
:101E00002B04FF91EF919F918F912F910F900FBE17
:101E10000F901F9018958081F4CFCF93DF93CDB7AB
:101E2000DEB7AC970FB6F894DEBF0FBECDBF1092F1
:101E300009041092080488EE93E0A0E0B0E08093DB
:101E40000A0490930B04A0930C04B0930D042EE5A8
:101E500031E0309307042093060410921504109289
:101E600014048093160490931704A0931804B0935D
:101E7000190480E791E0909313048093120485EC99
:101E800090E090931F0480931E0484EC90E0909364
:101E900021048093200480EC90E0909323048093AD
:101EA000220481EC90E0909325048093240482EC3A
:101EB00090E0909327048093260486EC90E0909322
:101EC00029048093280410922B0410922C04109261
:101ED0002D0410922E04109202051092010510920A
:101EE00000051092FD04E4E6F1E081E08C3051F051
:101EF0009491823009F49F5F21E0280F3196992355
:101F000009F4D4C08093FE0481E08093FF0427EDA0
:101F100034E08FE08093DC048BE08093DD04EFE518
:101F2000F1E0E491E093DE04EBE4F1E0E491E0938E
:101F3000DF0440E85EE360E070E04093E404509327
:101F4000E5046093E6047093E7048093EA0480E973
:101F500091E09093EC048093EB043093EF04209392
:101F6000EE048FEF9FEFDC018093F0049093F10477
:101F7000A093F204B093F30442E851E05093F504C7
:101F80004093F4043093F8042093F7048093F90409
:101F90009093FA04A093FB04B093FC0469EA71E007
:101FA000CE0187960E943A0A88E0E9EBF4E0DE0170
:101FB000599601900D928A95E1F788E0E9EBF4E0FB
:101FC000DE01519601900D928A95E1F71AA219A2AD
:101FD0001CA21BA21EA21DA2BE01695D7F4FCE01E5
:101FE00081960E94190A88E0FE017996DE01199611
:101FF00001900D928A95E1F788E0FE017196DE016D
:10200000119601900D928A95E1F769E073E081EDF8
:1020100094E00E943A0ABE016F5D7F4F81ED94E02B
:102020000E94190A88E0FE013996A1ECB4E0019003
:102030000D928A95E1F788E0FE013196A9ECB4E0B3
:1020400001900D928A95E1F7CE0181960E94CE090A
:10205000CE0187960E94CE0966EC71E0CE01819692
:102060000E943A0A69E073E083EB94E00E943A0A26
:10207000BE016F5D7F4F83EB94E00E94190A8FEFE2
:102080009FEF9093B0048093AF049093B204809339
:10209000B104CE0181960E94CE09AC960FB6F89499
:1020A000DEBF0FBECDBFDF91CF910895822F1ECF2F
:1020B000CF93DF93CDB7DEB7CF59D1090FB6F894E0
:1020C000DEBF0FBECDBF789484B5826084BD84B579
:1020D000816084BD85B5826085BD85B5816085BD23
:1020E00080916E00816080936E00109281008091DB
:1020F0008100826080938100809181008160809363
:102100008100809180008160809380008091B10087
:1021100084608093B1008091B00081608093B000B2
:1021200080917A00846080937A0080917A00826046
:1021300080937A0080917A00816080937A00809108
:102140007A00806880937A001092C100E0912204A6
:10215000F091230482E08083E0911E04F0911F043B
:102160001082E0912004F09121048FEC8083109282
:102170002A04E0912604F091270486E08083E09110
:102180002404F0912504808180618083E0912404FF
:10219000F0912504808188608083E0912404F0918F
:1021A0002504808180688083E0912404F0912504D7
:1021B00080818F7D80831092400385E090E0909332
:1021C0003F0380933E038CE990E00E942E0862E07A
:1021D0008091DC040E9442022FB7F8948091900312
:1021E00090919103A0919203B09193032FBF805DD2
:1021F0009740A109B1098093E0049093E104A09372
:10220000E204B093E30487E38093E90461E0809102
:102210003E030E94420260E084E00E94420210926B
:102220009503109294031092E303109205040E9408
:1022300003028FE291E090936A038093690380E345
:1022400091E090936E0380936D0381E08093E203AD
:1022500088E6809304040E94B5028111D6C20E94D0
:10226000670790E0880F892F881F990B892B81F0D1
:1022700082EF91E00E94AE0847E850E060E970E02C
:10228000CE0101960E944B0ACE0101960E9485075D
:1022900042E750E06BE770E0CE0101960E944B0AE6
:1022A000CE0101960E948507AFE4CA2EACEFDA2E6C
:1022B000EE24EA94FE2C8EE00E947E029C01990F8F
:1022C000440B550B2F5F334041095109A4E6B0E0A0
:1022D0000E943816A70196010E94191630934203F6
:1022E0002093410380E10E947E0281E08093E2031B
:1022F00088E6809304041092E3031092050460E0E2
:1023000086E094E00E9488010E94B50267E088E6BA
:102310000E949C03109295038093940386E094E0BE
:102320000E9441018F77282F30E094E03595279562
:102330009A95E1F7922F990F990FB22EB91ABB0C0B
:10234000B80E86E094E00E9441019C0144E035957E
:1023500027954A95E1F72F703327922F990F990F00
:10236000122F191B110F180F86E094E00E944101F3
:102370009C0154E0359527955A95E1F72F70332746
:10238000922F990F990F022F091B000F080F86E05B
:1023900094E00E94410186E094E00E9441019C018A
:1023A00064E0359527956A95E1F72F703327922FD2
:1023B000990F990FA22EA91AAA0CA80E86E094E0F4
:1023C0000E9441019C0174E0359527957A95E1F7CB
:1023D0002F703327922F990F990F922E991A990CDB
:1023E000980E86E094E00E9441019C01E4E035955E
:1023F0002795EA95E1F72F703327922F990F990FC0
:10240000622F691B660F680F6093FD049092FE04B3
:10241000A092FF040093000510930105B0920205FD
:1024200070E06053784F90E080E04AE00E943C0802
:102430008FE20E94A8056091FE0470E090E080E0C9
:102440004AE00E943C088FE20E94A8056091FF04C8
:1024500070E090E080E04AE00E943C0885E192E074
:102460000E94BC088DEF94E00E94CD05FCE0BF2ED9
:102470008B9DC001112480509F4F0E94BC0888E1B1
:1024800092E00E94BC08802F90E00E9480088AE3BE
:102490000E94A805812F90E00E9480088AE30E9494
:1024A000A8056091020570E090E080E04AE00E949B
:1024B0003C088AE991E00E9421088DEF94E00E9497
:1024C000CD058B9DB001112460507F4FCE01865603
:1024D0009F4F0E943A0A8091ED048FA380E991E01A
:1024E0009EA38DA38091EE049091EF0499A788A7F5
:1024F0008091F0049091F104A091F204B091F30462
:102500008AA79BA7ACA7BDA7BE016F5F7F4FCE0177
:1025100085960E945C0B8091F6042C968FAF2C97C9
:1025200082E891E02B969FAF8EAF2B978091F704B6
:102530009091F8042E969FAF8EAF2E978091F9045C
:102540009091FA04A091FB04B091FC0462968CAFC8
:102550009DAFAEAFBFAF6297BE016B5D7F4FCE0147
:10256000875B9F4F0E94D60A8BE192E00E94BC08D5
:102570008090410390904203092C000CAA08BB08EC
:102580004AE0C501B401B7FE0BC08DE20E94A80568
:1025900066277727CB01681979098A099B094AE0E0
:1025A0000E943C088AE991E00E9421088091410341
:1025B00090914203C7970CF02DC161E080913E03DA
:1025C0000E94B70181E0809340038D889E88AF8888
:1025D000B88CA5019401C501B4010E94E4178823B9
:1025E00009F420C189EF90E00E942E0887E392E071
:1025F0000E94AE0869AD7AAD8BAD9CAD9B01AC017C
:102600000E94E417811175C169E073E0CE01875B18
:102610009F4F0E943A0A46E050E06BE372E0CE0121
:10262000875B9F4F0E94DA090E94E400AB962FAFB0
:10263000AB97AC963FAFAC97AD964FAFAD97AE961C
:102640005FAFAE97AF966FAFAF97E0967FAFE09773
:10265000E1968FAFE197E2969FAFE297AE968CAC92
:102660009DACAEACBFACAE970E94E400A3962FAF7A
:10267000A397A4963FAFA497A5964FAFA597A6960C
:102680005FAFA697A7966FAFA797A8967FAFA897BB
:10269000A9968FAFA997AA969FAFAA974D885E88F3
:1026A0006F88788CA3019201C501B4010E94F514D2
:1026B00089AC9AACABACBCAC811115C0A50194013E
:1026C000AA966CAD7DAD8EAD9FADAA970E94F51414
:1026D000882309F44CC0A5019401C501B4010E94EE
:1026E000E417811144C082E492E00E94AE0884E7BE
:1026F00092E00E94BC082F964EAD5FAD2F972B96AF
:102700006EAD7FAD2B9782E194E00E949D048AE933
:1027100091E00E94210886E892E00E94BC0842E015
:10272000C301B2010E94BE088BE992E00E94AE088C
:102730008BEB90E00E948D0542E0C501B4010E9440
:10274000BE0889EB90E00E942E0820E030E040E7D0
:1027500052E4C501B4010E94F51487FFC7C08EE999
:1027600092E00E94BC088AE093E00E94AE08CE018D
:10277000875B9F4F0E94CE090E94E400C657DF4F3F
:102780002883CA58D040C557DF4F3883CB58D04034
:10279000C457DF4F4883CC58D040C357DF4F5883CE
:1027A000CD58D040C257DF4F6883CE58D040C15774
:1027B000DF4F7883CF58D040C057DF4F8883C05950
:1027C000D040CF56DF4F9883C159D04089AC9AACE6
:1027D000ABACBCACA5019401C257DF4F68817981D5
:1027E0008A819B81CE58D0400E94F514882309F439
:1027F00084C0A5019401C501B4010E94E417882397
:1028000009F4B7C086EC90E076C089ED91E00E94B3
:10281000AE08FFCF60E080913E030E94B7011092A6
:102820004003D3CE0E94E400CE57DF4F2883C25826
:10283000D040CD57DF4F3883C358D040CC57DF4FFF
:102840004883C458D040CB57DF4F5883C558D04039
:10285000CA57DF4F6883C658D040C957DF4F7883C7
:10286000C758D040C857DF4F8883C858D040C75793
:10287000DF4F9883C958D040CE57DF4F2881398128
:102880004A815B81C258D040C501B4010E94F51451
:10289000882309F4AFCE88E0E9ECF4E0DE01AE581D
:1028A000BF4F01900D928A95E1F788E0FE01EE5846
:1028B000FF4FDE01A658BF4F01900D928A95E1F7B8
:1028C000EE962CAD3DAD4EAD5FADEE97C501B401BA
:1028D0000E94F514882309F48DCE8092C904909249
:1028E000CA04A092CB04B092CC0484CE8EED92E0C8
:1028F00038CF8EED90E00E942E080E94E400CE5664
:10290000DF4F2883C259D040CD56DF4F3883C3599B
:10291000D040CC56DF4F4883C459D040CB56DF4F10
:102920005883C559D040CA56DF4F6883C659D04036
:10293000C956DF4F7883C759D040C856DF4F8883C8
:10294000C859D040C756DF4F9883C959D040CE01EF
:1029500086569F4F0E94CE0980E090E0892B09F4B3
:10296000AACC0E940A05882309F4A5CC0E94000085
:102970009BCC88E0E9ECF4E0DE01AE5ABF4F019059
:102980000D928A95E1F788E0FE01EE5AFF4FDE01D5
:10299000A65ABF4F01900D928A95E1F7A2962CADF1
:1029A0003DAD4EAD5FADA297C501B4010E94F514D7
:1029B000882309F4A2CF8092CD049092CE04A092F5
:1029C000CF04B092D00499CF83EB94E00E94CE095B
:1029D00081ED94E00C94CE09FB01DC0102C005906E
:1029E0000D9241505040D8F708950E94371508F4D1
:1029F00081E00895E89409C097FB3EF49095809596
:102A0000709561957F4F8F4F9F4F9923A9F0F92FB4
:102A100096E9BB279395F695879577956795B79532
:102A2000F111F8CFFAF4BB0F11F460FF1BC06F5F18
:102A30007F4F8F4F9F4F16C0882311F096E911C02A
:102A4000772321F09EE8872F762F05C0662371F04B
:102A500096E8862F70E060E02AF09A95660F771F5F
:102A6000881FDAF7880F9695879597F90895990F3B
:102A70000008550FAA0BE0E8FEEF16161706E80748
:102A8000F907C0F012161306E407F50798F0621B69
:102A9000730B840B950B39F40A2661F0232B242B3E
:102AA000252B21F408950A2609F4A140A6958FEF5D
:102AB000811D811D08950E946E150C94DF150E94E2
:102AC000D11538F00E94D81520F0952311F00C9400
:102AD000C8150C94CE1511240C9413160E94F015F1
:102AE00070F3959FC1F3950F50E0551F629FF00161
:102AF000729FBB27F00DB11D639FAA27F00DB11D7A
:102B0000AA1F649F6627B00DA11D661F829F222702
:102B1000B00DA11D621F739FB00DA11D621F839F89
:102B2000A00D611D221F749F3327A00D611D231F5F
:102B3000849F600D211D822F762F6A2F11249F57AD
:102B400050409AF0F1F088234AF0EE0FFF1FBB1FB0
:102B5000661F771F881F91505040A9F79E3F51056F
:102B600080F00C94C8150C9413165F3FE4F3983E64
:102B7000D4F3869577956795B795F795E7959F5F19
:102B8000C1F7FE2B880F911D9695879597F90895AB
:102B900097F99F6780E870E060E008959FEF80EC10
:102BA000089500240A9416161706180609060895B3
:102BB00000240A9412161306140605060895092E19
:102BC0000394000C11F4882352F0BB0F40F4BF2B88
:102BD00011F460FF04C06F5F7F4F8F4F9F4F0895C8
:102BE00057FD9058440F551F59F05F3F71F04795BE
:102BF000880F97FB991F61F09F3F79F087950895A3
:102C0000121613061406551FF2CF4695F1DF08C0C1
:102C1000161617061806991FF1CF869571056105DE
:102C200008940895E894BB2766277727CB0197F986
:102C30000895052E97FB1EF400940E94301657FD50
:102C400007D00E947A1607FC03D04EF40C9430167D
:102C500050954095309521953F4F4F4F5F4F0895C8
:102C600090958095709561957F4F8F4F9F4F0895F8
:102C70000E949C16A59F900DB49F900DA49F800D5F
:102C8000911D112408952F923F924F925F926F925F
:102C90007F928F929F92AF92BF92CF92DF92EF92EC
:102CA000FF920F931F93CF93DF93CDB7DEB7CA1B6D
:102CB000DB0B0FB6F894DEBF0FBECDBF09942A8898
:102CC000398848885F846E847D848C849B84AA8440
:102CD000B984C884DF80EE80FD800C811B81AA81CD
:102CE000B981CE0FD11D0FB6F894DEBF0FBECDBF98
:102CF000ED010895A1E21A2EAA1BBB1BFD010DC018
:102D0000AA1FBB1FEE1FFF1FA217B307E407F5079B
:102D100020F0A21BB30BE40BF50B661F771F881F77
:102D2000991F1A9469F760957095809590959B010D
:102D3000AC01BD01CF010895A29FB001B39FC001B6
:102D4000A39F700D811D1124911DB29F700D811DD7
:102D50001124911D0895991B79E004C0991F9617BD
:102D600008F0961B881F7A95C9F780950895AA1BCD
:102D7000BB1B51E107C0AA1FBB1FA617B70710F066
:102D8000A61BB70B881F991F5A95A9F78095909598
:102D9000BC01CD010895EE0FFF1F0590F491E02DC9
:102DA00009945058BB27AA270E94E9160C94DF15F6
:102DB0000E94D11538F00E94D81520F039F49F3FB9
:102DC00019F426F40C94CE150EF4E095E7FB0C9460
:102DD000C815E92F0E94F01558F3BA176207730758
:102DE0008407950720F079F4A6F50C9412160EF4DA
:102DF000E0950B2EBA2FA02D0B01B90190010C010B
:102E0000CA01A0011124FF27591B99F0593F50F422
:102E1000503E68F11A16F040A22F232F342F44277A
:102E2000585FF3CF469537952795A795F040539572
:102E3000C9F77EF41F16BA0B620B730B840BBAF042
:102E40009150A1F0FF0FBB1F661F771F881FC2F7AD
:102E50000EC0BA0F621F731F841F48F487957795C1
:102E60006795B795F7959E3F08F0B0CF9395880F7B
:102E700008F09927EE0F9795879508950E945217AD
:102E80000C94DF150E94D81558F00E94D11540F01F
:102E900029F45F3F29F00C94C81551110C941316B6
:102EA0000C94CE150E94F01568F39923B1F35523C5
:102EB00091F3951B550BBB27AA276217730784074D
:102EC00038F09F5F5F4F220F331F441FAA1FA9F3E3
:102ED00035D00E2E3AF0E0E832D091505040E695D1
:102EE000001CCAF72BD0FE2F29D0660F771F881F32
:102EF000BB1F261737074807AB07B0E809F0BB0B25
:102F0000802DBF01FF2793585F4F3AF09E3F510538
:102F100078F00C94C8150C9413165F3FE4F3983EB8
:102F2000D4F3869577956795B795F7959F5FC9F721
:102F3000880F911D9695879597F90895E1E0660FA2
:102F4000771F881FBB1F621773078407BA0720F01B
:102F5000621B730B840BBA0BEE1F88F7E095089584
:102F60000E94F81588F09F5798F0B92F9927B7510C
:102F7000B0F0E1F0660F771F881F991F1AF0BA951D
:102F8000C9F714C0B13091F00E941216B1E0089553
:102F90000C941216672F782F8827B85F39F0B93F45
:102FA000CCF3869577956795B395D9F73EF49095D0
:102FB0008095709561957F4F8F4F9F4F08950E9428
:102FC000371508F48FEF08950E943715880B990B79
:102FD00008950F931F93CF93DF938230910510F4E0
:102FE00082E090E0E0910505F091060530E020E0F8
:102FF000B0E0A0E0309799F42115310509F44AC0FA
:10300000281B390B24303105D8F58A819B81611545
:10301000710589F1FB0193838283FE0111C0408118
:1030200051810281138148175907E0F04817590769
:1030300099F4109761F012960C93129713961C93C3
:103040003296CF01DF91CF911F910F910895009398
:10305000050510930605F4CF2115310551F04217EF
:10306000530738F0A901DB019A01BD01DF01F80126
:10307000C1CFEF01F9CF9093060580930505CDCF21
:10308000FE01E20FF31F819391932250310939839E
:103090002883D7CF2091030530910405232B41F4D9
:1030A0002091560130915701309304052093030578
:1030B00020915401309155012115310541F42DB76E
:1030C0003EB74091580150915901241B350BE091B6
:1030D0000305F0910405E217F307A0F42E1B3F0B44
:1030E0002817390778F0AC014E5F5F4F241735077A
:1030F00048F04E0F5F1F50930405409303058193E2
:1031000091939FCFF0E0E0E09CCFCF93DF930097C7
:10311000E9F0FC01329713821282A0910505B0916B
:103120000605ED0130E020E01097A1F42081318107
:10313000820F931F2091030530910405281739074A
:1031400009F061C0F0930405E0930305DF91CF918E
:103150000895EA01CE17DF07E8F54A815B819E01F9
:1031600041155105B1F7E901FB83EA834991599172
:10317000C40FD51FEC17FD0761F480819181029681
:10318000840F951FE90199838883828193819B83B2
:103190008A83F0E0E0E012968D919C91139700975E
:1031A000B9F52D913C911197CD010296820F931F95
:1031B00020910305309104052817390739F6309717
:1031C00051F51092060510920505B0930405A093E1
:1031D0000305BCCFD383C28340815181840F951FE7
:1031E000C817D90761F44E5F5F4F88819981480FF6
:1031F000591F518340838A819B8193838283211548
:10320000310509F0B0CFF0930605E09305059ECF98
:10321000FD01DC01C0CF13821282D7CFB0E0A0E065
:10322000E4E1F9E10C9445168C01009751F4CB01CF
:103230000E94E9178C01C801CDB7DEB7E0E10C941C
:103240006116FC01E60FF71F9C0122503109E217BD
:10325000F30708F49DC0D901CD91DC911197C617F1
:10326000D70798F0C530D10530F3CE010497861703
:10327000970708F3C61BD70B2297C193D1936D9381
:103280007C93CF010E948518D6CF5B01AC1ABD0A92
:103290004C018C0E9D1EA0910505B0910605512C88
:1032A000412CF12CE12C109731F580910305909180
:1032B00004058815990509F05CC04616570608F004
:1032C00058C08091540190915501009741F48DB7F9
:1032D0009EB74091580150915901841B950BE817F6
:1032E000F90708F055C0F0930405E0930305F901D0
:1032F00071836083A0CF8D919C91119712966C90F1
:10330000129713967C901397A815B90559F56C017F
:1033100042E0C40ED11CCA14DB0420F1AC014A19EE
:103320005B09DA011296159780F0628273825183ED
:103330004083D9016D937C93E114F10471F0D701BE
:103340001396FC93EE93129776CF22968C0F9D1FC7
:10335000F90191838083F301EFCFF0930605E093A9
:10336000050569CF4816590608F42C017D01D301E3
:103370009ACFCB010E94E9177C01009749F0AE017A
:10338000B8010E94CB19C8010E948518870153CF4C
:1033900010E000E050CFFB01DC0102C001900D9273
:1033A00041505040D8F70895FB01DC0101900D9287
:1033B0000020E1F70895FB01DC014150504048F046
:1033C00001900D920020C9F701C01D92415050405C
:1033D000E0F7089510E0C9EBD0E004C0FE010E94C0
:0E33E000CB162196CA3BD107C9F7F894FFCF50
:1033EE0053756E0000000000000000004D6F6E006F
:1033FE000000000000000000547565000000000091
:10340E00000000005765640000000000000000008E
:10341E00546875000000000000000000467269004C
:10342E000000000000000000536174000000000066
:10343E000000000000000705800000000000880169
:10344E005B01CA0431015401410132010000000048
:10345E0040059D04CD04AD05FE04DC04F00400001F
:10346E0000006507D6096607D60A3F0C000000006B
:10347E006507D80966075C0BBB0C0D0A006E616E02
:10348E0000696E66006F7666004448543131004420
:10349E004854313200444854323100444854323298
:1034AE00004448543F0073756E6C696768745F69B9
:1034BE006E74656E7369747900436F756C646E27F4
:1034CE00742066696E6420525443204D6F64756C8F
:1034DE006500525443206C6F737420706F77657261
:1034EE002C206C6574732073657420746865207469
:1034FE00696D65210020280029200053756E6C69C6
:10350E006768745F696E74656E736974795F696EEE
:10351E00736964653A200068657900496E73696461
:10352E0065003D3D3D3D3D3D3D3D3D3D3D3D3D3DD2
:10353E003D3D3D3D3D3D3D3D3D3D3D3D3D3D3D3DAD
:10354E003D3D3D3D3D3D3D3D3D3D3D3D3D3D3D3D9D
:10355E003D3D3D0044485431312C20504F53495489
:10356E00494F4E3A20000A6576656E742E74656D6D
:10357E0070657261747572653A20002043000A4BC3
:10358E00414D49204D454D42555455484B414E20D5
:10359E004B454C454D424142414E205544415241CE
:1035AE002120534952414D2054414E414D414E2010
:1035BE00494E4920534547455241210A0A000A4BBC
:1035CE00414D4920544944414B204D454D4255549F
:1035DE0055484B414E204B454C454D424142414E84
:1035EE00205544415241210A0A003D3D3D3D3D3D9D
:1035FE003D3D3D3D3D3D3D3D3D3D3D3D3D3D3D3DED
:10360E003D3D3D3D3D3D3D3D3D3D3D3D3D3D3D3DDC
:0E361E003D3D3D3D3D3D3D3D3D3D3D0A0A00EB
:00000001FF
