:100000000C94AC000C94D4000C94D4000C94D40048
:100010000C94D4000C94D4000C94D4000C94D40010
:100020000C94D4000C94D4000C94D4000C94D40000
:100030000C94D4000C94D4000C94D4000C94D400F0
:100040000C94010E0C94D4000C94710E0C944B0E75
:100050000C94D4000C94D4000C94D4000C94D400D0
:100060000C94E20C0C94D400000000002300260045
:10007000290031373A31363A30350041707220313B
:100080003320323032310031373A31363A303500B0
:10009000417072203133203230323100444854787C
:1000A0007820556E69666965642053656E736F725A
:1000B000204578616D706C65004572726F722072B8
:1000C000656164696E672068756D6964697479211A
:1000D00000250048756D69646974793A200045729D
:1000E000726F722072656164696E672074656D70ED
:1000F000657261747572652100000000002400279C
:10010000002A0000000000250028002B000000004D
:1001100008000201000003040700000000000000C6
:1001200000040404040404040402020202020203A0
:1001300003030303030102040810204080010204AA
:100140000810200102040810201F1C1F1E1F1E1F64
:100150001F1E1F1EA30E641311241FBECFEFD8E075
:10016000DEBFCDBF13E0A0E0B1E0E6EEF0E302C0F9
:1001700005900D92A631B107D9F724E0A6E1B3E0CE
:1001800001C01D92A93DB207E1F710E0CBEAD0E033
:1001900004C02197FE010E944715CA3AD107C9F74A
:1001A0000E94FA0F0C9466180C94000020915303DF
:1001B000260F3327331F21323105ECF42091C4037D
:1001C000FC0190E080E0243069F082E00895A09185
:1001D00053032191AC014F5C5C4FA40FB52FB11DAF
:1001E0002C930196861798F380915303680F6093C0
:1001F000530380E0089581E00895089508950895D7
:10020000E0917D0380917C03E81730F4F0E0E25840
:10021000FC4F808190E008958FEF9FEF08959091BB
:100220007D0380917C032FEF3FEF981748F4E92F6F
:10023000F0E0E258FC4F208130E09F5F90937D0317
:10024000C901089580917C0390917D03891B990BCE
:100250000895CF92DF92EF92FF920F931F93CF9367
:10026000DF937C01CB018A012091CA03222389F00C
:10027000EB016B01C40ED51ECC15DD0569F069914B
:10028000D701ED91FC910190F081E02DC701099516
:10029000F3CF642F0E94D600C801DF91CF911F9148
:1002A0000F91FF90EF90DF90CF900895CF93DF9361
:1002B0001F92CDB7DEB769832091CA032223F9F0DC
:1002C0002091ED03203258F021E030E0FC0133832F
:1002D000228390E080E00F90DF91CF91089580918C
:1002E000CB03E82FF0E0E453FC4F998190838F5FBC
:1002F0008093CB038093ED0381E090E0ECCF61E04D
:10030000CE0101960E94D600F7CF90E0FC01E35F9A
:10031000FE4F2491FC01EB5CFE4F3491FC01EF5D3C
:10032000FE4FE491EE23C9F0222339F0233001F18E
:10033000A8F4213019F1223029F1F0E0EE0FFF1F6F
:10034000ED5FFE4FA591B4918FB7F894EC916111D8
:1003500026C030953E233C938FBF08952730A9F0E7
:100360002830C9F0243049F7809180008F7D03C088
:10037000809180008F7780938000DFCF84B58F7766
:1003800084BDDBCF84B58F7DFBCF8091B0008F77AC
:100390008093B000D2CF8091B0008F7DF9CF3E2BFB
:1003A000DACF1092C40381E08093C30310929E03BE
:1003B00061E082E10E94850161E083E10E948501A4
:1003C000E9EBF0E080818E7F808380818D7F808368
:1003D00088E48093B80085E48093BC000895CF93AF
:1003E000DF9391E0909330038823B9F0C091B80077
:1003F000D091BA008091BC008A7B8093BC0060E001
:1004000082E10E94850160E083E10E9485010E94F3
:10041000D101D093BA00C093B800DF91CF91089575
:10042000CF93DF9390E0FC01EB5CFE4F24918F5D56
:100430009E4FFC0184918823C9F090E0880F991F9A
:10044000FC01E750FF4FA591B491FC01ED5FFE4F19
:10045000C591D49161110DC09FB7F8948C912095EE
:1004600082238C938881282328839FBFDF91CF919B
:100470000895623051F49FB7F8943C91822F809593
:1004800083238C93E8812E2BEFCF8FB7F894EC91D8
:100490002E2B2C938FBFEACF8E50806480937C00EC
:1004A00080917A00806480937A0080917A0086FD42
:1004B000FCCF809178009091790008953FB7F8942F
:1004C00080912C0390912D03A0912E03B0912F03C6
:1004D00026B5A89B05C02F3F19F00196A11DB11D9F
:1004E0003FBFBA2FA92F982F8827BC01CD01620FDB
:1004F000711D811D911D42E0660F771F881F991F96
:100500004A95D1F70895CF92DF92EF92FF920F9321
:100510001F93CF93DF93D091ED0381E0D13208F0A8
:100520009CC0C091EC030E945E026B017C01809133
:10053000C40381116CC082E08093C40381E0809386
:10054000C3038FEF8093C2031092C103D093C00303
:10055000ACECB3E0E0EAF3E080E0D8138DC0109299
:100560009F0380919F03CC0FC82BC0939F03809162
:100570009E03813009F084C010929E030E945E02A7
:100580006B017C0180919F038093BB008091C60327
:100590009091C703A091C803B091C903892B8A2BFE
:1005A0008B2BA1F00E945E020091C6031091C7033D
:1005B0002091C8033091C9036C197D098E099F09E8
:1005C000061717072807390708F442C08091BC00B6
:1005D00083FDD8CF85EC8093BC000E945E026B0146
:1005E0007C018091C403823009F44CC08091C20325
:1005F0008F3F09F469C08091C203803209F466C05C
:100600008091C203803309F463C084E026C08091E6
:10061000C6039091C703A091C803B091C903892B69
:100620008A2B8B2B09F483CF0E945E020091C603B4
:100630001091C7032091C8033091C9036C197D093B
:100640008E099F09061717072807390708F06FCF8B
:100650008091C5030E94EF0185E01092CB031092B8
:10066000ED031092CA03DF91CF911F910F91FF907C
:10067000EF90DF90CF9008959D9191938F5F6DCF14
:1006800085EEA9CF8091C6039091C703A091C803BE
:10069000B091C903892B8A2B8B2B09F4A2CF0E941E
:1006A0005E020091C6031091C7032091C8033091E8
:1006B000C9036C197D098E099F09061717072807BA
:1006C000390708F08ECFC4CF80E0C7CF82E0C5CF16
:1006D00083E0C3CFCF92DF92EF92FF920F931F93ED
:1006E000CF93DF93D82FC62F613208F098C00E94B5
:1006F0005E026B017C018091C40381116BC081E0BB
:100700008093C4038093C3039FEF9093C20310921E
:10071000C1039C0F9093C00380939F0380919F031C
:10072000DD0FD82BD0939F0380919E03813009F079
:1007300078C010929E030E945E026B017C01809142
:100740009F038093BB008091C6039091C703A09143
:10075000C803B091C903892B8A2B8B2BA1F00E946F
:100760005E020091C6031091C7032091C803309127
:10077000C9036C197D098E099F09061717072807F9
:10078000390708F448C08091BC0083FDD8CF85ECC0
:100790008093BC000E945E026B017C018091C403C7
:1007A000813009F440C08091C1038C1710F4C091CE
:1007B000C103E0EAF3E0AEE7B3E080E08C1355C09C
:1007C0008C2FDF91CF911F910F91FF90EF90DF90D1
:1007D000CF9008958091C6039091C703A091C8035C
:1007E000B091C903892B8A2B8B2B09F484CF0E94EB
:1007F0005E020091C6031091C7032091C803309197
:10080000C9036C197D098E099F0906171707280768
:10081000390708F070CF8091C5030E94EF01C0E056
:10082000CFCF85EEB5CF8091C6039091C703A0913D
:10083000C803B091C903892B8A2B8B2B09F4AECF47
:100840000E945E020091C6031091C7032091C80365
:100850003091C9036C197D098E099F090617170786
:100860002807390708F09ACFD6CF91919D938F5FD3
:10087000A5CF8F929F92AF92BF92CF92DF92EF92CD
:10088000FF924B015C010E945E026B017C010E94A1
:100890005E026C197D098E099F09683E73408105CF
:1008A0009105A8F321E0821A9108A108B10888EE09
:1008B000C80E83E0D81EE11CF11C81149104A10430
:1008C000B10429F7FF90EF90DF90CF90BF90AF90E9
:1008D0009F908F900895AF92BF92CF92DF92EF9248
:1008E000FF920F931F93CF93DF936C017B018B01DA
:1008F000040F151FEB015E01AE18BF08C017D1072A
:1009000059F06991D601ED91FC910190F081E02DB3
:10091000C6010995892B79F7C501DF91CF911F9108
:100920000F91FF90EF90DF90CF90BF90AF90089520
:1009300090E080E00895FC01538D448D252F30E038
:10094000842F90E0821B930B541710F0CF960895DC
:1009500001970895FC01918D828D981761F0A28D09
:10096000AE0FBF2FB11D5D968C91928D9F5F9F73CF
:10097000928F90E008958FEF9FEF0895FC01918D85
:10098000828D981731F0828DE80FF11D858D90E0F2
:1009900008958FEF9FEF0895FC01918D228D892F8F
:1009A00090E0805C9F4F821B91098F739927089577
:1009B0008AEF93E00E94CC0421E0892B09F420E027
:1009C000822F089580E090E0892B29F00E94D804BE
:1009D00081110C9400000895FC01A48DA80FB92F7B
:1009E000B11DA35ABF4F2C91848D90E001968F7357
:1009F0009927848FA689B7892C93A089B1898C9176
:100A0000837080648C93938D848D981306C00288C4
:100A1000F389E02D80818F7D80830895EF92FF928E
:100A20000F931F93CF93DF93EC0181E0888F9B8D11
:100A30008C8D98131AC0E889F989808185FF15C0CB
:100A40009FB7F894EE89FF896083E889F9898081EE
:100A50008370806480839FBF81E090E0DF91CF91BD
:100A60001F910F91FF90EF900895F62E0B8D10E0DF
:100A70000F5F1F4F0F731127E02E8C8D8E110CC04E
:100A80000FB607FCFACFE889F989808185FFF5CF99
:100A9000CE010E94EC04F1CFEB8DEC0FFD2FF11D88
:100AA000E35AFF4FF0829FB7F8940B8FEA89FB89D6
:100AB00080818062CFCF0F931F93CF93DF938C0100
:100AC000D0E0C0E0F801EC0FFD1F6491662341F017
:100AD0008AEF93E00E940E05892B11F02196F2CF48
:100AE000CE01DF91CF911F910F910895CF93DF93A6
:100AF000EC01888D8823B9F0AA89BB89E889F98936
:100B00008C9185FD03C0808186FD0DC00FB607FC6A
:100B1000F7CF8C9185FFF2CF808185FFEDCFCE019D
:100B20000E94EC04E9CFDF91CF910895FC01908100
:100B300090539A3008F090E0818180532AE0929F90
:100B4000800D11240895DC0150E0E9E4F1E081E03A
:100B5000861730F49491490F511D8F5F3196F8CF6D
:100B6000633038F0CD0183709927892B11F44F5FE2
:100B70005F4F9D012D5F3F4F369527953695279501
:100B80006DE671E0A69FC001A79F900DB69F900DE6
:100B900011240197820F931F840F951F0895CF9200
:100BA000DF92EF92FF92CF93DF93DC011796CC9107
:100BB0001797D0E06111DC2F18962C91189730E030
:100BC000220F331F28593F4F50E040E0F901859133
:100BD0009491FC01F080BA0190E080E0EF2DEC23CD
:100BE000ED1310C04F5F5F4F1D96CD90DD90ED90DF
:100BF000FC9050976C157D058E059F0538F36FEFBF
:100C00007FEFCB01DF91CF91FF90EF90DF90CF90FE
:100C100008958F929F92AF92BF92CF92DF92EF9200
:100C2000FF920F931F93CF93DF93CDB7DEB7C054DE
:100C3000D1400FB6F894DEBF0FBECDBF2FB7F894EA
:100C4000409178035091790360917A0370917B030E
:100C50002FBFFC0101851285238534856A017B0144
:100C6000C01AD10AE20AF30A97018601003D174033
:100C700021053105B0F4FC018189C05CDE4F0FB65F
:100C8000F894DEBF0FBECDBFDF91CF911F910F91C2
:100C9000FF90EF90DF90CF90BF90AF909F908F909C
:100CA00008958C01FC014187528763877487148201
:100CB000138212821182108262E085810E941002EA
:100CC00061E070E080E090E00E94390461E0F801AA
:100CD00085810E94100260E0F80185810E948501F3
:100CE000F80186818551823028F58BE291E10197E8
:100CF000F1F762E0F80185810E941002F801828913
:100D000090E08230910538F0880F991F880F991F65
:100D100005970197F1F7F89460E0C8010E94CF05AC
:100D20006F3F7F4F8F4F9F4F61F4F801118A789486
:100D300080E0A3CF64E170E080E090E00E9439049D
:100D4000D8CF61E0C8010E94CF056F3F7F4F8F4F22
:100D50009F4F59F3CE0101967C015E019FEBA91ACA
:100D60009EEFB90A670160E0C8010E94CF05F60155
:100D7000608371838283938361E0C8010E94CF0501
:100D8000F6016483758386839783F8E0CF0ED11CC8
:100D9000CA14DB0441F7789430E020E0F70180804A
:100DA0009180A280B3804481558166817781FFEF75
:100DB0008F169F06AF06BF0631F04F3F8FEF5807E3
:100DC0006807780719F4F801118AB2CFF90183E0B6
:100DD000F595E7958A95E1F7E00FF11F8081880F7F
:100DE00084169506A606B706F0F080832F5F3F4F66
:100DF000F8E0EF0EF11C2832310581F6F80144814C
:100E000020818181280F3327331F8281280F311DD4
:100E10008381820F932F911D99274817190699F600
:100E200081E0818B2ACF8160E0CFFC0183898B3008
:100E300051F480E492E4AFE0B0E0FB0184A395A319
:100E4000A6A3B7A3089580E894E8AEE1B0E0F5CF9B
:100E50000895089581E08093CA0388E68093EC03A7
:100E60001092CB031092ED036FE08EEE93E00E94A0
:100E700056010E94830261E088E60E946A03109294
:100E80007D0380937C038EEE93E00E940F01089512
:100E90001F93CF93DF93EC0181E08093CA0388E630
:100EA0008093EC031092CB031092ED0360E08EEE82
:100EB00093E00E9456012D811AE0822F612F0E943B
:100EC0002715682F660F680F660F620F8EEE93E08E
:100ED0000E9456012C81822F612F0E942715682FB6
:100EE000660F680F660F620F8EEE93E00E94560148
:100EF0002B81822F612F0E942715682F660F680FA4
:100F0000660F620F8EEE93E00E94560188814A813F
:100F1000698190E00E94A305069667E070E00E9458
:100F20003315682F811101C067E08EEE93E00E94B7
:100F300056012A811AE0822F612F0E942715682FFF
:100F4000660F680F660F620F8EEE93E00E945601E7
:100F50002981822F612F0E942715682F660F680F45
:100F6000660F620F8EEE93E00E9456012881822F59
:100F7000612F0E942715682F660F680F660F620F9A
:100F80008EEE93E00E9456010E9483020E942A077F
:100F9000C82F81E08093CA0388E68093EC03109207
:100FA000CB031092ED036FE08EEE93E00E945601AA
:100FB0006C2F6F778EEE93E00E945601DF91CF91F8
:100FC0001F910C948302FC0101900020E9F73197F6
:100FD000AF01481B590BBC018AEF93E00C946B04E2
:100FE0008F929F92AF92BF920F931F93CF93DF93F5
:100FF000CDB7DEB7A1970FB6F894DEBF0FBECDBF59
:1010000019A2423008F44AE08E010F5D1F4F842E72
:10101000912CB12CA12CA50194010E94F614E62F6D
:10102000B901CA01EA30F4F4E05DD801EE938D0114
:10103000232B242B252B79F790E080E0109719F0D3
:10104000CD010E94E307A1960FB6F894DEBF0FBE54
:10105000CDBFDF91CF911F910F91BF90AF909F9027
:101060008F900895E95CE1CFCF92DF92EF92FF92EB
:10107000CF93DF936C01990FEE08FF08F7FE1FC0B6
:101080006DE28AEF93E00E940E05EC016627772758
:10109000CB016C197D098E099F094AE00E94F00777
:1010A000C80FD91F8AE991E00E94E3078C0F9D1FAA
:1010B000DF91CF91FF90EF90DF90CF9008954AE0BD
:1010C000C701B6010E94F007EC01ECCFCF93DF938C
:1010D0000E94E307EC018AE991E00E94E3078C0F8C
:1010E0009D1FDF91CF910895CF93DF930E945B0501
:1010F000EC018AE991E00E94E3078C0F9D1FDF91CC
:10110000CF9108954F925F926F927F928F929F92AC
:10111000AF92BF92CF92DF92EF92FF920F931F9305
:10112000CF936B017C01742EAC019B010E94601671
:10113000882399F08DE991E0CF911F910F91FF9055
:10114000EF90DF90CF90BF90AF909F908F907F9067
:101150006F905F904F900C94E30746015701E8941D
:10116000B7F82FEF3FEF4FE75FE7C501B4010E94EB
:10117000601681110DC02FEF3FEF4FE75FE7C5010C
:10118000B4010E94711318161CF481EA91E0D4CFC7
:101190002FEF3FEF4FE75FE4C701B6010E945B16F8
:1011A00018161CF485EA91E0C7CF2FEF3FEF4FE709
:1011B0005FECC701B6010E94711387FDF3CF20E0F9
:1011C00030E0A901C701B6010E94711310E000E0F0
:1011D00087FF0AC06DE28AEF93E00E940E058C0142
:1011E000F7FAF094F7F8F094C0E060E070E080E087
:1011F0009FE37C1641F020E030E040E251E40E94A1
:10120000BA15CF5FF6CFA70196010E944E152B01AC
:101210003C010E942C164B015C014AE00E94F00741
:101220007C01E00EF11ECC23C1F1C501B4010E9486
:1012300076139B01AC01C301B2010E944D154B0115
:101240005C016EE28AEF93E00E940E05E80EF91E43
:10125000C15018F120E030E040E251E4C501B40192
:101260000E94D7132B013C010E942C164B01B12C7C
:10127000A12C4AE0C501B4010E94F007E80EF91E56
:10128000C501B4010E9476139B01AC01C301B201F8
:101290000E944D154B015C01DBCFC701CF911F911F
:1012A0000F91FF90EF90DF90CF90BF90AF909F9005
:1012B0008F907F906F905F904F900895FC01808198
:1012C0009181009711F00C94011708950C94011767
:1012D0000C94011785ED8093BC008091C60390911A
:1012E000C703A091C803B091C9030796A11DB11D02
:1012F00023E0B695A795979587952A95D1F72091E4
:10130000BC0024FD03C01092C40308954091C6039D
:101310005091C7036091C8037091C903452B462BB8
:10132000472B69F30097A105B10541F025E32A9504
:10133000F1F700000197A109B109E1CF8091C50340
:101340000C94EF01EF92FF920F931F93CF93DF93D3
:10135000EC017B018A0188819981009729F02A811B
:101360003B812417350788F4B8016F5F7F4F0E94D7
:101370008A17009791F0998388831B830A832C81B5
:101380003D81232B11F4FC0110821D830C83B701D6
:10139000888199810E9450180CC08881998100979A
:1013A00011F00E940117198218821D821C821B8273
:1013B0001A82CE01DF91CF911F910F91FF90EF9094
:1013C0000895EF92FF920F931F93CF93DF93CDB7C2
:1013D000DEB72B970FB6F894DEBF0FBECDBF8C01E2
:1013E0007A014BE050E0CE0101960E946813CE01D5
:1013F0000A960E949605F8018083E981E154E33161
:1014000018F50E2E000CFF0BE85FF54F0C944715F6
:10141000560A240A240A6A0A240A540A240A240AB4
:10142000240A1B0A240A240A5D0A680A660A240A96
:10143000240A240A640A8A81813691F18B818E36CE
:1014400089F187E0F8018183CE0105960E94960517
:10145000F801828348E050E0B701CE0101960E9476
:101460006813CE0101960E949605F8018383CE0190
:1014700004960E949605F8018483CE0107960E9487
:101480009605F80185832B960FB6F894DEBF0FBE44
:10149000CDBFDF91CF911F910F91FF90EF900895F5
:1014A00081E0D0CF86E0CECF82E0CCCF8B81823777
:1014B00011F088E0C7CF84E0C5CF8B81823711F06F
:1014C00085E0C0CF83E0BECF89E0BCCF8AE0BACF51
:1014D0008BE0B8CF8CE0B6CFCF92DF92EF92FF9245
:1014E0000F931F93CF93DF93EB01FB01349620E220
:1014F000DF011D922A95E9F744E250E060E070E0D8
:10150000488359836A837B83FC01458156816781C7
:1015100070854C835D836E837F834CE050E060E098
:1015200070E0488759876A877B872FB7F894409186
:1015300078035091790360917A0370917B032FBFF8
:10154000488B598B6A8B7B8B03811481C8010E9465
:101550000906882349F0F80186818B3028F08D3008
:1015600040F08551823070F160E070E080EC9FE7E0
:101570001BC0618170E090E080E00E9478132DEC48
:101580003CEC4CEC5DE30E94D7136B017C01F8014D
:10159000608170E090E080E00E9478139B01AC01D4
:1015A000C701B6010E944E156C8B7D8B8E8B9F8B75
:1015B00081E0DF91CF911F910F91FF90EF90DF902D
:1015C000CF9008956081718176276727762790E014
:1015D00080E00E9476132DEC3CEC4CEC5DE30E9425
:1015E000D713E2CF8F929F92AF92BF92EF92FF926A
:1015F0001F93CF93DF93EB01FB01349620E2DF01D1
:101600001D922A95E9F744E250E060E070E04883DB
:1016100059836A837B83FC0145815681678170858C
:101620004C835D836E837F834DE050E060E070E02B
:10163000488759876A877B872FB7F894409178034A
:101640005091790360917A0370917B032FBF488B8F
:10165000598B6A8B7B8BE380F480C7010E9409065B
:10166000882341F0F70186818C3009F455C038F4A5
:101670008B30E1F060E070E080EC9FE73EC0855188
:101680008230C0F71281612F70E0762F66276627BF
:101690007F778381682B90E080E00E9476132DECA9
:1016A0003CEC4CEC5DE30E94D71351C0628170E0CA
:1016B00090E080E00E9476134B015C01F7011381FA
:1016C00017FF0AC0AC019B0160E070E080E89FEB6F
:1016D0000E944D154B015C011F70612F70E090E07E
:1016E00080E00E9478132DEC3CEC4CEC5DE30E9412
:1016F000D713A50194010E944E156C8B7D8B8E8BA8
:101700009F8B81E0DF91CF911F91FF90EF90BF9071
:10171000AF909F908F9008951281612F70E090E0BC
:1017200080E00E9476134B015C01F70163816F70CA
:1017300070E090E080E00E9478132DEC3CEC4CECE3
:101740005DE30E94D713A50194010E944E1517FF77
:10175000D4CF9058D2CFCF93DF93EB01FC01838994
:101760004BE050E06FEA71E08C30C1F058F44BE090
:1017700050E069EA71E08B3089F04BE050E061ECB9
:1017800071E00CC04BE050E065EB71E0853131F069
:101790004BE050E06BEB71E0863179F7CE010E94AF
:1017A00057181B86DF91CF9108950F931F93CF9306
:1017B000DF938C01EB0188E2DB011D928A95E9F74A
:1017C000F801838194810E94AB0B81E090E0A0E05E
:1017D000B0E08C879D87AE87BF87F80185819681B1
:1017E000A781B085888B998BAA8BBB8B8CE090E00E
:1017F000A0E0B0E08C8B9D8BAE8BBF8BBE01838154
:1018000094810E941507D8011396ED91FC9183896C
:101810008C3009F441C078F48B3009F1188E198EA0
:101820001A8E1B8E1C8E1D8E1E8E1F8E18A219A244
:101830001AA21BA22CC08551823080F780E090E074
:10184000A8ECB2E4888F998FAA8FBB8F1C8E1D8E57
:101850001E8E1F8E8DEC9CECACECBDE314C080E0C2
:1018600090E0A0EAB2E4888F998FAA8FBB8F80E0C6
:1018700090E0A0EAB1E48C8F9D8FAE8FBF8F80E0A7
:1018800090E0A0EAB0E488A399A3AAA3BBA3DF9148
:10189000CF911F910F91089580E090E0AEEBB2E4FC
:1018A000E2CF0F931F93CF93DF938C01EB0188E27C
:1018B000DB011D928A95E9F7F801838194810E94EA
:1018C000AB0B81E090E0A0E0B0E08C879D87AE8715
:1018D000BF87F80185819681A781B085888B998B18
:1018E000AA8BBB8B8DE090E0A0E0B0E08C8B9D8B51
:1018F000AE8BBF8BBE01838194810E941507D801F6
:101900001396ED91FC9183898C3091F178F48B30B2
:10191000B1F0188E198E1A8E1B8E1C8E1D8E1E8E87
:101920001F8E18A219A21AA21BA21DC08531A9F1EF
:10193000863179F780E090E0AAEFB2E432C080E02F
:1019400090E0A8E4B2E4888F998FAA8FBB8F1C8E99
:101950001D8E1E8E1F8E80E090E0A0E0B0E488A374
:1019600099A3AAA3BBA3DF91CF911F910F910895D3
:1019700080E090E0A0E7B2E4888F998FAA8FBB8FB8
:1019800080E090E0A0EAB1EC8C8F9D8FAE8FBF8F8E
:1019900080E090E0A0E0BFE3E2CF80E090E0A0EA4A
:1019A000B2E4888F998FAA8FBB8F80E090E0A0E28D
:1019B000B2EC8C8F9D8FAE8FBF8F8DEC9CECACEC1E
:1019C000BDE3CDCF1F920F920FB60F9211242F932C
:1019D0003F934F935F936F937F938F939F93AF93B7
:1019E000BF93EF93FF938091B900887F803609F40D
:1019F0004AC0F0F5883209F4A7C018F5803109F41F
:101A00009BC0B8F4882309F4F9C0883009F494C065
:101A1000FF91EF91BF91AF919F918F917F916F91C6
:101A20005F914F913F912F910F900FBE0F901F909C
:101A30001895883109F488C0803251F78093C20329
:101A400014C0803409F49DC040F48033B9F3883366
:101A5000F9F68093C20385ECB0C0803509F485C0E7
:101A6000883509F496C0883499F60E946A09D0CF67
:101A7000883909F48CC038F5883729F050F4883655
:101A800011F0803729F683E08093C4031092770326
:101A900057C0883809F47BC0803919F0803809F0C4
:101AA000B7CF80917703803208F071C0E09177035F
:101AB00081E08E0F809377038091BB00F0E0E95ABC
:101AC000FC4F80833DC0803B39F0E0F4803A09F45C
:101AD00079C0883A09F09CCF84E08093C4031092C7
:101AE000540310925303E0915103F091520309956E
:101AF0008091530381110FC081E0809353031092B2
:101B0000310309C0803C09F4A6CF883C09F4A3CF77
:101B1000883B09F07DCFE091540381E08E0F8093E4
:101B20005403F0E0EF5CFC4F80818093BB00909108
:101B300054038091530329C080919F038093BB007D
:101B400085EC8093BC0064CF9091C1038091C00369
:101B5000981758F5E091C10381E08E0F8093C1037F
:101B6000F0E0E056FC4F8081E9CFE091C10381E0D5
:101B70008E0F8093C1038091BB00F0E0E056FC4FD4
:101B800080839091C1038091C0039817C8F285E8C3
:101B9000D8CFE091C10381E08E0F8093C103809183
:101BA000BB00F0E0E056FC4F80838091C3038111BD
:101BB0005CCF81E080939E0384EA8093BC00109206
:101BC000C40326CF85EC8093BC001092C40380919F
:101BD0007703803230F4E0917703F0E0E95AFC4F6C
:101BE00010826091770370E0E0915503F091560305
:101BF00087E593E00995109277030ACF1092C2030C
:101C000034CF1F920F920FB60F9211242F933F9350
:101C10008F939F93AF93BF938091780390917903B3
:101C2000A0917A03B0917B0330912B0323E0230F23
:101C30002D3758F50196A11DB11D20932B038093DC
:101C4000780390937903A0937A03B0937B038091F8
:101C50002C0390912D03A0912E03B0912F03019698
:101C6000A11DB11D80932C0390932D03A0932E03EF
:101C7000B0932F03BF91AF919F918F913F912F917F
:101C80000F900FBE0F901F90189526E8230F029615
:101C9000A11DB11DD2CF1F920F920FB60F9211242A
:101CA0002F933F934F935F936F937F938F939F9364
:101CB000AF93BF93EF93FF938AEF93E00E94EC04FE
:101CC000FF91EF91BF91AF919F918F917F916F9114
:101CD0005F914F913F912F910F900FBE0F901F90EA
:101CE00018951F920F920FB60F9211242F938F9376
:101CF0009F93EF93FF93E0910A04F0910B0480818E
:101D0000E0911004F091110482FD1BC0908180913C
:101D100013048F5F8F7320911404821741F0E091B8
:101D20001304F0E0E650FC4F958F80931304FF916D
:101D3000EF919F918F912F910F900FBE0F901F9059
:101D400018958081F4CF8F929F92AF92BF92CF92DD
:101D5000DF92EF92FF92CF93DF93CDB7DEB72C9750
:101D60000FB6F894DEBF0FBECDBF1092F1031092F4
:101D7000F00388EE93E0A0E0B0E08093F20390934C
:101D8000F303A093F403B093F5032EE531E0309311
:101D9000EF032093EE031092FD031092FC03809357
:101DA000FE039093FF03A0930004B093010480E727
:101DB00091E09093FB038093FA0385EC90E090937D
:101DC00007048093060484EC90E0909309048093C8
:101DD000080480EC90E090930B0480930A0481EC5B
:101DE00090E090930D0480930C0482EC90E090932B
:101DF0000F0480930E0486EC90E09093110480937E
:101E000010041092130410921404109215041092EE
:101E100016041092D4041092D3041092D20410929B
:101E2000CF04E9E4F1E081E08C3051F0949182300C
:101E300009F49F5F21E0280F3196992309F4C3C06C
:101E40008093D00481E08093D10429EA34E08FE0CC
:101E50008093AE048BE08093AF04E4E4F1E0E4917E
:101E6000E093B004E0E3F1E0E491E093B10440E8F2
:101E70005EE360E070E04093B6045093B704609373
:101E8000B8047093B9048093BC0480E991E0909306
:101E9000BE048093BD043093C1042093C0048FEF2F
:101EA0009FEFDC018093C2049093C304A093C40409
:101EB000B093C50442E851E05093C7044093C60470
:101EC0003093CA042093C9048093CB049093CC042C
:101ED000A093CD04B093CE0418861F821A8619866B
:101EE0001C861B8645E050E069EA71E0CE0107964A
:101EF0000E94A2098090970490909804A090990461
:101F0000B0909A04C0909704D0909804E0909904FF
:101F1000F0909A041A8219821C821B821E821D82F2
:101F20006F8178856115710531F04B855C85CE0137
:101F300001960E94A2091092A4041092A304109288
:101F4000A6041092A5041092A8041092A70450E0D1
:101F500040E061EE72E083EA94E00E94A2096981A8
:101F60007A816115710589F14D815E8183EA94E082
:101F70000E94A20980929B0490929C04A0929D04CE
:101F8000B0929E04C0929F04D092A004E092A1045B
:101F9000F092A204CE0101960E945E09CE0107963E
:101FA0000E945E092C960FB6F894DEBF0FBECDBF1F
:101FB000DF91CF91FF90EF90DF90CF90BF90AF90E7
:101FC0009F908F900895822F2FCF8091A30490919E
:101FD000A404009711F00E9401171092A40410921B
:101FE000A3041092A8041092A7041092A6041092C1
:101FF000A504C0CFCF93DF93CDB7DEB7C755D109C6
:102000000FB6F894DEBF0FBECDBF789484B5826062
:1020100084BD84B5816084BD85B5826085BD85B58C
:10202000816085BD80916E00816080936E0010920A
:102030008100809181008260809381008091810085
:102040008160809381008091800081608093800016
:102050008091B10084608093B1008091B000816074
:102060008093B00080917A00846080937A008091A0
:102070007A00826080937A0080917A0081608093F8
:102080007A0080917A00806880937A001092C10073
:102090008FEF9FEF909326038093250310922403E4
:1020A00085E090E090932303809322038CE990E0F5
:1020B0000E947408E0910A04F0910B0482E080838E
:1020C000E0910604F09107041082E0910804F09179
:1020D00009048FEC808310921204E0910E04F091B9
:1020E0000F0486E08083E0910C04F0910D04808160
:1020F00080618083E0910C04F0910D048081886000
:102100008083E0910C04F0910D04808180688083CD
:10211000E0910C04F0910D0480818F7D808362E05A
:102120008091AE040E9410022FB7F894809178033A
:1021300090917903A0917A03B0917B032FBF805DCA
:102140009740A109B1098093B2049093B304A0937E
:10215000B404B093B50487E38093BB0461E080913D
:1021600022030E94100260E084E00E94100210929C
:102170007D0310927C031092CB031092ED030E941A
:10218000D1018DEF90E090935203809351038EEF35
:1021900090E0909356038093550381E08093CA03A7
:1021A00088E68093EC030E9483028111F5C10E94AE
:1021B0002A0790E0880F892F881F990B892B81F0BF
:1021C0008FED91E00E94660847E850E060E970E01A
:1021D000CE0101960E94E109CE0101960E944807B6
:1021E00042E750E06BE770E0CE0101960E94E10902
:1021F000CE0101960E94480711E0F7E02F2E312C06
:102200000CE01093CA0388E68093EC031092CB0392
:102210001092ED0360E08EEE93E00E9456010E9462
:10222000830267E088E60E946A0310927D03809330
:102230007C038EEE93E00E940F018F77282F30E011
:1022400094E0359527959A95E1F7922F990F990F7C
:10225000D22ED91ADD0CD80E8EEE93E00E940F011B
:102260009C0144E0359527954A95E1F72F70332777
:10227000922F990F990FC22EC91ACC0CC80E8EEE50
:1022800093E00E940F019C0154E0359527955A95E3
:10229000E1F72F703327922F990F990FB22EB91AA9
:1022A000BB0CB80E8EEE93E00E940F018EEE93E011
:1022B0000E940F019C0164E0359527956A95E1F72E
:1022C0002F703327922F990F990FE22EE91AEE0CF7
:1022D000E80E8EEE93E00E940F019C0174E03595AC
:1022E00027957A95E1F72F703327922F990F990F41
:1022F000F22EF91AFF0CF80E8EEE93E00E940F01F9
:102300009C01E4E035952795EA95E1F72F70332796
:10231000922F990F990F291B220F820F8093CF04C0
:10232000F092D004E092D104B092D204C092D304CF
:10233000D092D4044E2D6F2D90E00E94A3050696F6
:10234000B1010E943315089FB001099F700D11243F
:1023500060507F4F64961FAE1EAE649766961FAEA8
:102360001EAE669768961FAE1EAE6897FB01019081
:102370000020E9F73197AF01461B570BCE018E5A6B
:102380009F4F0E94A20982E092E00E94E3074091E1
:10239000A7045091A8046091A3047091A4048AEF4B
:1023A00093E00E946B048AE991E00E94E307809128
:1023B000BF048FA380E991E09EA38DA38091C00408
:1023C0009091C10499A788A78091C2049091C304F9
:1023D000A091C404B091C5048AA79BA7ACA7BDA7D0
:1023E000BE016F5F7F4FCE0185960E94F20A8091F9
:1023F000C8042C968FAF2C9782E891E02B969FAF64
:102400008EAF2B978091C9049091CA042E969FAFEE
:102410008EAF2E978091CB049091CC04A091CD04E7
:10242000B091CE0462968CAF9DAFAEAFBFAF629756
:10243000BE016B5D7F4FCE01875B9F4F0E946C0A90
:102440008EE00E944C029C01990F440B550B2F5FAC
:10245000334041095109A4E6B0E00E94B4142FE4CE
:102460003CEF4FEF5FEF0E949514690130932A0310
:102470002093290380E10E944C029C01990F440B98
:10248000550B2F5F334041095109A4E6B0E00E948B
:10249000B41429EC3CEF4FEF5FEF0E949514290133
:1024A00059018091250390912603C816D906E1F0C1
:1024B000D0922603C092250388E092E00E94E307B1
:1024C0008091290390912A030E943408809125036A
:1024D000909126034F970CF064C061E08091220335
:1024E0000E9485011093240380911E0390911F0385
:1024F000A816B90671F050921F0340921E038DE199
:1025000092E00E94E30780911E0390911F030E94B6
:102510003408CD88DE88EF88F88CA7019601C701C2
:10252000B6010E946016882309F443C08EED90E046
:102530000E947408C9ACDAACEBACFCACA701960104
:10254000C701B6010E9460168111B0C02091160328
:10255000309117034091180350911903C701B60138
:102560000E9471138111A7C068EE73E080E090E0D3
:102570000E943904CE018E5A9F4F0E945E0980E06E
:1025800090E0892B09F43DCE0E94D804882309F4F9
:1025900038CE0E94000035CE86EC91E00E9466089D
:1025A000FFCF60E0809122030E94850110922403F6
:1025B0009BCF20911A0330911B0340911C03509133
:1025C0001D03C701B6010E94711381111AC0C9AC65
:1025D000DAACEBACFCACA7019601609116037091EC
:1025E000170380911803909119030E947113882397
:1025F000F1F1A7019601C701B6010E946016811191
:1026000036C08DE292E00E9466088FE592E00E945B
:10261000E3076D897E898F89988D42E00E94820848
:1026200083E792E00E94660883ED90E00E945B05DC
:1026300069AD7AAD8BAD9CAD42E00E94820881ED20
:1026400090E00E94740820E030E040E752E469AD79
:102650007AAD8BAD9CAD0E94711387FF24C086E7D5
:1026600092E00E94E30782EE92E00E946608CD8825
:10267000DE88EF88F88CA701960160911A037091AB
:102680001B0380911C0390911D030E9471138823EA
:1026900009F450CFC0921A03D0921B03E0921C039E
:1026A000F0921D0347CF86EB92E0DBCF89EB90E001
:1026B0000E94740859CFC0921603D0921703E0927B
:1026C0001803F092190350CF83EA94E00C945E094A
:1026D000FB01DC0102C005900D9241505040D8F73B
:1026E00008950E94B31308F481E00895E89409C0A6
:1026F00097FB3EF490958095709561957F4F8F4F35
:102700009F4F9923A9F0F92F96E9BB279395F6954A
:10271000879577956795B795F111F8CFFAF4BB0FC8
:1027200011F460FF1BC06F5F7F4F8F4F9F4F16C02C
:10273000882311F096E911C0772321F09EE8872FB6
:10274000762F05C0662371F096E8862F70E060E072
:102750002AF09A95660F771F881FDAF7880F9695EB
:10276000879597F90895990F0008550FAA0BE0E88F
:10277000FEEF16161706E807F907C0F01216130643
:10278000E407F50798F0621B730B840B950B39F483
:102790000A2661F0232B242B252B21F408950A26E9
:1027A00009F4A140A6958FEF811D811D08950E9417
:1027B000EA130C945B140E944D1438F00E945414D8
:1027C00020F0952311F00C9444140C944A14112415
:1027D0000C948F140E946C1470F3959FC1F3950FA5
:1027E00050E0551F629FF001729FBB27F00DB11D95
:1027F000639FAA27F00DB11DAA1F649F6627B00D25
:10280000A11D661F829F2227B00DA11D621F739F0D
:10281000B00DA11D621F839FA00D611D221F749F1B
:102820003327A00D611D231F849F600D211D822F62
:10283000762F6A2F11249F5750409AF0F1F0882389
:102840004AF0EE0FFF1FBB1F661F771F881F9150B6
:102850005040A9F79E3F510580F00C9444140C940D
:102860008F145F3FE4F3983ED4F386957795679590
:10287000B795F795E7959F5FC1F7FE2B880F911DE0
:102880009695879597F9089597F99F6780E870E086
:1028900060E008959FEF80EC089500240A941616D6
:1028A000170618060906089500240A94121613063E
:1028B000140605060895092E0394000C11F48823CC
:1028C00052F0BB0F40F4BF2B11F460FF04C06F5FE8
:1028D0007F4F8F4F9F4F089557FD9058440F551FBE
:1028E00059F05F3F71F04795880F97FB991F61F092
:1028F0009F3F79F087950895121613061406551F09
:10290000F2CF4695F1DF08C0161617061806991F74
:10291000F1CF86957105610508940895E894BB2769
:1029200066277727CB0197F90895052E97FB1EF4AC
:1029300000940E94AC1457FD07D00E94F61407FCC7
:1029400003D04EF40C94AC145095409530952195DD
:102950003F4F4F4F5F4F08959095809570956195CB
:102960007F4F8F4F9F4F08950E941815A59F900D80
:10297000B49F900DA49F800D911D112408952F9256
:102980003F924F925F926F927F928F929F92AF92FF
:10299000BF92CF92DF92EF92FF920F931F93CF934C
:1029A000DF93CDB7DEB7CA1BDB0B0FB6F894DEBFE3
:1029B0000FBECDBF09942A88398848885F846E8409
:1029C0007D848C849B84AA84B984C884DF80EE8053
:1029D000FD800C811B81AA81B981CE0FD11D0FB65C
:1029E000F894DEBF0FBECDBFED010895A1E21A2E0F
:1029F000AA1BBB1BFD010DC0AA1FBB1FEE1FFF1FA3
:102A0000A217B307E407F50720F0A21BB30BE40BF2
:102A1000F50B661F771F881F991F1A9469F7609539
:102A20007095809590959B01AC01BD01CF010895F3
:102A3000A29FB001B39FC001A39F700D811D1124FF
:102A4000911DB29F700D811D1124911D0895991B38
:102A500079E004C0991F961708F0961B881F7A9595
:102A6000C9F780950895AA1BBB1B51E107C0AA1F97
:102A7000BB1FA617B70710F0A61BB70B881F991F1F
:102A80005A95A9F780959095BC01CD010895EE0F58
:102A9000FF1F0590F491E02D09945058BB27AA27F9
:102AA0000E9465150C945B140E944D1438F00E942E
:102AB000541420F039F49F3F19F426F40C944A146E
:102AC0000EF4E095E7FB0C944414E92F0E946C147B
:102AD00058F3BA17620773078407950720F079F453
:102AE000A6F50C948E140EF4E0950B2EBA2FA02DA3
:102AF0000B01B90190010C01CA01A0011124FF27AB
:102B0000591B99F0593F50F4503E68F11A16F040A5
:102B1000A22F232F342F4427585FF3CF46953795A4
:102B20002795A795F0405395C9F77EF41F16BA0B69
:102B3000620B730B840BBAF09150A1F0FF0FBB1F17
:102B4000661F771F881FC2F70EC0BA0F621F731F60
:102B5000841F48F4879577956795B795F7959E3FBD
:102B600008F0B0CF9395880F08F09927EE0F97954E
:102B7000879508950E94CE150C945B140E945414FE
:102B800058F00E944D1440F029F45F3F29F00C9456
:102B9000441451110C948F140C944A140E946C1418
:102BA00068F39923B1F3552391F3951B550BBB277C
:102BB000AA2762177307840738F09F5F5F4F220FC1
:102BC000331F441FAA1FA9F335D00E2E3AF0E0E8B8
:102BD00032D091505040E695001CCAF72BD0FE2F02
:102BE00029D0660F771F881FBB1F26173707480796
:102BF000AB07B0E809F0BB0B802DBF01FF2793584E
:102C00005F4F3AF09E3F510578F00C9444140C94B9
:102C10008F145F3FE4F3983ED4F3869577956795DC
:102C2000B795F7959F5FC9F7880F911D9695879582
:102C300097F90895E1E0660F771F881FBB1F6217A1
:102C400073078407BA0720F0621B730B840BBA0B5F
:102C5000EE1F88F7E09508950E94741488F09F573E
:102C600098F0B92F9927B751B0F0E1F0660F771FB0
:102C7000881F991F1AF0BA95C9F714C0B13091F0A6
:102C80000E948E14B1E008950C948E14672F782F53
:102C90008827B85F39F0B93FCCF38695779567956B
:102CA000B395D9F73EF490958095709561957F4FD7
:102CB0008F4F9F4F08950E94B31308F48FEF08952C
:102CC0000E94B313880B990B08950F931F93CF9312
:102CD000DF938230910510F482E090E0E091D70418
:102CE000F091D80430E020E0B0E0A0E0309799F413
:102CF0002115310509F44AC0281B390B2430310550
:102D0000D8F58A819B816115710589F1FB01938357
:102D10008283FE0111C040815181028113814817D5
:102D20005907E0F04817590799F4109761F0129687
:102D30000C93129713961C933296CF01DF91CF918B
:102D40001F910F9108950093D7041093D804F4CFE6
:102D50002115310551F04217530738F0A901DB0165
:102D60009A01BD01DF01F801C1CFEF01F9CF9093C6
:102D7000D8048093D704CDCFFE01E20FF31F8193D7
:102D800091932250310939832883D7CF2091D504DC
:102D90003091D604232B41F42091560130915701F4
:102DA0003093D6042093D5042091540130915501DD
:102DB0002115310541F42DB73EB74091580150918E
:102DC0005901241B350BE091D504F091D604E2178C
:102DD000F307A0F42E1B3F0B2817390778F0AC013E
:102DE0004E5F5F4F2417350748F04E0F5F1F50931B
:102DF000D6044093D504819391939FCFF0E0E0E017
:102E00009CCFCF93DF930097E9F0FC0132971382B8
:102E10001282A091D704B091D804ED0130E020E0F7
:102E20001097A1F420813181820F931F2091D50446
:102E30003091D6042817390709F061C0F093D60401
:102E4000E093D504DF91CF910895EA01CE17DF0713
:102E5000E8F54A815B819E0141155105B1F7E90111
:102E6000FB83EA8349915991C40FD51FEC17FD07E5
:102E700061F4808191810296840F951FE901998305
:102E80008883828193819B838A83F0E0E0E01296BD
:102E90008D919C9113970097B9F52D913C911197C5
:102EA000CD010296820F931F2091D5043091D60454
:102EB0002817390739F6309751F51092D804109237
:102EC000D704B093D604A093D504BCCFD383C283D8
:102ED00040815181840F951FC817D90761F44E5F57
:102EE0005F4F88819981480F591F518340838A81A0
:102EF0009B81938382832115310509F0B0CFF09334
:102F0000D804E093D7049ECFFD01DC01C0CF13822B
:102F10001282D7CFB0E0A0E0E0E9F7E10C94C11451
:102F20008C01009751F4CB010E9465168C01C801F9
:102F3000CDB7DEB7E0E10C94DD14FC01E60FF71F1E
:102F40009C0122503109E217F30708F49DC0D90112
:102F5000CD91DC911197C617D70798F0C530D105F0
:102F600030F3CE0104978617970708F3C61BD70BDB
:102F70002297C193D1936D937C93CF010E94011747
:102F8000D6CF5B01AC1ABD0A4C018C0E9D1EA091E0
:102F9000D704B091D804512C412CF12CE12C10977E
:102FA00031F58091D5049091D6048815990509F0E2
:102FB0005CC04616570608F058C0809154019091A5
:102FC0005501009741F48DB79EB74091580150913B
:102FD0005901841B950BE817F90708F055C0F093C9
:102FE000D604E093D504F90171836083A0CF8D915D
:102FF0009C91119712966C90129713967C90139750
:10300000A815B90559F56C0142E0C40ED11CCA14CB
:10301000DB0420F1AC014A195B09DA01129615971D
:1030200080F06282738251834083D9016D937C93D7
:10303000E114F10471F0D7011396FC93EE9312970B
:1030400076CF22968C0F9D1FF90191838083F30127
:10305000EFCFF093D804E093D70469CF4816590610
:1030600008F42C017D01D3019ACFCB010E94651693
:103070007C01009749F0AE01B8010E944718C801D1
:103080000E940117870153CF10E000E050CFFB01F1
:10309000DC0102C001900D9241505040D8F70895D4
:1030A000FB01DC0101900D920020E1F70895FB0186
:1030B000DC014150504048F001900D920020C9F7CA
:1030C00001C01D9241505040E0F7089510E0CBEA56
:1030D000D0E004C0FE010E9447152196CC3AD107EA
:0630E000C9F7F894FFCFD0
:1030E60053756E0000000000000000004D6F6E007A
:1030F600000000000000000054756500000000009C
:103106000000000057656400000000000000000099
:103116005468750000000000000000004672690057
:103126000000000000000000536174000000000071
:10313600000000000000D9048000000000005601D5
:1031460029019804FF0022010F0100010000000080
:103156000E056B049B047605CC04AA04BE0400008D
:1031660000002807660929076C0AD50B0000000035
:10317600280768092907F20A510C0D0A006E616ECC
:1031860000696E66006F766600444854313100442B
:1031960048543132004448543231004448543232A3
:1031A600004448543F00436F756C646E2774206674
:1031B600696E6420525443204D6F64756C650052ED
:1031C6005443206C6F737420706F7765722C206C7B
:1031D60065747320736574207468652074696D6501
:1031E6002100444159203A0053756E6C6967687432
:1031F60020696E74656E736974793A2000536F693D
:103206006C204D6F6973747572653A20003D3D3DC3
:103216003D3D3D3D3D3D3D3D3D3D3D3D3D3D3D3DD8
:103226003D3D3D3D3D3D3D3D3D3D3D3D3D3D3D3DC8
:103236003D3D3D3D3D3D3D3D3D3D3D3D3D3D0065CD
:1032460076656E742E74656D7065726174757265DF
:103256003A20002043000A4B414D49204D454D423E
:10326600555455484B414E204B454C454D424142E5
:10327600414E2055444152412120534952414D204F
:1032860054414E414D414E20494E492053454745F4
:103296005241210A0A000A4B414D492054494441F2
:1032A6004B204D454D42555455484B414E204B45BC
:1032B6004C454D424142414E205544415241210A1E
:1032C6000A003D3D3D3D3D3D3D3D3D3D3D3D3D3D98
:1032D6003D3D3D3D3D3D3D3D3D3D3D3D3D3D3D3D18
:1032E6003D3D3D3D3D3D3D3D3D3D3D3D3D3D3D3D08
:0632F6003D3D3D0A0A0007
:00000001FF
