:100000000C94AB000C94D3000C94D3000C94D3004C
:100010000C94D3000C94D3000C94D3000C94D30014
:100020000C94D3000C94D3000C94D3000C94D30004
:100030000C94D3000C94D3000C94D3000C94D300F4
:100040000C94B20D0C94D3000C94220E0C94FC0D65
:100050000C94D3000C94D3000C94D3000C94D300D4
:100060000C94930C0C94D300000000002300260095
:10007000290031303A31383A313100417072203143
:100080003320323032310031303A31383A313100B8
:10009000417072203133203230323100444854787C
:1000A0007820556E69666965642053656E736F725A
:1000B000204578616D706C65004572726F722072B8
:1000C000656164696E672068756D6964697479211A
:1000D00000250048756D69646974793A200045729D
:1000E000726F722072656164696E672074656D70ED
:1000F000657261747572652100000000002400279C
:10010000002A0000000000250028002B000000004D
:1001100008000201000003040700000000000000C6
:1001200000040404040404040402020202020203A0
:1001300003030303030102040810204080010204AA
:100140000810200102040810201F1C1F1E1F1E1F64
:100150001F1E1F1E540E11241FBECFEFD8E0DEBF9E
:10016000CDBF12E0A0E0B1E0E2E6FCE202C0059003
:100170000D92A63AB107D9F724E0A6EAB2E001C091
:100180001D92A735B207E1F710E0CBEAD0E004C03A
:100190002197FE010E94DD13CA3AD107C9F70E94D8
:1001A0000E0F0C942F160C9400002091E302260FE2
:1001B0003327331F21323105ECF420915403FC0125
:1001C00090E080E0243069F082E00895A091E3029D
:1001D0002191AC014F535D4FA40FB52FB11D2C934E
:1001E0000196861798F38091E302680F6093E3020B
:1001F00080E0089581E00895089508950895E091BC
:100200000D0380910C03E81730F4F0E0E25FFC4F3F
:10021000808190E008958FEF9FEF089590910D03F6
:1002200080910C032FEF3FEF981748F4E92FF0E08F
:10023000E25FFC4F208130E09F5F90930D03C90186
:10024000089580910C0390910D03891B990B0895DB
:10025000CF92DF92EF92FF920F931F93CF93DF9392
:100260007C01CB018A0120915A03222389F0EB0102
:100270006B01C40ED51ECC15DD0569F06991D7015F
:10028000ED91FC910190F081E02DC7010995F3CF2C
:10029000642F0E94D500C801DF91CF911F910F916B
:1002A000FF90EF90DF90CF900895CF93DF931F9250
:1002B000CDB7DEB7698320915A032223F9F020914C
:1002C0007D03203258F021E030E0FC0133832283AB
:1002D00090E080E00F90DF91CF91089580915B03D3
:1002E000E82FF0E0E45AFC4F998190838F5F809370
:1002F0005B0380937D0381E090E0ECCF61E0CE0171
:1003000001960E94D500F7CF90E0FC01E35FFE4F1D
:100310002491FC01EB5CFE4F3491FC01EF5DFE4F3C
:10032000E491EE23C9F0222339F0233001F1A8F43F
:10033000213019F1223029F1F0E0EE0FFF1FED5FBF
:10034000FE4FA591B4918FB7F894EC91611126C03E
:1003500030953E233C938FBF08952730A9F0283075
:10036000C9F0243049F7809180008F7D03C08091CF
:1003700080008F7780938000DFCF84B58F7784BD36
:10038000DBCF84B58F7DFBCF8091B0008F778093DA
:10039000B000D2CF8091B0008F7DF9CF3E2BDACF65
:1003A0001092540381E08093530310922E0361E076
:1003B00082E10E94840161E083E10E948401E9EB13
:1003C000F0E080818E7F808380818D7F808388E4D0
:1003D0008093B80085E48093BC000895CF93DF93A9
:1003E00091E09093C0028823B9F0C091B800D091F9
:1003F000BA008091BC008A7B8093BC0060E082E1FF
:100400000E94840160E083E10E9484010E94D00187
:10041000D093BA00C093B800DF91CF910895CF93E5
:10042000DF9390E0FC01EB5CFE4F24918F5D9E4FCB
:10043000FC0184918823C9F090E0880F991FFC018A
:10044000E750FF4FA591B491FC01ED5FFE4FC591C0
:10045000D49161110DC09FB7F8948C91209582239F
:100460008C938881282328839FBFDF91CF910895A3
:10047000623051F49FB7F8943C91822F809583238A
:100480008C93E8812E2BEFCF8FB7F894EC912E2B25
:100490002C938FBFEACF8E50806480937C00809134
:1004A0007A00806480937A0080917A0086FDFCCF88
:1004B000809178009091790008953FB7F8948091E9
:1004C000BC029091BD02A091BE02B091BF0226B5C0
:1004D000A89B05C02F3F19F00196A11DB11D3FBF7C
:1004E000BA2FA92F982F8827BC01CD01620F711D4B
:1004F000811D911D42E0660F771F881F991F4A9545
:10050000D1F70895CF92DF92EF92FF920F931F934E
:10051000CF93DF93D0917D0381E0D13208F09CC06E
:10052000C0917C030E945D026B017C0180915403A9
:1005300081116CC082E08093540381E08093530367
:100540008FEF8093520310925103D0935003ACE588
:10055000B3E0E0E3F3E080E0D8138DC010922F0306
:1005600080912F03CC0FC82BC0932F0380912E03B3
:10057000813009F084C010922E030E945D026B014D
:100580007C0180912F038093BB0080915603909152
:100590005703A0915803B0915903892B8A2B8B2BB9
:1005A000A1F00E945D020091560310915703209123
:1005B0005803309159036C197D098E099F0906175C
:1005C00017072807390708F442C08091BC0083FD53
:1005D000D8CF85EC8093BC000E945D026B017C014A
:1005E00080915403823009F44CC0809152038F3FB4
:1005F00009F469C080915203803209F466C0809189
:100600005203803309F463C084E026C0809156030E
:1006100090915703A0915803B0915903892B8A2BCD
:100620008B2B09F483CF0E945D0200915603109139
:10063000570320915803309159036C197D098E0995
:100640009F09061717072807390708F06FCF809111
:1006500055030E94EE0185E010925B0310927D032A
:1006600010925A03DF91CF911F910F91FF90EF905D
:10067000DF90CF9008959D9191938F5F6DCF85EE20
:10068000A9CF8091560390915703A0915803B09140
:100690005903892B8A2B8B2B09F4A2CF0E945D0270
:1006A000009156031091570320915803309159033C
:1006B0006C197D098E099F09061717072807390746
:1006C00008F08ECFC4CF80E0C7CF82E0C5CF83E0F3
:1006D000C3CFCF92DF92EF92FF920F931F93CF93EE
:1006E000DF93D82FC62F613208F098C00E945D02B8
:1006F0006B017C018091540381116BC081E0809378
:100700005403809353039FEF90935203109251032D
:100710009C0F9093500380932F0380912F03DD0F44
:10072000D82BD0932F0380912E03813009F078C00D
:1007300010922E030E945D026B017C0180912F03B9
:100740008093BB008091560390915703A09158036A
:10075000B0915903892B8A2B8B2BA1F00E945D024B
:10076000009156031091570320915803309159037B
:100770006C197D098E099F09061717072807390785
:1007800008F448C08091BC0083FDD8CF85EC8093ED
:10079000BC000E945D026B017C018091540381309A
:1007A00009F440C0809151038C1710F4C09151039B
:1007B000E0E3F3E0AEE0B3E080E08C1355C08C2FB3
:1007C000DF91CF911F910F91FF90EF90DF90CF902D
:1007D00008958091560390915703A0915803B091CA
:1007E0005903892B8A2B8B2B09F484CF0E945D023D
:1007F00000915603109157032091580330915903EB
:100800006C197D098E099F090617170728073907F4
:1008100008F070CF809155030E94EE01C0E0CFCF69
:1008200085EEB5CF8091560390915703A091580360
:10083000B0915903892B8A2B8B2B09F4AECF0E94E0
:100840005D02009156031091570320915803309197
:1008500059036C197D098E099F0906171707280788
:10086000390708F09ACFD6CF91919D938F5FA5CF8E
:100870008F929F92AF92BF92CF92DF92EF92FF92B0
:100880004B015C010E945D026B017C010E945D02D4
:100890006C197D098E099F09683E73408105910599
:1008A000A8F321E0821A9108A108B10888EEC80EC9
:1008B00083E0D81EE11CF11C81149104A104B10451
:1008C00029F7FF90EF90DF90CF90BF90AF909F906F
:1008D0008F900895AF92BF92CF92DF92EF92FF92E6
:1008E0000F931F93CF93DF936C017B018B01040F58
:1008F000151FEB015E01AE18BF08C017D10759F0F4
:100900006991D601ED91FC910190F081E02DC60135
:100910000995892B79F7C501DF91CF911F910F912F
:10092000FF90EF90DF90CF90BF90AF90089590E050
:1009300080E00895FC01538D448D252F30E0842FF5
:1009400090E0821B930B541710F0CF9608950197F7
:100950000895FC01918D828D981761F0A28DAE0FE4
:10096000BF2FB11D5D968C91928D9F5F9F73928F6B
:1009700090E008958FEF9FEF0895FC01918D828D97
:10098000981731F0828DE80FF11D858D90E0089564
:100990008FEF9FEF0895FC01918D228D892F90E0BC
:1009A000805C9F4F821B91098F73992708958AE875
:1009B00093E00E94CB0421E0892B09F420E0822FF0
:1009C000089580E090E0892B29F00E94D7048111DE
:1009D0000C9400000895FC01A48DA80FB92FB11D3F
:1009E000A35ABF4F2C91848D90E001968F73992765
:1009F000848FA689B7892C93A089B1898C91837043
:100A000080648C93938D848D981306C00288F3893B
:100A1000E02D80818F7D80830895EF92FF920F9368
:100A20001F93CF93DF93EC0181E0888F9B8D8C8D9A
:100A300098131AC0E889F989808185FF15C09FB78E
:100A4000F894EE89FF896083E889F9898081837051
:100A5000806480839FBF81E090E0DF91CF911F9100
:100A60000F91FF90EF900895F62E0B8D10E00F5F21
:100A70001F4F0F731127E02E8C8D8E110CC00FB6F7
:100A800007FCFACFE889F989808185FFF5CFCE018F
:100A90000E94EB04F1CFEB8DEC0FFD2FF11DE35A1B
:100AA000FF4FF0829FB7F8940B8FEA89FB89808112
:100AB0008062CFCF0F931F93CF93DF938C01D0E051
:100AC000C0E0F801EC0FFD1F6491662341F08AE855
:100AD00093E00E940D05892B11F02196F2CFCE01F3
:100AE000DF91CF911F910F910895CF93DF93EC0188
:100AF000888D8823B9F0AA89BB89E889F9898C9106
:100B000085FD03C0808186FD0DC00FB607FCF7CFC1
:100B10008C9185FFF2CF808185FFEDCFCE010E94C1
:100B2000EB04E9CFDF91CF910895FC0190819053C0
:100B30009A3008F090E0818180532AE0929F800DE6
:100B400011240895CF92DF92EF92FF92CF93DF931B
:100B5000DC011796CC911797D0E06111DC2F189625
:100B60002C91189730E0220F331F28593F4F50E047
:100B700040E0F90185919491FC01F080BA0190E088
:100B800080E0EF2DEC23ED1310C04F5F5F4F1D96FB
:100B9000CD90DD90ED90FC9050976C157D058E0505
:100BA0009F0538F36FEF7FEFCB01DF91CF91FF907F
:100BB000EF90DF90CF9008958F929F92AF92BF9267
:100BC000CF92DF92EF92FF920F931F93CF93DF9319
:100BD000CDB7DEB7C054D1400FB6F894DEBF0FBE1C
:100BE000CDBF2FB7F894409108035091090360914D
:100BF0000A0370910B032FBFFC0101851285238529
:100C000034856A017B01C01AD10AE20AF30A97010E
:100C10008601003D174021053105B0F4FC018189B2
:100C2000C05CDE4F0FB6F894DEBF0FBECDBFDF91C4
:100C3000CF911F910F91FF90EF90DF90CF90BF90D9
:100C4000AF909F908F9008958C01FC01418752874F
:100C5000638774871482138212821182108262E089
:100C600085810E940F0261E070E080E090E00E94C8
:100C7000380461E0F80185810E940F0260E0F8010C
:100C800085810E948401F80186818551823028F592
:100C90008BE291E10197F1F762E0F80185810E9412
:100CA0000F02F801828990E08230910538F0880FB8
:100CB000991F880F991F05970197F1F7F89460E045
:100CC000C8010E94A2056F3F7F4F8F4F9F4F61F475
:100CD000F801118A789480E0A3CF64E170E080E0AD
:100CE00090E00E943804D8CF61E0C8010E94A205BC
:100CF0006F3F7F4F8F4F9F4F59F3CE0101967C017D
:100D00005E019FEBA91A9EEFB90A670160E0C80176
:100D10000E94A205F601608371838283938361E060
:100D2000C8010E94A205F6016483758386839783B8
:100D3000F8E0CF0ED11CCA14DB0441F7789430E000
:100D400020E0F70180809180A280B38044815581AA
:100D500066817781FFEF8F169F06AF06BF0631F0E1
:100D60004F3F8FEF58076807780719F4F801118A89
:100D7000B2CFF90183E0F595E7958A95E1F7E00FA9
:100D8000F11F8081880F84169506A606B706F0F03D
:100D900080832F5F3F4FF8E0EF0EF11C28323105C2
:100DA00081F6F801448120818181280F3327331F88
:100DB0008281280F311D8381820F932F911D9927E6
:100DC0004817190699F681E0818B2ACF8160E0CF20
:100DD000FC0183898B3051F480E492E4AFE0B0E011
:100DE000FB0184A395A3A6A3B7A3089580E894E884
:100DF000AEE1B0E0F5CF0895089581E080935A0305
:100E000088E680937C0310925B0310927D036FE071
:100E10008EE793E00E9455010E94820261E088E61D
:100E20000E94690310920D0380930C038EE793E0F8
:100E30000E940E0108951F93CF93DF93EC0181E090
:100E400080935A0388E680937C0310925B03109290
:100E50007D0360E08EE793E00E9455012D811AE04A
:100E6000822F612F0E94BD13682F660F680F660FD7
:100E7000620F8EE793E00E9455012C81822F612F33
:100E80000E94BD13682F660F680F660F620F8EE712
:100E900093E00E9455012B81822F612F0E94BD1388
:100EA000682F660F680F660F620F8EE793E00E944F
:100EB000550169819881492F50E08A81282F30E0BF
:100EC000E9E4F1E081E0861730F47491270F311DD9
:100ED0008F5F3196F8CF633020F0937011F42F5F5D
:100EE0003F4F6DE671E0469FC001479F900D569FB2
:100EF000900D112405964D5F5F4F56954795569579
:100F00004795840F951F820F931F67E070E00E9442
:100F1000C913682F811101C067E08EE793E00E943A
:100F200055012A811AE0822F612F0E94BD13682F7C
:100F3000660F680F660F620F8EE793E00E945501FF
:100F40002981822F612F0E94BD13682F660F680FC1
:100F5000660F620F8EE793E00E9455012881822F71
:100F6000612F0E94BD13682F660F680F660F620F16
:100F70008EE793E00E9455010E9482020E94FD06C6
:100F8000C82F81E080935A0388E680937C031092F7
:100F90005B0310927D036FE08EE793E00E945501A2
:100FA0006C2F6F778EE793E00E945501DF91CF9110
:100FB0001F910C948202FC0101900020E9F7319707
:100FC000AF01481B590BBC018AE893E00C946A04FA
:100FD0008F929F92AF92BF920F931F93CF93DF9305
:100FE000CDB7DEB7A1970FB6F894DEBF0FBECDBF69
:100FF00019A2423008F44AE08E010F5D1F4F842E83
:10100000912CB12CA12CA50194010E948C13E62FE8
:10101000B901CA01EA30F4F4E05DD801EE938D0124
:10102000232B242B252B79F790E080E0109719F0E3
:10103000CD010E94DB07A1960FB6F894DEBF0FBE6C
:10104000CDBFDF91CF911F910F91BF90AF909F9037
:101050008F900895E95CE1CFCF92DF92EF92FF92FB
:10106000CF93DF936C01990FEE08FF08F7FE1FC0C6
:101070006DE28AE893E00E940D05EC016627772770
:10108000CB016C197D098E099F094AE00E94E8078F
:10109000C80FD91F86E491E00E94DB078C0F9D1FCB
:1010A000DF91CF91FF90EF90DF90CF9008954AE0CD
:1010B000C701B6010E94E807EC01ECCFCF93DF93A4
:1010C0000E94DB07EC0186E491E00E94DB078C0FB5
:1010D0009D1FDF91CF910895CF93DF930E945A0512
:1010E000EC0186E491E00E94DB078C0F9D1FDF91ED
:1010F000CF9108954F925F926F927F928F929F92BD
:10110000AF92BF92CF92DF92EF92FF920F931F9315
:10111000CF936B017C01742EAC019B010E94F614ED
:10112000882399F089E491E0CF911F910F91FF906E
:10113000EF90DF90CF90BF90AF909F908F907F9077
:101140006F905F904F900C94DB0746015701E89435
:10115000B7F82FEF3FEF4FE75FE7C501B4010E94FB
:10116000F61481110DC02FEF3FEF4FE75FE7C50188
:10117000B4010E943E1218161CF48DE491E0D4CF05
:101180002FEF3FEF4FE75FE4C701B6010E94F11474
:1011900018161CF481E591E0C7CF2FEF3FEF4FE722
:1011A0005FECC701B6010E943E1287FDF3CF20E03D
:1011B00030E0A901C701B6010E943E1210E000E034
:1011C00087FF0AC06DE28AE893E00E940D058C015A
:1011D000F7FAF094F7F8F094C0E060E070E080E097
:1011E0009FE37C1641F020E030E040E251E40E94B1
:1011F0005014CF5FF6CFA70196010E94E4132B0194
:101200003C010E94C2144B015C014AE00E94E807C5
:101210007C01E00EF11ECC23C1F1C501B4010E9496
:1012200043129B01AC01C301B2010E94E3134B01C5
:101230005C016EE28AE893E00E940D05E80EF91E5B
:10124000C15018F120E030E040E251E4C501B401A2
:101250000E94A4122B013C010E94C2144B01B12C2C
:10126000A12C4AE0C501B4010E94E807E80EF91E6E
:10127000C501B4010E9443129B01AC01C301B2013C
:101280000E94E3134B015C01DBCFC701CF911F919B
:101290000F91FF90EF90DF90CF90BF90AF909F9015
:1012A0008F907F906F905F904F90089585ED809321
:1012B000BC008091560390915703A0915803B091C0
:1012C00059030796A11DB11D23E0B695A7959795E3
:1012D00087952A95D1F72091BC0024FD03C0109278
:1012E0005403089540915603509157036091580359
:1012F00070915903452B462B472B69F30097A105A5
:10130000B10541F025E32A95F1F700000197A10905
:10131000B109E1CF809155030C94EE01EF92FF9259
:101320000F931F93CF93DF93CDB7DEB72B970FB6F5
:10133000F894DEBF0FBECDBF8C017A014BE050E0C8
:10134000CE0101960E943512CE010A960E949505A3
:10135000F8018083E981E154E33118F50E2E000C89
:10136000FF0BEB54F64F0C94DD13030AD109D1099E
:10137000170AD109010AD109D109D109C809D1092E
:10138000D1090A0A150A130AD109D109D109110A8A
:101390008A81813691F18B818E3689F187E0F8015F
:1013A0008183CE0105960E949505F801828348E06D
:1013B00050E0B701CE0101960E943512CE01019690
:1013C0000E949505F8018383CE0104960E9495053D
:1013D000F8018483CE0107960E949505F801858364
:1013E0002B960FB6F894DEBF0FBECDBFDF91CF9125
:1013F0001F910F91FF90EF90089581E0D0CF86E08C
:10140000CECF82E0CCCF8B81823711F088E0C7CF7E
:1014100084E0C5CF8B81823711F085E0C0CF83E0B7
:10142000BECF89E0BCCF8AE0BACF8BE0B8CF8CE0EA
:10143000B6CFCF92DF92EF92FF920F931F93CF938D
:10144000DF93EB01FB01349620E2DF011D922A9528
:10145000E9F744E250E060E070E0488359836A8332
:101460007B83FC0145815681678170854C835D8358
:101470006E837F834CE050E060E070E048875987DE
:101480006A877B872FB7F89440910803509109032E
:1014900060910A0370910B032FBF488B598B6A8BA5
:1014A0007B8B03811481C8010E94DC05882349F0ED
:1014B000F80186818B3028F08D3040F085518230E4
:1014C00070F160E070E080EC9FE71BC0618170E02C
:1014D00090E080E00E9445122DEC3CEC4CEC5DE38A
:1014E0000E94A4126B017C01F801608170E090E021
:1014F00080E00E9445129B01AC01C701B6010E9429
:10150000E4136C8B7D8B8E8B9F8B81E0DF91CF9171
:101510001F910F91FF90EF90DF90CF900895608121
:10152000718176276727762790E080E00E9443123A
:101530002DEC3CEC4CEC5DE30E94A412E2CF8F92C8
:101540009F92AF92BF92EF92FF921F93CF93DF9340
:10155000EB01FB01349620E2DF011D922A95E9F7A9
:1015600044E250E060E070E0488359836A837B8303
:10157000FC0145815681678170854C835D836E8354
:101580007F834DE050E060E070E0488759876A87CC
:101590007B872FB7F894409108035091090360911D
:1015A0000A0370910B032FBF488B598B6A8B7B8B7F
:1015B000E380F480C7010E94DC05882341F0F70135
:1015C00086818C3009F455C038F48B30E1F060E04E
:1015D00070E080EC9FE73EC085518230C0F71281F9
:1015E000612F70E0762F662766277F778381682BCF
:1015F00090E080E00E9443122DEC3CEC4CEC5DE36B
:101600000E94A41251C0628170E090E080E00E94CC
:1016100043124B015C01F701138117FF0AC0AC01B3
:101620009B0160E070E080E89FEB0E94E3134B01B8
:101630005C011F70612F70E090E080E00E94451215
:101640002DEC3CEC4CEC5DE30E94A412A50194014E
:101650000E94E4136C8B7D8B8E8B9F8B81E0DF91DE
:10166000CF911F91FF90EF90BF90AF909F908F9080
:1016700008951281612F70E090E080E00E94431293
:101680004B015C01F70163816F7070E090E080E0D6
:101690000E9445122DEC3CEC4CEC5DE30E94A41240
:1016A000A50194010E94E41317FFD4CF9058D2CF24
:1016B000CF93DF93EB01FC0183894BE050E06BE5B6
:1016C00071E08C30C1F058F44BE050E065E571E01A
:1016D0008B3089F04BE050E06DE671E00CC04BE0E0
:1016E00050E061E671E0853131F04BE050E067E6B3
:1016F00071E0863179F7CE010E9420161B86DF91BA
:10170000CF9108950F931F93CF93DF938C01EB013B
:1017100088E2DB011D928A95E9F7F80183819481C3
:101720000E94580B81E090E0A0E0B0E08C879D879C
:10173000AE87BF87F80185819681A781B085888BA8
:10174000998BAA8BBB8B8CE090E0A0E0B0E08C8BF7
:101750009D8BAE8BBF8BBE01838194810E94E80676
:10176000D8011396ED91FC9183898C3009F441C026
:1017700078F48B3009F1188E198E1A8E1B8E1C8E00
:101780001D8E1E8E1F8E18A219A21AA21BA22CC07B
:101790008551823080F780E090E0A8ECB2E4888F39
:1017A000998FAA8FBB8F1C8E1D8E1E8E1F8E8DEC67
:1017B0009CECACECBDE314C080E090E0A0EAB2E4A5
:1017C000888F998FAA8FBB8F80E090E0A0EAB1E468
:1017D0008C8F9D8FAE8FBF8F80E090E0A0EAB0E449
:1017E00088A399A3AAA3BBA3DF91CF911F910F91C7
:1017F000089580E090E0AEEBB2E4E2CF0F931F9348
:10180000CF93DF938C01EB0188E2DB011D928A9577
:10181000E9F7F801838194810E94580B81E090E000
:10182000A0E0B0E08C879D87AE87BF87F8018581F7
:101830009681A781B085888B998BAA8BBB8B8DE015
:1018400090E0A0E0B0E08C8B9D8BAE8BBF8BBE0197
:10185000838194810E94E806D8011396ED91FC9152
:1018600083898C3091F178F48B30B1F0188E198E19
:101870001A8E1B8E1C8E1D8E1E8E1F8E18A219A2F4
:101880001AA21BA21DC08531A9F1863179F780E02B
:1018900090E0AAEFB2E432C080E090E0A8E4B2E4C5
:1018A000888F998FAA8FBB8F1C8E1D8E1E8E1F8EC8
:1018B00080E090E0A0E0B0E488A399A3AAA3BBA332
:1018C000DF91CF911F910F91089580E090E0A0E704
:1018D000B2E4888F998FAA8FBB8F80E090E0A0EA56
:1018E000B1EC8C8F9D8FAE8FBF8F80E090E0A0E039
:1018F000BFE3E2CF80E090E0A0EAB2E4888F998F66
:10190000AA8FBB8F80E090E0A0E2B2EC8C8F9D8F1D
:10191000AE8FBF8F8DEC9CECACECBDE3CDCF0C94C7
:1019200097150C9497151F920F920FB60F921124D2
:101930002F933F934F935F936F937F938F939F93D7
:10194000AF93BF93EF93FF938091B900887F803668
:1019500009F44AC0F0F5883209F4A7C018F58031BF
:1019600009F49BC0B8F4882309F4F9C0883009F45D
:1019700094C0FF91EF91BF91AF919F918F917F9113
:101980006F915F914F913F912F910F900FBE0F90EC
:101990001F901895883109F488C0803251F78093E0
:1019A000520314C0803409F49DC040F48033B9F36D
:1019B0008833F9F68093520385ECB0C0803509F482
:1019C00085C0883509F496C0883499F60E94560976
:1019D000D0CF883909F48CC038F5883729F050F415
:1019E000883611F0803729F683E0809354031092F3
:1019F000070357C0883809F47BC0803919F0803854
:101A000009F0B7CF80910703803208F071C0E091F0
:101A1000070381E08E0F809307038091BB00F0E005
:101A2000E951FD4F80833DC0803B39F0E0F4803ABE
:101A300009F479C0883A09F09CCF84E0809354037C
:101A40001092E4021092E302E091E102F091E202CE
:101A500009958091E30281110FC081E08093E30238
:101A60001092C10209C0803C09F4A6CF883C09F459
:101A7000A3CF883B09F07DCFE091E40281E08E0F97
:101A80008093E402F0E0EF53FD4F80818093BB0030
:101A90009091E4028091E30229C080912F0380930A
:101AA000BB0085EC8093BC0064CF90915103809182
:101AB0005003981758F5E091510381E08E0F809301
:101AC0005103F0E0E05DFC4F8081E9CFE0915103EC
:101AD00081E08E0F809351038091BB00F0E0E05DC8
:101AE000FC4F808390915103809150039817C8F266
:101AF00085E8D8CFE091510381E08E0F80935103A8
:101B00008091BB00F0E0E05DFC4F80838091530347
:101B100081115CCF81E080932E0384EA8093BC0026
:101B20001092540326CF85EC8093BC00109254038E
:101B300080910703803230F4E0910703F0E0E9512F
:101B4000FD4F10826091070370E0E091E502F09193
:101B5000E60287EE92E00995109207030ACF1092F1
:101B6000520334CF1F920F920FB60F9211242F936E
:101B70003F938F939F93AF93BF938091080390916E
:101B80000903A0910A03B0910B033091BB0223E03B
:101B9000230F2D3758F50196A11DB11D2093BB02CF
:101BA0008093080390930903A0930A03B0930B0357
:101BB0008091BC029091BD02A091BE02B091BF0283
:101BC0000196A11DB11D8093BC029093BD02A0930C
:101BD000BE02B093BF02BF91AF919F918F913F9191
:101BE0002F910F900FBE0F901F90189526E8230F8E
:101BF0000296A11DB11DD2CF1F920F920FB60F9268
:101C000011242F933F934F935F936F937F938F9301
:101C10009F93AF93BF93EF93FF938AE893E00E9463
:101C2000EB04FF91EF91BF91AF919F918F917F91C5
:101C30006F915F914F913F912F910F900FBE0F9039
:101C40001F9018951F920F920FB60F9211242F9389
:101C50008F939F93EF93FF93E0919A03F0919B03EF
:101C60008081E091A003F091A10382FD1BC09081CF
:101C70008091A3038F5F8F732091A403821741F09B
:101C8000E091A303F0E0E657FC4F958F8093A30308
:101C9000FF91EF919F918F912F910F900FBE0F9019
:101CA0001F9018958081F4CF1092810310928003C9
:101CB00088EE93E0A0E0B0E08093820390938303EA
:101CC000A0938403B09385032AE031E030937F032F
:101CD00020937E0310928D0310928C0380938E03C9
:101CE00090938F03A0939003B09391038CE191E0C4
:101CF00090938B0380938A0385EC90E090939703F5
:101D00008093960384EC90E09093990380939803DA
:101D100080EC90E090939B0380939A0381EC90E099
:101D200090939D0380939C0382EC90E090939F039B
:101D300080939E0386EC90E09093A1038093A00390
:101D40001092A3031092A4031092A5031092A6036D
:101D500010925204109251041092500410924D04AB
:101D6000E9E4F1E081E08C3051F09491823009F4A3
:101D70009F5F21E0280F3196992309F44DC080938D
:101D80004E0481E080934F0427E234E08FE080939B
:101D90002C048BE080932D04E4E4F1E0E491E093E3
:101DA0002E04E0E3F1E0E491E0932F0440E85EE3E9
:101DB00060E070E04093340450933504609336043F
:101DC0007093370480933A048CE391E090933C0441
:101DD00080933B0430933F0420933E048FEF9FEFAA
:101DE000DC018093400490934104A0934204B0939B
:101DF00043044EE251E05093450440934404309331
:101E00004804209347048093490490934A04A09384
:101E10004B04B0934C040895822FA5CFCF93DF934A
:101E2000CDB7DEB7C155D1090FB6F894DEBF0FBEEE
:101E3000CDBF789484B5826084BD84B5816084BD53
:101E400085B5826085BD85B5816085BD80916E0058
:101E5000816080936E001092810080918100826089
:101E600080938100809181008160809381008091C6
:101E700080008160809380008091B10084608093B5
:101E8000B1008091B00081608093B00080917A00B1
:101E9000846080937A0080917A00826080937A00D7
:101EA00080917A00816080937A0080917A008068C6
:101EB00080937A001092C1008FEF9FEF9093B6024B
:101EC0008093B5021092B40285E090E09093B30243
:101ED0008093B2028CE990E00E946C08E0919A0332
:101EE000F0919B0382E08083E0919603F091970349
:101EF0001082E0919803F09199038FEC8083109207
:101F0000A203E0919E03F0919F0386E08083E0911D
:101F10009C03F0919D03808180618083E0919C030C
:101F2000F0919D03808188608083E0919C03F09113
:101F30009D03808180688083E0919C03F0919D03E4
:101F400080818F7D808362E080912C040E940F024B
:101F50002FB7F8948091080390910903A0910A0388
:101F6000B0910B032FBF805D9740A109B109809309
:101F7000300490933104A0933204B093330487E388
:101F80008093390461E08091B2020E940F0260E008
:101F900084E00E940F0210920D0310920C03109225
:101FA0005B0310927D030E94D0018CEF90E0909330
:101FB000E2028093E1028DEF90E09093E60280933D
:101FC000E50281E080935A0388E680937C030E94B7
:101FD00082028111B2C10E94FD0690E0880F892F14
:101FE000881F990B892B81F08BE891E00E945E0895
:101FF00047E850E060E970E0CE0101960E948E094A
:10200000CE0101960E941B0742E750E06BE770E0AB
:10201000CE0101960E948E09CE0101960E941B07F7
:1020200011E008E6F0E02F2EF0E03F2E10935A0367
:1020300000937C0310925B0310927D0360E08EE7B7
:1020400093E00E9455010E94820267E088E60E94A8
:10205000690310920D0380930C038EE793E00E94B6
:102060000E018F77282F30E094E0359527959A95CB
:10207000E1F7922F990F990FF22EF91AFF0CF80E33
:102080008EE793E00E940E019C0144E03595279570
:102090004A95E1F72F703327922F990F990FE22E6F
:1020A000E91AEE0CE80E8EE793E00E940E019C0107
:1020B00054E0359527955A95E1F72F703327922FE5
:1020C000990F990FD22ED91ADD0CD80E8EE793E016
:1020D0000E940E018EE793E00E940E019C0164E0D5
:1020E000359527956A95E1F72F703327922F990F31
:1020F000990FC22EC91ACC0CC80E8EE793E00E942D
:102100000E019C0174E0359527957A95E1F72F70C3
:102110003327922F990F990FB22EB91ABB0CB80E14
:102120008EE793E00E940E019C01E4E0359527952F
:10213000EA95E1F72F703327922F990F990F291BFA
:10214000220F820F80934D04B0924E04C0924F0430
:10215000D0925004E0925104F092520480913D04D8
:102160008FA38CE391E09EA38DA380913E04909178
:102170003F0499A788A78091400490914104A091C1
:102180004204B09143048AA79BA7ACA7BDA7BE0198
:102190006F5F7F4FCE0185960E949F0A8091460413
:1021A0002C968FAF2C978EE291E02B969FAF8EAF3F
:1021B0002B9780914704909148042E969FAF8EAF45
:1021C0002E978091490490914A04A0914B04B091BC
:1021D0004C0462968CAF9DAFAEAFBFAF6297BE01AD
:1021E0006B5D7F4FCE01875B9F4F0E94190A8EE087
:1021F0000E944B029C01990F440B550B2F5F3340FB
:1022000041095109A4E6B0E00E9481132FE43CEF9C
:102210004FEF5FEF0E94621369013093BA0220937F
:10222000B90280E10E944B029C01990F440B550BAF
:102230002F5F334041095109A4E6B0E00E948113A9
:1022400029EC3CEF4FEF5FEF0E9462132901590127
:102250008091B5029091B602C816D906E1F0D092ED
:10226000B602C092B5028EEA91E00E94DB0780912F
:10227000B9029091BA020E942C088091B502909107
:10228000B6024F970CF05EC061E08091B2020E94EE
:1022900084011093B4028091AE029091AF02A8160F
:1022A000B90671F05092AF024092AE0283EC91E019
:1022B0000E94DB078091AE029091AF020E942C0831
:1022C000CD88DE88EF88F88CA7019601C701B6019A
:1022D0000E94F614882309F43DC08EED90E00E9420
:1022E0006C08C9ACDAACEBACFCACA7019601C70139
:1022F000B6010E94F6148111AAC02091A602309165
:10230000A7024091A8025091A902C701B6010E94FC
:102310003E128111A1C068EE73E080E090E00E945F
:1023200038042114310409F481CE0E94D704882393
:1023300009F47CCE0E94000079CE82E791E00E94F1
:102340005E08FFCF60E08091B2020E94840110928B
:10235000B402A1CF2091AA023091AB024091AC020D
:102360005091AD02C701B6010E943E1281111AC000
:10237000C9ACDAACEBACFCACA70196016091A6024B
:102380007091A7028091A8029091A9020E943E122A
:102390008823F1F1A7019601C701B6010E94F61446
:1023A000811136C083ED91E00E945E0885E092E0E5
:1023B0000E94DB076D897E898F89988D42E00E949B
:1023C0007A0889E192E00E945E0883ED90E00E9425
:1023D0005A0569AD7AAD8BAD9CAD42E00E947A089A
:1023E00081ED90E00E946C0820E030E040E752E48C
:1023F00069AD7AAD8BAD9CAD0E943E1287FF24C0C3
:102400008CE192E00E94DB0782E792E00E945E0886
:10241000CD88DE88EF88F88CA70196016091AA022A
:102420007091AB028091AC029091AD020E943E127D
:10243000882309F456CFC092AA02D092AB02E09250
:10244000AC02F092AD024DCF81E592E0DBCF89EB9B
:1024500090E00E946C085FCFC092A602D092A702C3
:10246000E092A802F092A90256CFFB01DC0102C063
:1024700005900D9241505040D8F708950E94801267
:1024800008F481E00895E89409C097FB3EF4909524
:102490008095709561957F4F8F4F9F4F9923A9F03D
:1024A000F92F96E9BB279395F695879577956795CC
:1024B000B795F111F8CFFAF4BB0F11F460FF1BC010
:1024C0006F5F7F4F8F4F9F4F16C0882311F096E9A3
:1024D00011C0772321F09EE8872F762F05C0662351
:1024E00071F096E8862F70E060E02AF09A95660F0A
:1024F000771F881FDAF7880F9695879597F90895C3
:10250000990F0008550FAA0BE0E8FEEF1616170604
:10251000E807F907C0F012161306E407F50798F06C
:10252000621B730B840B950B39F40A2661F0232B85
:10253000242B252B21F408950A2609F4A140A69501
:102540008FEF811D811D08950E94B7120C942813EE
:102550000E941A1338F00E94211320F0952311F0E5
:102560000C9411130C94171311240C945C130E94F7
:10257000391370F3959FC1F3950F50E0551F629F7B
:10258000F001729FBB27F00DB11D639FAA27F00DCC
:10259000B11DAA1F649F6627B00DA11D661F829FF3
:1025A0002227B00DA11D621F739FB00DA11D621FD8
:1025B000839FA00D611D221F749F3327A00D611DF5
:1025C000231F849F600D211D822F762F6A2F1124D7
:1025D0009F5750409AF0F1F088234AF0EE0FFF1F0A
:1025E000BB1F661F771F881F91505040A9F79E3F61
:1025F000510580F00C9411130C945C135F3FE4F3CD
:10260000983ED4F3869577956795B795F795E795B6
:102610009F5FC1F7FE2B880F911D9695879597F9BF
:10262000089597F99F6780E870E060E008959FEF54
:1026300080EC089500240A94161617061806090659
:10264000089500240A941216130614060506089528
:10265000092E0394000C11F4882352F0BB0F40F4B0
:10266000BF2B11F460FF04C06F5F7F4F8F4F9F4FF0
:10267000089557FD9058440F551F59F05F3F71F072
:102680004795880F97FB991F61F09F3F79F08795D9
:102690000895121613061406551FF2CF4695F1DF62
:1026A00008C0161617061806991FF1CF86957105F2
:1026B000610508940895E894BB2766277727CB0126
:1026C00097F90895052E97FB1EF400940E94791344
:1026D00057FD07D00E948C1307FC03D04EF40C94D6
:1026E000791350954095309521953F4F4F4F5F4F4F
:1026F000089590958095709561957F4F8F4F9F4F6E
:1027000008950E94AE13A59F900DB49F900DA49FB5
:10271000800D911D11240895A1E21A2EAA1BBB1B46
:10272000FD010DC0AA1FBB1FEE1FFF1FA217B3079D
:10273000E407F50720F0A21BB30BE40BF50B661FB3
:10274000771F881F991F1A9469F760957095809577
:1027500090959B01AC01BD01CF010895A29FB001EE
:10276000B39FC001A39F700D811D1124911DB29FC5
:10277000700D811D1124911D0895991B79E004C0ED
:10278000991F961708F0961B881F7A95C9F78095B0
:102790000895AA1BBB1B51E107C0AA1FBB1FA617A8
:1027A000B70710F0A61BB70B881F991F5A95A9F7FA
:1027B00080959095BC01CD010895EE0FFF1F059007
:1027C000F491E02D09945058BB27AA270E94FB13CF
:1027D0000C9428130E941A1338F00E94211320F041
:1027E00039F49F3F19F426F40C9417130EF4E09576
:1027F000E7FB0C941113E92F0E94391358F3BA1711
:10280000620773078407950720F079F4A6F50C9406
:102810005B130EF4E0950B2EBA2FA02D0B01B9011E
:1028200090010C01CA01A0011124FF27591B99F046
:10283000593F50F4503E68F11A16F040A22F232F52
:10284000342F4427585FF3CF469537952795A795A2
:10285000F0405395C9F77EF41F16BA0B620B730B49
:10286000840BBAF09150A1F0FF0FBB1F661F771FBA
:10287000881FC2F70EC0BA0F621F731F841F48F46F
:10288000879577956795B795F7959E3F08F0B0CFF8
:102890009395880F08F09927EE0F979587950895DF
:1028A0000E9464140C9428130E94211358F00E9473
:1028B0001A1340F029F45F3F29F00C9411135111C1
:1028C0000C945C130C9417130E94391368F399232A
:1028D000B1F3552391F3951B550BBB27AA2762171C
:1028E0007307840738F09F5F5F4F220F331F441F29
:1028F000AA1FA9F335D00E2E3AF0E0E832D091505D
:102900005040E695001CCAF72BD0FE2F29D0660F49
:10291000771F881FBB1F261737074807AB07B0E88C
:1029200009F0BB0B802DBF01FF2793585F4F3AF092
:102930009E3F510578F00C9411130C945C135F3F8B
:10294000E4F3983ED4F3869577956795B795F79518
:102950009F5FC9F7880F911D9695879597F9089500
:10296000E1E0660F771F881FBB1F6217730784079C
:10297000BA0720F0621B730B840BBA0BEE1F88F7AB
:10298000E09508950E94411388F09F5798F0B92F61
:102990009927B751B0F0E1F0660F771F881F991F94
:1029A0001AF0BA95C9F714C0B13091F00E945B13C8
:1029B000B1E008950C945B13672F782F8827B85FD8
:1029C00039F0B93FCCF3869577956795B395D9F7EC
:1029D0003EF490958095709561957F4F8F4F9F4FF6
:1029E00008950E94801208F48FEF08950E948012CB
:1029F000880B990B08950F931F93CF93DF93823029
:102A0000910510F482E090E0E0915504F0915604B5
:102A100030E020E0B0E0A0E0309799F421153105D6
:102A200009F44AC0281B390B24303105D8F58A81B6
:102A30009B816115710589F1FB0193838283FE01FE
:102A400011C0408151810281138148175907E0F07C
:102A50004817590799F4109761F012960C93129742
:102A600013961C933296CF01DF91CF911F910F9156
:102A700008950093550410935604F4CF21153105A1
:102A800051F04217530738F0A901DB019A01BD014B
:102A9000DF01F801C1CFEF01F9CF90935604809385
:102AA0005504CDCFFE01E20FF31F81939193225085
:102AB000310939832883D7CF2091530430915404AE
:102AC000232B41F4209102013091030130935404EF
:102AD000209353042091000130910101211531050B
:102AE00041F42DB73EB74091040150910501241BDC
:102AF000350BE0915304F0915404E217F307A0F46E
:102B00002E1B3F0B2817390778F0AC014E5F5F4F43
:102B10002417350748F04E0F5F1F5093540440931D
:102B20005304819391939FCFF0E0E0E09CCFCF934B
:102B3000DF930097E9F0FC01329713821282A09193
:102B40005504B0915604ED0130E020E01097A1F457
:102B500020813181820F931F2091530430915404BE
:102B60002817390709F061C0F0935404E093530427
:102B7000DF91CF910895EA01CE17DF07E8F54A818A
:102B80005B819E0141155105B1F7E901FB83EA83A1
:102B900049915991C40FD51FEC17FD0761F480814D
:102BA00091810296840F951FE90199838883828120
:102BB00093819B838A83F0E0E0E012968D919C9153
:102BC00013970097B9F52D913C911197CD0102967D
:102BD000820F931F20915304309154042817390712
:102BE00039F6309751F51092560410925504B0936F
:102BF0005404A0935304BCCFD383C283408151813A
:102C0000840F951FC817D90761F44E5F5F4F888105
:102C10009981480F591F518340838A819B819383F7
:102C200082832115310509F0B0CFF0935604E0936B
:102C300055049ECFFD01DC01C0CF13821282D7CF95
:102C4000FB01DC014150504048F001900D92002002
:102C5000C9F701C01D9241505040E0F70895F89423
:022C6000FFCFA4
:102C6200000057048000000000005501280197046D
:102C7200FE0021010E01FF00000000000D056A04A4
:102C82009A047505CB04A904BD0400000000FB06EC
:102C92008F0CFC06190A820B00000000FB06910C47
:102CA200FC069F0AFE0B0D0A006E616E00696E66DD
:102CB200006F766600444854313100444854313242
:102CC200004448543231004448543232004448549B
:102CD2003F00436F756C646E27742066696E6420D2
:102CE200525443204D6F64756C6500525443206CFE
:102CF2006F737420706F7765722C206C657473200B
:102D0200736574207468652074696D65210053755C
:102D12006E6C6967687420696E74656E7369747924
:102D22003A2000536F696C204D6F69737475726538
:102D32003A20003D3D3D3D3D3D3D3D3D3D3D3D3D1E
:102D42003D3D3D3D3D3D3D3D3D3D3D3D3D3D3D3DB1
:102D52003D3D3D3D3D3D3D3D3D3D3D3D3D3D3D3DA1
:102D62003D3D3D3D006576656E742E74656D706502
:102D72007261747572653A20002043000A4B414D1E
:102D820049204D454D42555455484B414E205544DE
:102D92004152412120534952414D2054414E414D0F
:102DA200414E20494E4920534547455241210A0A86
:102DB200000A4B414D4920544944414B204D454D59
:102DC20042555455484B414E205544415241210AE7
:102DD2000A003D3D3D3D3D3D3D3D3D3D3D3D3D3D91
:102DE2003D3D3D3D3D3D3D3D3D3D3D3D3D3D3D3D11
:102DF2003D3D3D3D3D3D3D3D3D3D3D3D3D3D3D3D01
:062E02003D3D3D0A0A00FF
:00000001FF
