:100000000C94BA000C94E2000C94E2000C94E20010
:100010000C94E2000C94E2000C94E2000C94E200D8
:100020000C94E2000C94E2000C94E2000C94E200C8
:100030000C94E2000C94E2000C94E2000C94E200B8
:100040000C94650E0C94E2000C94D50E0C94AF0E3B
:100050000C94E2000C94E2000C94E2000C94E20098
:100060000C94460D0C94E2000000000023002600D2
:10007000290032323A30343A303000417072203147
:100080003320323032310032323A30343A303000BC
:10009000417072203133203230323100444854787C
:1000A0007820556E69666965642053656E736F725A
:1000B000204578616D706C6500250048756D696438
:1000C0006974793A20004572726F722072656164BA
:1000D000696E672068756D6964697479210045727D
:1000E000726F722072656164696E672074656D70ED
:1000F0006572617475726521004572726F7220724B
:10010000656164696E672074656D70657261747590
:100110007265210000000000240027002A00000072
:100120000000250028002B0000000008000201004C
:1001300000030407000000000000000004040404A1
:100140000404040402020202020203030303030381
:10015000010204081020408001020408102001025E
:10016000040810201F1C1F1E1F1E1F1F1E1F1E0005
:10017000070FC81411241FBECFEFD8E0DEBFCDBFDC
:1001800013E0A0E0B1E0E6EBF3E302C005900D92CE
:10019000AE33B107D9F725E0AEE3B3E001C01D925D
:1001A000AF30B207E1F710E0C9EBD0E004C021970F
:1001B000FE010E94AF16C83BD107C9F70E9452103A
:1001C0000C94CE190C940000CF93DF93CDB7DEB71B
:1001D00028970FB6F894DEBF0FBECDBF88E0E1EDE3
:1001E000F4E0DE01119601900D928A95E1F72981E4
:1001F0003A814B815C816D817E818F8198852896C3
:100200000FB6F894DEBF0FBECDBFDF91CF9108953A
:1002100020917303260F3327331F21323105ECF46D
:100220002091E403FC0190E080E0243069F082E05A
:100230000895A09173032191AC014F5A5C4FA40F14
:10024000B52FB11D2C930196861798F380917303F7
:10025000680F6093730380E0089581E00895089526
:1002600008950895E0919D0380919C03E81730F470
:10027000F0E0E256FC4F808190E008958FEF9FEF11
:10028000089590919D0380919C032FEF3FEF981765
:1002900048F4E92FF0E0E256FC4F208130E09F5F08
:1002A00090939D03C901089580919C0390919D03B3
:1002B000891B990B0895CF92DF92EF92FF920F93D3
:1002C0001F93CF93DF937C01CB018A012091EA0336
:1002D000222389F0EB016B01C40ED51ECC15DD0580
:1002E00069F06991D701ED91FC910190F081E02DC9
:1002F000C7010995F3CF642F0E940801C801DF915F
:10030000CF911F910F91FF90EF90DF90CF900895C4
:10031000CF93DF931F92CDB7DEB769832091EA03B5
:100320002223F9F020910D04203258F021E030E032
:10033000FC013383228390E080E00F90DF91CF9126
:1003400008958091EB03E82FF0E0E451FC4F998190
:1003500090838F5F8093EB0380930D0481E090E0A6
:10036000ECCF61E0CE0101960E940801F7CF90E04A
:10037000FC01E85DFE4F2491FC01E05BFE4F3491EF
:10038000FC01E45CFE4FE491EE23C9F0222339F036
:10039000233001F1A8F4213019F1223029F1F0E0E5
:1003A000EE0FFF1FE25EFE4FA591B4918FB7F89458
:1003B000EC91611126C030953E233C938FBF089588
:1003C0002730A9F02830C9F0243049F78091800007
:1003D0008F7D03C0809180008F7780938000DFCF76
:1003E00084B58F7784BDDBCF84B58F7DFBCF8091C3
:1003F000B0008F778093B000D2CF8091B0008F7D16
:10040000F9CF3E2BDACF1092E40381E08093E3032F
:100410001092BE0361E082E10E94B70161E083E1D6
:100420000E94B701E9EBF0E080818E7F80838081BC
:100430008D7F808388E48093B80085E48093BC003E
:100440000895CF93DF9391E0909350038823B9F000
:10045000C091B800D091BA008091BC008A7B809393
:10046000BC0060E082E10E94B70160E083E10E948D
:10047000B7010E940302D093BA00C093B800DF9185
:10048000CF910895CF93DF9390E0FC01E05BFE4FA6
:100490002491845C9E4FFC0184918823C9F090E0F4
:1004A000880F991FFC01EC5EFE4FA591B491FC01F1
:1004B000E25EFE4FC591D49161110DC09FB7F894D3
:1004C0008C91209582238C938881282328839FBF39
:1004D000DF91CF910895623051F49FB7F8943C9129
:1004E000822F809583238C93E8812E2BEFCF8FB7BB
:1004F000F894EC912E2B2C938FBFEACF8E50806412
:1005000080937C0080917A00806480937A0080914F
:100510007A0086FDFCCF8091780090917900089553
:100520003FB7F89480914C0390914D03A0914E03F6
:10053000B0914F0326B5A89B05C02F3F19F0019637
:10054000A11DB11D3FBFBA2FA92F982F8827BC012D
:10055000CD01620F711D811D911D42E0660F771F55
:10056000881F991F4A95D1F70895CF92DF92EF9295
:10057000FF920F931F93CF93DF93D0910D0481E0EF
:10058000D13208F09CC0C0910C040E9490026B0113
:100590007C018091E40381116CC082E08093E403CC
:1005A00081E08093E3038FEF8093E2031092E103F5
:1005B000D093E003ACEEB3E0E0ECF3E080E0D813DE
:1005C0008DC01092BF038091BF03CC0FC82BC09386
:1005D000BF038091BE03813009F084C01092BE0336
:1005E0000E9490026B017C018091BF038093BB004D
:1005F0008091E6039091E703A091E803B091E903AD
:10060000892B8A2B8B2BA1F00E9490020091E6038C
:100610001091E7032091E8033091E9036C197D09FB
:100620008E099F09061717072807390708F442C0E3
:100630008091BC0083FDD8CF85EC8093BC000E94E4
:1006400090026B017C018091E403823009F44CC07C
:100650008091E2038F3F09F469C08091E203803208
:1006600009F466C08091E203803309F463C084E03A
:1006700026C08091E6039091E703A091E803B09132
:10068000E903892B8A2B8B2B09F483CF0E949002DC
:100690000091E6031091E7032091E8033091E9030C
:1006A0006C197D098E099F09061717072807390756
:1006B00008F06FCF8091E5030E94210285E010923F
:1006C000EB0310920D041092EA03DF91CF911F917A
:1006D0000F91FF90EF90DF90CF9008959D919193AF
:1006E0008F5F6DCF85EEA9CF8091E6039091E703F0
:1006F000A091E803B091E903892B8A2B8B2B09F495
:10070000A2CF0E9490020091E6031091E70320918E
:10071000E8033091E9036C197D098E099F090617DA
:1007200017072807390708F08ECFC4CF80E0C7CF5E
:1007300082E0C5CF83E0C3CFCF92DF92EF92FF92EA
:100740000F931F93CF93DF93D82FC62F613208F0FA
:1007500098C00E9490026B017C018091E40381119A
:100760006BC081E08093E4038093E3039FEF909359
:10077000E2031092E1039C0F9093E0038093BF0388
:100780008091BF03DD0FD82BD093BF038091BE03B0
:10079000813009F078C01092BE030E9490026B0174
:1007A0007C018091BF038093BB008091E603909110
:1007B000E703A091E803B091E903892B8A2B8B2BE7
:1007C000A1F00E9490020091E6031091E7032091AE
:1007D000E8033091E9036C197D098E099F0906171A
:1007E00017072807390708F448C08091BC0083FD2B
:1007F000D8CF85EC8093BC000E9490026B017C01F5
:100800008091E403813009F440C08091E1038C17AA
:1008100010F4C091E103E0ECF3E0AEE9B3E080E076
:100820008C1355C08C2FDF91CF911F910F91FF90AA
:10083000EF90DF90CF9008958091E6039091E703C9
:10084000A091E803B091E903892B8A2B8B2B09F443
:1008500084CF0E9490020091E6031091E70320915B
:10086000E8033091E9036C197D098E099F09061789
:1008700017072807390708F070CF8091E5030E9419
:100880002102C0E0CFCF85EEB5CF8091E6039091F5
:10089000E703A091E803B091E903892B8A2B8B2B06
:1008A00009F4AECF0E9490020091E6031091E70395
:1008B0002091E8033091E9036C197D098E099F09A5
:1008C000061717072807390708F09ACFD6CF919156
:1008D0009D938F5FA5CF8F929F92AF92BF92CF9241
:1008E000DF92EF92FF924B015C010E9490026B013C
:1008F0007C010E9490026C197D098E099F09683E57
:10090000734081059105A8F321E0821A9108A1089E
:10091000B10888EEC80E83E0D81EE11CF11C8114DA
:100920009104A104B10429F7FF90EF90DF90CF90DC
:10093000BF90AF909F908F900895AF92BF92CF924B
:10094000DF92EF92FF920F931F93CF93DF936C018F
:100950007B018B01040F151FEB015E01AE18BF0870
:10096000C017D10759F06991D601ED91FC91019022
:10097000F081E02DC6010995892B79F7C501DF913A
:10098000CF911F910F91FF90EF90DF90CF90BF908C
:10099000AF90089590E080E00895FC01538D448D60
:1009A000252F30E0842F90E0821B930B541710F01A
:1009B000CF96089501970895FC01918D828D981727
:1009C00061F0A28DAE0FBF2FB11D5D968C91928DFF
:1009D0009F5F9F73928F90E008958FEF9FEF089530
:1009E000FC01918D828D981731F0828DE80FF11DF9
:1009F000858D90E008958FEF9FEF0895FC01918D14
:100A0000228D892F90E0805C9F4F821B91098F730C
:100A1000992708958AE194E00E94FE0421E0892B41
:100A200009F420E0822F089580E090E0892B29F0DE
:100A30000E940A0581110C9400000895FC01A48D08
:100A4000A80FB92FB11DA35ABF4F2C91848D90E0F0
:100A500001968F739927848FA689B7892C93A089D3
:100A6000B1898C91837080648C93938D848D98135D
:100A700006C00288F389E02D80818F7D80830895F0
:100A8000EF92FF920F931F93CF93DF93EC0181E0DE
:100A9000888F9B8D8C8D98131AC0E889F989808185
:100AA00085FF15C09FB7F894EE89FF896083E889B8
:100AB000F98980818370806480839FBF81E090E0AA
:100AC000DF91CF911F910F91FF90EF900895F62E37
:100AD0000B8D10E00F5F1F4F0F731127E02E8C8DD1
:100AE0008E110CC00FB607FCFACFE889F989808116
:100AF00085FFF5CFCE010E941E05F1CFEB8DEC0FE7
:100B0000FD2FF11DE35AFF4FF0829FB7F8940B8F32
:100B1000EA89FB8980818062CFCF0F931F93CF93A7
:100B2000DF938C01D0E0C0E0F801EC0FFD1F649171
:100B3000662341F08AE194E00E944005892B11F080
:100B40002196F2CFCE01DF91CF911F910F910895A1
:100B5000CF93DF93EC01888D8823B9F0AA89BB89F4
:100B6000E889F9898C9185FD03C0808186FD0DC0DF
:100B70000FB607FCF7CF8C9185FFF2CF808185FF00
:100B8000EDCFCE010E941E05E9CFDF91CF910895F0
:100B9000FC01908190539A3008F090E0818180535D
:100BA0002AE0929F800D11240895DC0150E0E4E6D4
:100BB000F1E081E0861730F49491490F511D8F5F69
:100BC0003196F8CF633038F0CD0183709927892BA7
:100BD00011F44F5F5F4F9D012D5F3F4F3695279575
:100BE000369527956DE671E0A69FC001A79F900DF1
:100BF000B69F900D11240197820F931F840F951FAC
:100C00000895CF92DF92EF92FF92CF93DF93DC01B2
:100C10001796CC911797D0E06111DC2F18962C9184
:100C2000189730E0220F331F28593F4F50E040E023
:100C3000F90185919491FC01F080BA0190E080E087
:100C4000EF2DEC23ED1310C04F5F5F4F1D96CD903D
:100C5000DD90ED90FC9050976C157D058E059F05FD
:100C600038F36FEF7FEFCB01DF91CF91FF90EF90E3
:100C7000DF90CF9008958F929F92AF92BF92CF92C4
:100C8000DF92EF92FF920F931F93CF93DF93CDB735
:100C9000DEB7C054D1400FB6F894DEBF0FBECDBF53
:100CA0002FB7F894409198035091990360919A035B
:100CB00070919B032FBFFC0101851285238534852C
:100CC0006A017B01C01AD10AE20AF30A9701860180
:100CD000003D174021053105B0F4FC018189C05C5D
:100CE000DE4F0FB6F894DEBF0FBECDBFDF91CF91C0
:100CF0001F910F91FF90EF90DF90CF90BF90AF903A
:100D00009F908F9008958C01FC01418752876387E3
:100D100074871482138212821182108262E08581AC
:100D20000E94420261E070E080E090E00E946B046B
:100D300061E0F80185810E94420260E0F80185814E
:100D40000E94B701F80186818551823028F58BE237
:100D500091E10197F1F762E0F80185810E9442027A
:100D6000F801828990E08230910538F0880F991F50
:100D7000880F991F05970197F1F7F89460E0C80173
:100D80000E9401066F3F7F4F8F4F9F4F61F4F80124
:100D9000118A789480E0A3CF64E170E080E090E075
:100DA0000E946B04D8CF61E0C8010E9401066F3F2A
:100DB0007F4F8F4F9F4F59F3CE0101967C015E010B
:100DC0009FEBA91A9EEFB90A670160E0C8010E9473
:100DD0000106F601608371838283938361E0C80119
:100DE0000E940106F6016483758386839783F8E089
:100DF000CF0ED11CCA14DB0441F7789430E020E018
:100E0000F70180809180A280B38044815581668102
:100E10007781FFEF8F169F06AF06BF0631F04F3F79
:100E20008FEF58076807780719F4F801118AB2CFD5
:100E3000F90183E0F595E7958A95E1F7E00FF11F59
:100E40008081880F84169506A606B706F0F0808389
:100E50002F5F3F4FF8E0EF0EF11C2832310581F68D
:100E6000F801448120818181280F3327331F82813B
:100E7000280F311D8381820F932F911D99274817C9
:100E8000190699F681E0818B2ACF8160E0CFFC01C1
:100E900083898B3051F480E492E4AFE0B0E0FB0151
:100EA00084A395A3A6A3B7A3089580E894E8AEE130
:100EB000B0E0F5CF0895089581E08093EA0388E6D5
:100EC00080930C041092EB0310920D046FE08EE0FF
:100ED00094E00E9488010E94B50261E088E60E94C9
:100EE0009C0310929D0380939C038EE094E00E94EB
:100EF000410108951F93CF93DF93EC0181E080932C
:100F0000EA0388E680930C041092EB0310920D0420
:100F100060E08EE094E00E9488012D811AE0822F2B
:100F2000612F0E948F16682F660F680F660F620F81
:100F30008EE094E00E9488012C81822F612F0E9414
:100F40008F16682F660F680F660F620F8EE094E0B1
:100F50000E9488012B81822F612F0E948F16682F9B
:100F6000660F680F660F620F8EE094E00E948801A2
:100F700088814A81698190E00E94D505069667E0E4
:100F800070E00E949B16682F811101C067E08EE01F
:100F900094E00E9488012A811AE0822F612F0E942A
:100FA0008F16682F660F680F660F620F8EE094E051
:100FB0000E9488012981822F612F0E948F16682F3D
:100FC000660F680F660F620F8EE094E00E94880142
:100FD0002881822F612F0E948F16682F660F680F5D
:100FE000660F620F8EE094E00E9488010E94B502B5
:100FF0000E945C07C82F81E08093EA0388E6809313
:101000000C041092EB0310920D046FE08EE094E05C
:101010000E9488016C2F6F778EE094E00E94880117
:10102000DF91CF911F910C94B502FC01019000203B
:10103000E9F73197AF01481B590BBC018AE194E0F5
:101040000C949D04CF93DF930E948D05EC018AE9F7
:1010500091E00E9415088C0F9D1FDF91CF9108959C
:101060008F929F92AF92BF920F931F93CF93DF9374
:10107000CDB7DEB7A1970FB6F894DEBF0FBECDBFD8
:1010800019A2423008F44AE08E010F5D1F4F842EF2
:10109000912CB12CA12CA50194010E945E16E62F83
:1010A000B901CA01EA30F4F4E05DD801EE938D0194
:1010B000232B242B252B79F790E080E0109719F053
:1010C000CD010E941508A1960FB6F894DEBF0FBEA1
:1010D000CDBFDF91CF911F910F91BF90AF909F90A7
:1010E0008F900895E95CE1CFCF92DF92EF92FF926B
:1010F000CF93DF936C01990FEE08FF08F7FE1FC036
:101100006DE28AE194E00E944005EC0166277727B2
:10111000CB016C197D098E099F094AE00E943008B5
:10112000C80FD91F8AE991E00E9415088C0F9D1FF6
:10113000DF91CF91FF90EF90DF90CF9008954AE03C
:10114000C701B6010E943008EC01ECCFCF93DF93CA
:101150000E941508EC018AE991E00E9415088C0FA5
:101160009D1FDF91CF9108954F925F926F927F9272
:101170008F929F92AF92BF92CF92DF92EF92FF92A7
:101180000F931F93CF936B017C01742EAC019B01D5
:101190000E94C817882399F08DE991E0CF911F91A3
:1011A0000F91FF90EF90DF90CF90BF90AF909F9006
:1011B0008F907F906F905F904F900C941508460130
:1011C0005701E894B7F82FEF3FEF4FE75FE7C5010E
:1011D000B4010E94C81781110DC02FEF3FEF4FE7F8
:1011E0005FE7C501B4010E94D91418161CF481EA06
:1011F00091E0D4CF2FEF3FEF4FE75FE4C701B60197
:101200000E94C31718161CF485EA91E0C7CF2FEF90
:101210003FEF4FE75FECC701B6010E94D91487FD8D
:10122000F3CF20E030E0A901C701B6010E94D91434
:1012300010E000E087FF0AC06DE28AE194E00E94BE
:1012400040058C01F7FAF094F7F8F094C0E060E004
:1012500070E080E09FE37C1641F020E030E040E267
:1012600051E40E942217CF5FF6CFA70196010E949A
:10127000B6162B013C010E9494174B015C014AE019
:101280000E9430087C01E00EF11ECC23C1F1C501A3
:10129000B4010E94DE149B01AC01C301B2010E94A3
:1012A000B5164B015C016EE28AE194E00E944005B4
:1012B000E80EF91EC15018F120E030E040E251E4A0
:1012C000C501B4010E943F152B013C010E949417F7
:1012D0004B01B12CA12C4AE0C501B4010E94300899
:1012E000E80EF91EC501B4010E94DE149B01AC0199
:1012F000C301B2010E94B5164B015C01DBCFC701EF
:10130000CF911F910F91FF90EF90DF90CF90BF9002
:10131000AF909F908F907F906F905F904F900895C7
:1013200085ED8093BC008091E6039091E703A09146
:10133000E803B091E9030796A11DB11D23E0B6951E
:10134000A795979587952A95D1F72091BC0024FD04
:1013500003C01092E40308954091E6035091E7031F
:101360006091E8037091E903452B462B472B69F305
:101370000097A105B10541F025E32A95F1F700009A
:101380000197A109B109E1CF8091E5030C942102F5
:10139000FC0180819181009711F00C9469180895E7
:1013A0000C9469180C946918EF92FF920F931F9395
:1013B000CF93DF93EC017B018A01888199810097AB
:1013C00029F02A813B812417350788F4B8016F5F23
:1013D0007F4F0E94F218009791F0998388831B83B6
:1013E0000A832C813D81232B11F4FC0110821D8383
:1013F0000C83B701888199810E94B8190CC088813B
:101400009981009711F00E946918198218821D8233
:101410001C821B821A82CE01DF91CF911F910F9106
:10142000FF90EF900895CF93DF93EC01FB018617B7
:10143000970749F0608171816115710541F0448120
:1014400055810E94D409CE01DF91CF910895888102
:101450009981009711F00E946918198218821D82E3
:101460001C821B821A82EFCFFC0111821082138230
:10147000128215821482FB0101900020E9F7319756
:10148000AF01461B570B0C94D409EF92FF920F93B8
:101490001F93CF93DF93CDB7DEB72B970FB6F8949A
:1014A000DEBF0FBECDBF8C017A014BE050E0CE0114
:1014B00001960E94D014CE010A960E94C805F80138
:1014C0008083E981E154E33118F50E2E000CFF0B07
:1014D000E459F54F0C94AF16BA0A880A880ACE0A66
:1014E000880AB80A880A880A880A7F0A880A880A45
:1014F000C10ACC0ACA0A880A880A880AC80A8A81E4
:10150000813691F18B818E3689F187E0F8018183F4
:10151000CE0105960E94C805F801828348E050E09C
:10152000B701CE0101960E94D014CE0101960E940F
:10153000C805F8018383CE0104960E94C805F8010E
:101540008483CE0107960E94C805F80185832B96F7
:101550000FB6F894DEBF0FBECDBFDF91CF911F91C4
:101560000F91FF90EF90089581E0D0CF86E0CECF2D
:1015700082E0CCCF8B81823711F088E0C7CF84E046
:10158000C5CF8B81823711F085E0C0CF83E0BECF1D
:1015900089E0BCCF8AE0BACF8BE0B8CF8CE0B6CF81
:1015A000CF92DF92EF92FF920F931F93CF93DF932F
:1015B000EB01FB01349620E2DF011D922A95E9F749
:1015C00044E250E060E070E0488359836A837B83A3
:1015D000FC0145815681678170854C835D836E83F4
:1015E0007F834CE050E060E070E0488759876A876D
:1015F0007B872FB7F894409198035091990360919D
:101600009A0370919B032FBF488B598B6A8B7B8BFE
:1016100003811481C8010E943B06882349F0F80128
:1016200086818B3028F08D3040F08551823070F10A
:1016300060E070E080EC9FE71BC0618170E090E0AB
:1016400080E00E94E0142DEC3CEC4CEC5DE30E9449
:101650003F156B017C01F801608170E090E080E053
:101660000E94E0149B01AC01C701B6010E94B616AE
:101670006C8B7D8B8E8B9F8B81E0DF91CF911F9147
:101680000F91FF90EF90DF90CF900895608171816E
:1016900076276727762790E080E00E94DE142DEC05
:1016A0003CEC4CEC5DE30E943F15E2CF8F929F92A1
:1016B000AF92BF92EF92FF921F93CF93DF93EB0114
:1016C000FB01349620E2DF011D922A95E9F744E2FE
:1016D00050E060E070E0488359836A837B83FC01BB
:1016E00045815681678170854C835D836E837F83DE
:1016F0004DE050E060E070E0488759876A877B875B
:101700002FB7F894409198035091990360919A03F0
:1017100070919B032FBF488B598B6A8B7B8BE38027
:10172000F480C7010E943B06882341F0F7018681BF
:101730008C3009F455C038F48B30E1F060E070E093
:1017400080EC9FE73EC085518230C0F71281612F47
:1017500070E0762F662766277F778381682B90E07D
:1017600080E00E94DE142DEC3CEC4CEC5DE30E942A
:101770003F1551C0628170E090E080E00E94DE146D
:101780004B015C01F701138117FF0AC0AC019B01FB
:1017900060E070E080E89FEB0E94B5164B015C01B1
:1017A0001F70612F70E090E080E00E94E0142DEC4B
:1017B0003CEC4CEC5DE30E943F15A50194010E94B6
:1017C000B6166C8B7D8B8E8B9F8B81E0DF91CF91DA
:1017D0001F91FF90EF90BF90AF909F908F900895D2
:1017E0001281612F70E090E080E00E94DE144B01D6
:1017F0005C01F70163816F7070E090E080E00E940F
:10180000E0142DEC3CEC4CEC5DE30E943F15A5018F
:1018100094010E94B61617FFD4CF9058D2CFCF9321
:10182000DF93EB01FC0183894BE050E06FEA71E04C
:101830008C30C1F058F44BE050E069EA71E08B3035
:1018400089F04BE050E061EC71E00CC04BE050E0FF
:1018500065EB71E0853131F04BE050E06BEB71E00E
:10186000863179F7CE010E94BF191B86DF91CF9197
:1018700008950F931F93CF93DF938C01EB0188E2C0
:10188000DB011D928A95E9F7F801838194810E941A
:101890000F0C81E090E0A0E0B0E08C879D87AE87E0
:1018A000BF87F80185819681A781B085888B998B48
:1018B000AA8BBB8B8CE090E0A0E0B0E08C8B9D8B82
:1018C000AE8BBF8BBE01838194810E944707D801F4
:1018D0001396ED91FC9183898C3009F441C078F422
:1018E0008B3009F1188E198E1A8E1B8E1C8E1D8E50
:1018F0001E8E1F8E18A219A21AA21BA22CC08551DF
:10190000823080F780E090E0A8ECB2E4888F998F75
:10191000AA8FBB8F1C8E1D8E1E8E1F8E8DEC9CEC95
:10192000ACECBDE314C080E090E0A0EAB2E4888FA4
:10193000998FAA8FBB8F80E090E0A0EAB1E48C8FF2
:101940009D8FAE8FBF8F80E090E0A0EAB0E488A3C7
:1019500099A3AAA3BBA3DF91CF911F910F910895E3
:1019600080E090E0AEEBB2E4E2CF0F931F93CF9311
:10197000DF938C01EB0188E2DB011D928A95E9F788
:10198000F801838194810E940F0C81E090E0A0E037
:10199000B0E08C879D87AE87BF87F80185819681EF
:1019A000A781B085888B998BAA8BBB8B8DE090E04B
:1019B000A0E0B0E08C8B9D8BAE8BBF8BBE01838192
:1019C00094810E944707D8011396ED91FC91838979
:1019D0008C3091F178F48B30B1F0188E198E1A8E0C
:1019E0001B8E1C8E1D8E1E8E1F8E18A219A21AA26F
:1019F0001BA21DC08531A9F1863179F780E090E006
:101A0000AAEFB2E432C080E090E0A8E4B2E4888FAC
:101A1000998FAA8FBB8F1C8E1D8E1E8E1F8E80E00D
:101A200090E0A0E0B0E488A399A3AAA3BBA3DF91B0
:101A3000CF911F910F91089580E090E0A0E7B2E46C
:101A4000888F998FAA8FBB8F80E090E0A0EAB1ECDD
:101A50008C8F9D8FAE8FBF8F80E090E0A0E0BFE3C2
:101A6000E2CF80E090E0A0EAB2E4888F998FAA8F5D
:101A7000BB8F80E090E0A0E2B2EC8C8F9D8FAE8FA8
:101A8000BF8F8DEC9CECACECBDE3CDCF1F920F92E1
:101A90000FB60F9211242F933F934F935F936F9341
:101AA0007F938F939F93AF93BF93EF93FF93809117
:101AB000B900887F803609F44AC0F0F5883209F40D
:101AC000A7C018F5803109F49BC0B8F4882309F445
:101AD000F9C0883009F494C0FF91EF91BF91AF91A4
:101AE0009F918F917F916F915F914F913F912F9136
:101AF0000F900FBE0F901F901895883109F488C081
:101B0000803251F78093E20314C0803409F49DC001
:101B100040F48033B9F38833F9F68093E20385EC1F
:101B2000B0C0803509F485C0883509F496C0883482
:101B300099F60E949009D0CF883909F48CC038F505
:101B4000883729F050F4883611F0803729F683E081
:101B50008093E4031092970357C0883809F47BC040
:101B6000803919F0803809F0B7CF8091970380321F
:101B700008F071C0E091970381E08E0F8093970386
:101B80008091BB00F0E0E958FC4F80833DC0803B72
:101B900039F0E0F4803A09F479C0883A09F09CCF32
:101BA00084E08093E4031092740310927303E09135
:101BB0007103F091720309958091730381110FC035
:101BC00081E0809373031092510309C0803C09F4B3
:101BD000A6CF883C09F4A3CF883B09F07DCFE091E4
:101BE000740381E08E0F80937403F0E0EF5AFC4F92
:101BF00080818093BB00909174038091730329C00E
:101C00008091BF038093BB0085EC8093BC0064CFC0
:101C10009091E1038091E003981758F5E091E1037A
:101C200081E08E0F8093E103F0E0E054FC4F80816F
:101C3000E9CFE091E10381E08E0F8093E103809191
:101C4000BB00F0E0E054FC4F80839091E103809171
:101C5000E0039817C8F285E8D8CFE091E10381E06E
:101C60008E0F8093E1038091BB00F0E0E054FC4FC5
:101C700080838091E30381115CCF81E08093BE0378
:101C800084EA8093BC001092E40326CF85EC809315
:101C9000BC001092E40380919703803230F4E0910D
:101CA0009703F0E0E958FC4F10826091970370E0D1
:101CB000E0917503F091760387E793E00995109220
:101CC00097030ACF1092E20334CF1F920F920FB600
:101CD0000F9211242F933F938F939F93AF93BF93B2
:101CE0008091980390919903A0919A03B0919B03DE
:101CF00030914B0323E0230F2D3758F50196A11D9A
:101D0000B11D20934B038093980390939903A09364
:101D10009A03B0939B0380914C0390914D03A09143
:101D20004E03B0914F030196A11DB11D80934C034A
:101D300090934D03A0934E03B0934F03BF91AF9187
:101D40009F918F913F912F910F900FBE0F901F90F9
:101D5000189526E8230F0296A11DB11DD2CF1F9220
:101D60000F920FB60F9211242F933F934F935F93CF
:101D70006F937F938F939F93AF93BF93EF93FF9353
:101D80008AE194E00E941E05FF91EF91BF91AF910F
:101D90009F918F917F916F915F914F913F912F9183
:101DA0000F900FBE0F901F9018951F920F920FB6B5
:101DB0000F9211242F938F939F93EF93FF93E091B2
:101DC0002A04F0912B048081E0913004F0913104D9
:101DD00082FD1BC09081809133048F5F8F732091AF
:101DE0003404821741F0E0913304F0E0E65EFB4FEB
:101DF000958F80933304FF91EF919F918F912F9155
:101E00000F900FBE0F901F9018958081F4CFCF9345
:101E1000DF93CDB7DEB7AC970FB6F894DEBF0FBE39
:101E2000CDBF109211041092100488EE93E0A0E050
:101E3000B0E08093120490931304A0931404B09321
:101E400015042EE531E030930F0420930E04109218
:101E50001D0410921C0480931E0490931F04A093F1
:101E60002004B093210480E791E090931B048093B9
:101E70001A0485EC90E0909327048093260484EC68
:101E800090E0909329048093280480EC90E0909354
:101E90002B0480932A0481EC90E090932D0480938E
:101EA0002C0482EC90E090932F0480932E0486EC17
:101EB00090E0909331048093300410923304109298
:101EC0003404109235041092360410920A051092D0
:101ED00009051092080510920505E4E6F1E081E09D
:101EE0008C3051F09491823009F49F5F21E0280FEB
:101EF0003196992309F4D4C08093060581E080933C
:101F000007052FED34E08FE08093E4048BE08093AD
:101F1000E504EFE5F1E0E491E093E604EBE4F1E0C1
:101F2000E491E093E70440E85EE360E070E0409312
:101F3000EC045093ED046093EE047093EF048093EF
:101F4000F20480E991E09093F4048093F3043093D9
:101F5000F7042093F6048FEF9FEFDC018093F804E1
:101F60009093F904A093FA04B093FB0442E851E083
:101F70005093FD044093FC04309300052093FF042C
:101F80008093010590930205A0930305B093040587
:101F900069EA71E0CE0187960E94340A88E0E1EC9C
:101FA000F4E0DE01599601900D928A95E1F788E000
:101FB000E1ECF4E0DE01519601900D928A95E1F793
:101FC0001AA219A21CA21BA21EA21DA2BE01695D1B
:101FD0007F4FCE0181960E94130A88E0FE01799618
:101FE000DE01199601900D928A95E1F788E0FE01D5
:101FF0007196DE01119601900D928A95E1F768E0E5
:1020000073E089ED94E00E94340ABE016F5D7F4F5A
:1020100089ED94E00E94130A88E0FE013996A9EC4C
:10202000B4E001900D928A95E1F788E0FE013196C7
:10203000A1EDB4E001900D928A95E1F7CE01819671
:102040000E94C809CE0187960E94C80966EC71E01B
:10205000CE0181960E94340A68E073E08BEB94E035
:102060000E94340ABE016F5D7F4F8BEB94E00E94AB
:10207000130A8FEF9FEF9093B8048093B704909367
:10208000BA048093B904CE0181960E94C809AC9627
:102090000FB6F894DEBF0FBECDBFDF91CF9108958C
:1020A000822F1ECFCF93DF93CDB7DEB7CC59D109A6
:1020B0000FB6F894DEBF0FBECDBF789484B58260B2
:1020C00084BD84B5816084BD85B5826085BD85B5DC
:1020D000816085BD80916E00816080936E0010925A
:1020E00081008091810082608093810080918100D5
:1020F0008160809381008091800081608093800066
:102100008091B10084608093B1008091B0008160C3
:102110008093B00080917A00846080937A008091EF
:102120007A00826080937A0080917A008160809347
:102130007A0080917A00806880937A001092C100C2
:102140008FEF9FEF909346038093450310924403D3
:1021500085E090E090934303809342038CE990E004
:102160000E942208E0912A04F0912B0482E08083EF
:10217000E0912604F09127041082E0912804F09168
:1021800029048FEC808310923204E0912E04F091A8
:102190002F0486E08083E0912C04F0912D0480814F
:1021A00080618083E0912C04F0912D04808188600F
:1021B0008083E0912C04F0912D04808180688083DD
:1021C000E0912C04F0912D0480818F7D808362E06A
:1021D0008091E4040E9442022FB7F8948091980302
:1021E00090919903A0919A03B0919B032FBF805DBA
:1021F0009740A109B1098093E8049093E904A09362
:10220000EA04B093EB0487E38093F10461E08091EA
:1022100042030E94420260E084E00E944202109267
:102220009D0310929C031092EB0310920D040E94E8
:1022300003028FE291E0909372038093710380E335
:1022400091E0909376038093750381E08093EA0395
:1022500088E680930C040E94B5028111DFC20E94BF
:102260005C0790E0880F892F881F990B892B81F0DC
:1022700082EF91E00E94A60847E850E060E970E034
:10228000CE0101960E94450ACE0101960E947A076E
:1022900042E750E06BE770E0CE0101960E94450AEC
:1022A000CE0101960E947A07F9EC8F2EFCEF9F2E4B
:1022B000AA24AA94BA2C8EE00E947E029C01990F57
:1022C000440B550B2F5F334041095109A4E6B0E0A0
:1022D0000E941C162FE43CEF4FEF5FEF0E94FD15AC
:1022E000690130934A032093490380E10E947E02F2
:1022F0009C01990F440B550B2F5F33404109510945
:10230000A4E6B0E00E941C16A50194010E94FD15F0
:102310002901190181E08093EA0388E680930C0487
:102320001092EB0310920D0460E08EE094E00E94A6
:1023300088010E94B50267E088E60E949C03109223
:102340009D0380939C038EE094E00E9441018F776F
:10235000282F30E094E0359527959A95E1F7922F54
:10236000990F990F291B220F280FC656DF4F28837C
:10237000CA59D0408EE094E00E9441019C0144E0A3
:10238000359527954A95E1F72F703327922F990FAE
:10239000990F291B220F280FC556DF4F2883CB59D1
:1023A000D0408EE094E00E9441019C0154E03595BC
:1023B00027955A95E1F72F703327922F990F990F90
:1023C000291B220F280FC456DF4F2883CC59D04039
:1023D0008EE094E00E9441018EE094E00E94410171
:1023E0009C0164E0359527956A95E1F72F703327B6
:1023F000922F990F990F291B220F280FC856DF4FD4
:102400002883C859D0408EE094E00E9441019C018D
:1024100074E0359527957A95E1F72F703327922F41
:10242000990F990F291B220F280FC756DF4F2883BA
:10243000C959D0408EE094E00E9441019C01E4E043
:1024400035952795EA95E1F72F703327922F990F4D
:10245000990F291B220F820F80930505C756DF4F66
:102460009881C959D04090930605C856DF4F98818E
:10247000C859D04090930705C456DF4F9881CC5976
:10248000D04090930805C556DF4F9881CB59D04076
:1024900090930905C656DF4F9881CA59D040909352
:1024A0000A05C856DF4F4881C859D040C756DF4F8C
:1024B0006881C959D04090E00E94D505069667E032
:1024C00070E00E949B162CE0289FB001299F700DA0
:1024D000112460507F4FCE018E569F4F0E94340AC8
:1024E0008091F5048FA380E991E09EA38DA3809154
:1024F000F6049091F70499A788A78091F804909129
:10250000F904A091FA04B091FB048AA79BA7ACA799
:10251000BDA7BE016F5F7F4FCE0185960E94560B0F
:102520008091FE042C968FAF2C9782E891E02B9639
:102530009FAF8EAF2B978091FF04909100052E9650
:102540009FAF8EAF2E978091010590910205A091CB
:102550000305B091040562968CAF9DAFAEAFBFAFDF
:102560006297BE016B5D7F4FCE01875B9F4F0E94DC
:10257000D00A8091450390914603C816D906E9F028
:10258000D0924603C092450385E192E00E9415086F
:102590008091490390914A030E94740880914503F9
:1025A000909146034F970CF03EC161E08091420349
:1025B0000E94B70181E08093440380913E03909193
:1025C0003F032816390671F050923F0340923E03B4
:1025D0008AE292E00E94150880913E0390913F03A9
:1025E0000E947408CD88DE88EF88F88CA7019601D8
:1025F000C701B6010E94C817882309F41CC189EFDE
:1026000090E00E94220869AD7AAD8BAD9CAD9B0134
:10261000AC010E94C817811175C168E073E0CE015A
:10262000875B9F4F0E94340A46E050E06AE372E005
:10263000CE01875B9F4F0E94D4090E94E400AB96B5
:102640002FAFAB97AC963FAFAC97AD964FAFAD9772
:10265000AE965FAFAE97AF966FAFAF97E0967FAF96
:10266000E097E1968FAFE197E2969FAFE297AE9643
:10267000CCACDDACEEACFFACAE970E94E400A39610
:102680002FAFA397A4963FAFA497A5964FAFA5975A
:10269000A6965FAFA697A7966FAFA797A8967FAFAE
:1026A000A897A9968FAFA997AA969FAFAA974D888A
:1026B0005E886F88788CA3019201C701B6010E94E1
:1026C000D914C9ACDAACEBACFCAC811115C0A701D4
:1026D0009601AA966CAD7DAD8EAD9FADAA970E9476
:1026E000D914882309F44CC0A7019601C701B6018B
:1026F0000E94C817811144C081E492E00E94A6089C
:1027000083E792E00E9415082F964EAD5FAD2F979C
:102710002B966EAD7FAD2B978AE194E00E949D04CD
:102720008AE991E00E94150885E892E00E94150868
:1027300042E0C301B2010E94B4088AE992E00E941B
:10274000A6088BEB90E00E948D0542E0C701B60120
:102750000E94B40889EB90E00E94220820E030E05B
:1027600040E752E4C701B6010E94D91487FFC7C0F1
:102770008DE992E00E94150889E093E00E94A60886
:10278000CE01875B9F4F0E94C8090E94E400C65794
:10279000DF4F2883CA58D040C557DF4F3883CB5806
:1027A000D040C457DF4F4883CC58D040C357DF4F89
:1027B0005883CD58D040C257DF4F6883CE58D040A1
:1027C000C157DF4F7883CF58D040C057DF4F888341
:1027D000C059D040CF56DF4F9883C159D040C9ACC3
:1027E000DAACEBACFCACA7019601C257DF4F6881B5
:1027F00079818A819B81CE58D0400E94D914882348
:1028000009F484C0A7019601C701B6010E94C81748
:10281000882309F493C086EC90E076C089ED91E0BE
:102820000E94A608FFCF60E0809142030E94B7019A
:1028300010924403C2CE0E94E400CE57DF4F28839B
:10284000C258D040CD57DF4F3883C358D040CC5703
:10285000DF4F4883C458D040CB57DF4F5883C5580B
:10286000D040CA57DF4F6883C658D040C957DF4FA2
:102870007883C758D040C857DF4F8883C858D040A6
:10288000C757DF4F9883C958D040CE57DF4F2881B4
:1028900039814A815B81C258D040C701B6010E948C
:1028A000D914882309F4AFCE88E0E1EDF4E0DE012D
:1028B000AE58BF4F01900D928A95E1F788E0FE0176
:1028C000EE58FF4FDE01A658BF4F01900D928A953A
:1028D000E1F7EE962CAD3DAD4EAD5FADEE97C70185
:1028E000B6010E94D914882309F48DCEC092D10478
:1028F000D092D204E092D304F092D40484CE8DED31
:1029000092E038CF8EED90E00E94220868EE73E0EE
:1029100080E090E00E946B04CE018E569F4F0E9493
:10292000C80980E090E0892B09F4C5CC0E940A0513
:10293000882309F4B9CC0E940000B6CC88E0E1ED10
:10294000F4E0DE01AE5ABF4F01900D928A95E1F797
:1029500088E0FE01EE5AFF4FDE01A65ABF4F0190FC
:102960000D928A95E1F7A2962CAD3DAD4EAD5FADCF
:10297000A297C701B6010E94D914882339F2C092E8
:10298000D504D092D604E092D704F092D804BECFFA
:102990008BEB94E00E94C80989ED94E00C94C8097F
:1029A000FB01DC0102C005900D9241505040D8F768
:1029B00008950E941B1508F481E00895E89409C069
:1029C00097FB3EF490958095709561957F4F8F4F62
:1029D0009F4F9923A9F0F92F96E9BB279395F69578
:1029E000879577956795B795F111F8CFFAF4BB0FF6
:1029F00011F460FF1BC06F5F7F4F8F4F9F4F16C05A
:102A0000882311F096E911C0772321F09EE8872FE3
:102A1000762F05C0662371F096E8862F70E060E09F
:102A20002AF09A95660F771F881FDAF7880F969518
:102A3000879597F90895990F0008550FAA0BE0E8BC
:102A4000FEEF16161706E807F907C0F01216130670
:102A5000E407F50798F0621B730B840B950B39F4B0
:102A60000A2661F0232B242B252B21F408950A2616
:102A700009F4A140A6958FEF811D811D08950E9444
:102A800052150C94C3150E94B51538F00E94BC1560
:102A900020F0952311F00C94AC150C94B215112470
:102AA0000C94F7150E94D41570F3959FC1F3950F00
:102AB00050E0551F629FF001729FBB27F00DB11DC2
:102AC000639FAA27F00DB11DAA1F649F6627B00D52
:102AD000A11D661F829F2227B00DA11D621F739F3B
:102AE000B00DA11D621F839FA00D611D221F749F49
:102AF0003327A00D611D231F849F600D211D822F90
:102B0000762F6A2F11249F5750409AF0F1F08823B6
:102B10004AF0EE0FFF1FBB1F661F771F881F9150E3
:102B20005040A9F79E3F510580F00C94AC150C94D1
:102B3000F7155F3FE4F3983ED4F386957795679554
:102B4000B795F795E7959F5FC1F7FE2B880F911D0D
:102B50009695879597F9089597F99F6780E870E0B3
:102B600060E008959FEF80EC089500240A94161603
:102B7000170618060906089500240A94121613066B
:102B8000140605060895092E0394000C11F48823F9
:102B900052F0BB0F40F4BF2B11F460FF04C06F5F15
:102BA0007F4F8F4F9F4F089557FD9058440F551FEB
:102BB00059F05F3F71F04795880F97FB991F61F0BF
:102BC0009F3F79F087950895121613061406551F36
:102BD000F2CF4695F1DF08C0161617061806991FA2
:102BE000F1CF86957105610508940895E894BB2797
:102BF00066277727CB0197F90895052E97FB1EF4DA
:102C000000940E94141657FD07D00E945E1607FC20
:102C100003D04EF40C9414165095409530952195A0
:102C20003F4F4F4F5F4F08959095809570956195F8
:102C30007F4F8F4F9F4F08950E948016A59F900D44
:102C4000B49F900DA49F800D911D112408952F9283
:102C50003F924F925F926F927F928F929F92AF922C
:102C6000BF92CF92DF92EF92FF920F931F93CF9379
:102C7000DF93CDB7DEB7CA1BDB0B0FB6F894DEBF10
:102C80000FBECDBF09942A88398848885F846E8436
:102C90007D848C849B84AA84B984C884DF80EE8080
:102CA000FD800C811B81AA81B981CE0FD11D0FB689
:102CB000F894DEBF0FBECDBFED010895A1E21A2E3C
:102CC000AA1BBB1BFD010DC0AA1FBB1FEE1FFF1FD0
:102CD000A217B307E407F50720F0A21BB30BE40B20
:102CE000F50B661F771F881F991F1A9469F7609567
:102CF0007095809590959B01AC01BD01CF01089521
:102D0000A29FB001B39FC001A39F700D811D11242C
:102D1000911DB29F700D811D1124911D0895991B65
:102D200079E004C0991F961708F0961B881F7A95C2
:102D3000C9F780950895AA1BBB1B51E107C0AA1FC4
:102D4000BB1FA617B70710F0A61BB70B881F991F4C
:102D50005A95A9F780959095BC01CD010895EE0F85
:102D6000FF1F0590F491E02D09945058BB27AA2726
:102D70000E94CD160C94C3150E94B51538F00E9420
:102D8000BC1520F039F49F3F19F426F40C94B215C9
:102D90000EF4E095E7FB0C94AC15E92F0E94D415D6
:102DA00058F3BA17620773078407950720F079F480
:102DB000A6F50C94F6150EF4E0950B2EBA2FA02D67
:102DC0000B01B90190010C01CA01A0011124FF27D8
:102DD000591B99F0593F50F4503E68F11A16F040D3
:102DE000A22F232F342F4427585FF3CF46953795D2
:102DF0002795A795F0405395C9F77EF41F16BA0B97
:102E0000620B730B840BBAF09150A1F0FF0FBB1F44
:102E1000661F771F881FC2F70EC0BA0F621F731F8D
:102E2000841F48F4879577956795B795F7959E3FEA
:102E300008F0B0CF9395880F08F09927EE0F97957B
:102E4000879508950E9436170C94C3150E94BC15EF
:102E500058F00E94B51540F029F45F3F29F00C941A
:102E6000AC1551110C94F7150C94B2150E94D415A1
:102E700068F39923B1F3552391F3951B550BBB27A9
:102E8000AA2762177307840738F09F5F5F4F220FEE
:102E9000331F441FAA1FA9F335D00E2E3AF0E0E8E5
:102EA00032D091505040E695001CCAF72BD0FE2F2F
:102EB00029D0660F771F881FBB1F261737074807C3
:102EC000AB07B0E809F0BB0B802DBF01FF2793587B
:102ED0005F4F3AF09E3F510578F00C94AC150C947E
:102EE000F7155F3FE4F3983ED4F3869577956795A1
:102EF000B795F7959F5FC9F7880F911D96958795B0
:102F000097F90895E1E0660F771F881FBB1F6217CE
:102F100073078407BA0720F0621B730B840BBA0B8C
:102F2000EE1F88F7E09508950E94DC1588F09F5702
:102F300098F0B92F9927B751B0F0E1F0660F771FDD
:102F4000881F991F1AF0BA95C9F714C0B13091F0D3
:102F50000E94F615B1E008950C94F615672F782FAE
:102F60008827B85F39F0B93FCCF386957795679598
:102F7000B395D9F73EF490958095709561957F4F04
:102F80008F4F9F4F08950E941B1508F48FEF0895EF
:102F90000E941B15880B990B08950F931F93CF93D5
:102FA000DF938230910510F482E090E0E0910D050E
:102FB000F0910E0530E020E0B0E0A0E0309799F409
:102FC0002115310509F44AC0281B390B243031057D
:102FD000D8F58A819B816115710589F1FB01938385
:102FE0008283FE0111C04081518102811381481703
:102FF0005907E0F04817590799F4109761F01296B5
:103000000C93129713961C933296CF01DF91CF91B8
:103010001F910F91089500930D0510930E05F4CFA5
:103020002115310551F04217530738F0A901DB0192
:103030009A01BD01DF01F801C1CFEF01F9CF9093F3
:103040000E0580930D05CDCFFE01E20FF31F819396
:1030500091932250310939832883D7CF20910B05D2
:1030600030910C05232B41F42091560130915701EA
:1030700030930C0520930B0520915401309155019C
:103080002115310541F42DB73EB7409158015091BB
:103090005901241B350BE0910B05F0910C05E2174B
:1030A000F307A0F42E1B3F0B2817390778F0AC016B
:1030B0004E5F5F4F2417350748F04E0F5F1F509348
:1030C0000C0540930B05819391939FCFF0E0E0E0D6
:1030D0009CCFCF93DF930097E9F0FC0132971382E6
:1030E0001282A0910D05B0910E05ED0130E020E0B7
:1030F0001097A1F420813181820F931F20910B053D
:1031000030910C052817390709F061C0F0930C05C0
:10311000E0930B05DF91CF910895EA01CE17DF0709
:10312000E8F54A815B819E0141155105B1F7E9013E
:10313000FB83EA8349915991C40FD51FEC17FD0712
:1031400061F4808191810296840F951FE901998332
:103150008883828193819B838A83F0E0E0E01296EA
:103160008D919C9113970097B9F52D913C911197F2
:10317000CD010296820F931F20910B0530910C0513
:103180002817390739F6309751F510920E0510922D
:103190000D05B0930C05A0930B05BCCFD383C28360
:1031A00040815181840F951FC817D90761F44E5F84
:1031B0005F4F88819981480F591F518340838A81CD
:1031C0009B81938382832115310509F0B0CFF09361
:1031D0000E05E0930D059ECFFD01DC01C0CF1382EB
:1031E0001282D7CFB0E0A0E0E8EFF8E10C94291606
:1031F0008C01009751F4CB010E94CD178C01C801BE
:10320000CDB7DEB7E0E10C944516FC01E60FF71FE1
:103210009C0122503109E217F30708F49DC0D9013F
:10322000CD91DC911197C617D70798F0C530D1051D
:1032300030F3CE0104978617970708F3C61BD70B08
:103240002297C193D1936D937C93CF010E9469180B
:10325000D6CF5B01AC1ABD0A4C018C0E9D1EA0910D
:103260000D05B0910E05512C412CF12CE12C10973D
:1032700031F580910B0590910C058815990509F0A1
:103280005CC04616570608F058C0809154019091D2
:103290005501009741F48DB79EB740915801509168
:1032A0005901841B950BE817F90708F055C0F093F6
:1032B0000C05E0930B05F90171836083A0CF8D911C
:1032C0009C91119712966C90129713967C9013977D
:1032D000A815B90559F56C0142E0C40ED11CCA14F9
:1032E000DB0420F1AC014A195B09DA01129615974B
:1032F00080F06282738251834083D9016D937C9305
:10330000E114F10471F0D7011396FC93EE93129738
:1033100076CF22968C0F9D1FF90191838083F30154
:10332000EFCFF0930E05E0930D0569CF48165906CF
:1033300008F42C017D01D3019ACFCB010E94CD1757
:103340007C01009749F0AE01B8010E94AF19C80195
:103350000E946918870153CF10E000E050CFFB01B5
:10336000DC0102C001900D9241505040D8F7089501
:10337000FB01DC0101900D920020E1F70895FB01B3
:10338000DC014150504048F001900D920020C9F7F7
:1033900001C01D9241505040E0F7089510E0C9EB84
:1033A000D0E004C0FE010E94AF162196CA3BD107AF
:0633B000C9F7F894FFCFFD
:1033B60053756E0000000000000000004D6F6E00A7
:1033C60000000000000000005475650000000000C9
:1033D60000000000576564000000000000000000C7
:1033E6005468750000000000000000004672690085
:1033F600000000000000000053617400000000009F
:103406000000000000000F05800000000000880199
:103416005B01CA0431015401410132010000000080
:1034260040059D04CD04A805FE04DC04F00400005C
:1034360000005A07D0095B07D00A390C00000000CB
:103446005A07D2095B07560BB50C0D0A006E616E62
:1034560000696E66006F7666004448543131004458
:1034660048543132004448543231004448543232D0
:10347600004448543F0073756E6C696768745F69F1
:103486006E74656E7369747900436F756C646E272C
:10349600742066696E6420525443204D6F64756CC7
:1034A6006500525443206C6F737420706F77657299
:1034B6002C206C65747320736574207468652074A1
:1034C600696D65210053756E6C6967687420696E55
:1034D60074656E736974793A2000536F696C204D78
:1034E6006F6973747572653A2000496E7369646515
:1034F600003D3D3D3D3D3D3D3D3D3D3D3D3D3D3D33
:103506003D3D3D3D3D3D3D3D3D3D3D3D3D3D3D3DE5
:103516003D3D3D3D3D3D3D3D3D3D3D3D3D3D3D3DD5
:103526003D3D0044485431312C20504F53495449B5
:103536004F4E3A20000A6576656E742E74656D707E
:10354600657261747572653A20002043000A4B412A
:103556004D49204D454D42555455484B414E204B03
:10356600454C454D424142414E2055444152412130
:1035760020534952414D2054414E414D414E204920
:103586004E4920534547455241210A0A000A4B41FC
:103596004D4920544944414B204D454D42555455C3
:1035A600484B414E204B454C454D424142414E20F1
:1035B6005544415241210A0A003D3D3D3D3D3D3DB8
:1035C6003D3D3D3D3D3D3D3D3D3D3D3D3D3D3D3D25
:1035D6003D3D3D3D3D3D3D3D3D3D3D3D3D3D3D3D15
:0E35E6003D3D3D3D3D3D3D3D3D3D0A0A000061
:00000001FF
