:100000000C94AC000C94D4000C94D4000C94D40048
:100010000C94D4000C94D4000C94D4000C94D40010
:100020000C94D4000C94D4000C94D4000C94D40000
:100030000C94D4000C94D4000C94D4000C94D400F0
:100040000C94010E0C94D4000C94710E0C944B0E75
:100050000C94D4000C94D4000C94D4000C94D400D0
:100060000C94E20C0C94D400000000002300260045
:10007000290031373A33373A313700417072203135
:100080003320323032310031373A33373A313700AA
:10009000417072203133203230323100444854787C
:1000A0007820556E69666965642053656E736F725A
:1000B000204578616D706C65004572726F722072B8
:1000C000656164696E672068756D6964697479211A
:1000D00000250048756D69646974793A200045729D
:1000E000726F722072656164696E672074656D70ED
:1000F000657261747572652100000000002400279C
:10010000002A0000000000250028002B000000004D
:1001100008000201000003040700000000000000C6
:1001200000040404040404040402020202020203A0
:1001300003030303030102040810204080010204AA
:100140000810200102040810201F1C1F1E1F1E1F64
:100150001F1E1F1EA30E991311241FBECFEFD8E040
:10016000DEBFCDBF13E0A0E0B1E0E0E5F1E302C007
:1001700005900D92A631B107D9F724E0A6E1B3E0CE
:1001800001C01D92AD3DB207E1F710E0CBEAD0E02F
:1001900004C02197FE010E947C15CA3AD107C9F715
:1001A0000E9400100C949B180C94000020914B03AB
:1001B000260F3327331F21323105ECF42091BC0385
:1001C000FC0190E080E0243069F082E00895A09185
:1001D0004B032191AC01475D5C4FA40FB52FB11DBE
:1001E0002C930196861798F380914B03680F6093C8
:1001F0004B0380E0089581E00895089508950895DF
:10020000E091750380917403E81730F4F0E0EA5848
:10021000FC4F808190E008958FEF9FEF08959091BB
:100220007503809174032FEF3FEF981748F4E92F7F
:10023000F0E0EA58FC4F208130E09F5F9093750317
:10024000C90108958091740390917503891B990BDE
:100250000895CF92DF92EF92FF920F931F93CF9367
:10026000DF937C01CB018A012091C203222389F014
:10027000EB016B01C40ED51ECC15DD0569F069914B
:10028000D701ED91FC910190F081E02DC701099516
:10029000F3CF642F0E94D600C801DF91CF911F9148
:1002A0000F91FF90EF90DF90CF900895CF93DF9361
:1002B0001F92CDB7DEB769832091C2032223F9F0E4
:1002C0002091E503203258F021E030E0FC01338337
:1002D000228390E080E00F90DF91CF91089580918C
:1002E000C303E82FF0E0EC53FC4F998190838F5FBC
:1002F0008093C3038093E50381E090E0ECCF61E05D
:10030000CE0101960E94D600F7CF90E0FC01E35F9A
:10031000FE4F2491FC01EB5CFE4F3491FC01EF5D3C
:10032000FE4FE491EE23C9F0222339F0233001F18E
:10033000A8F4213019F1223029F1F0E0EE0FFF1F6F
:10034000ED5FFE4FA591B4918FB7F894EC916111D8
:1003500026C030953E233C938FBF08952730A9F0E7
:100360002830C9F0243049F7809180008F7D03C088
:10037000809180008F7780938000DFCF84B58F7766
:1003800084BDDBCF84B58F7DFBCF8091B0008F77AC
:100390008093B000D2CF8091B0008F7DF9CF3E2BFB
:1003A000DACF1092BC0381E08093BB0310929603D6
:1003B00061E082E10E94850161E083E10E948501A4
:1003C000E9EBF0E080818E7F808380818D7F808368
:1003D00088E48093B80085E48093BC000895CF93AF
:1003E000DF9391E0909328038823B9F0C091B8007F
:1003F000D091BA008091BC008A7B8093BC0060E001
:1004000082E10E94850160E083E10E9485010E94F3
:10041000D101D093BA00C093B800DF91CF91089575
:10042000CF93DF9390E0FC01EB5CFE4F24918F5D56
:100430009E4FFC0184918823C9F090E0880F991F9A
:10044000FC01E750FF4FA591B491FC01ED5FFE4F19
:10045000C591D49161110DC09FB7F8948C912095EE
:1004600082238C938881282328839FBFDF91CF919B
:100470000895623051F49FB7F8943C91822F809593
:1004800083238C93E8812E2BEFCF8FB7F894EC91D8
:100490002E2B2C938FBFEACF8E50806480937C00EC
:1004A00080917A00806480937A0080917A0086FD42
:1004B000FCCF809178009091790008953FB7F8942F
:1004C0008091240390912503A0912603B0912703E6
:1004D00026B5A89B05C02F3F19F00196A11DB11D9F
:1004E0003FBFBA2FA92F982F8827BC01CD01620FDB
:1004F000711D811D911D42E0660F771F881F991F96
:100500004A95D1F70895CF92DF92EF92FF920F9321
:100510001F93CF93DF93D091E50381E0D13208F0B0
:100520009CC0C091E4030E945E026B017C0180913B
:10053000BC0381116CC082E08093BC0381E0809396
:10054000BB038FEF8093BA031092B903D093B80323
:10055000A4ECB3E0E8E9F3E080E0D8138DC010929A
:10056000970380919703CC0FC82BC093970380917A
:100570009603813009F084C0109296030E945E02B7
:100580006B017C01809197038093BB008091BE0337
:100590009091BF03A091C003B091C103892B8A2B16
:1005A0008B2BA1F00E945E020091BE031091BF034D
:1005B0002091C0033091C1036C197D098E099F09F8
:1005C000061717072807390708F442C08091BC00B6
:1005D00083FDD8CF85EC8093BC000E945E026B0146
:1005E0007C018091BC03823009F44CC08091BA0335
:1005F0008F3F09F469C08091BA03803209F466C064
:100600008091BA03803309F463C084E026C08091EE
:10061000BE039091BF03A091C003B091C103892B89
:100620008A2B8B2B09F483CF0E945E020091BE03BC
:100630001091BF032091C0033091C1036C197D0953
:100640008E099F09061717072807390708F06FCF8B
:100650008091BD030E94EF0185E01092C3031092C8
:10066000E5031092C203DF91CF911F910F91FF908C
:10067000EF90DF90CF9008959D9191938F5F6DCF14
:1006800085EEA9CF8091BE039091BF03A091C003D6
:10069000B091C103892B8A2B8B2B09F4A2CF0E9426
:1006A0005E020091BE031091BF032091C003309100
:1006B000C1036C197D098E099F09061717072807C2
:1006C000390708F08ECFC4CF80E0C7CF82E0C5CF16
:1006D00083E0C3CFCF92DF92EF92FF920F931F93ED
:1006E000CF93DF93D82FC62F613208F098C00E94B5
:1006F0005E026B017C018091BC0381116BC081E0C3
:100700008093BC038093BB039FEF9093BA03109236
:10071000B9039C0F9093B80380939703809197033C
:10072000DD0FD82BD093970380919603813009F089
:1007300078C0109296030E945E026B017C0180914A
:1007400097038093BB008091BE039091BF03A0915B
:10075000C003B091C103892B8A2B8B2BA1F00E947F
:100760005E020091BE031091BF032091C00330913F
:10077000C1036C197D098E099F0906171707280701
:10078000390708F448C08091BC0083FDD8CF85ECC0
:100790008093BC000E945E026B017C018091BC03CF
:1007A000813009F440C08091B9038C1710F4C091D6
:1007B000B903E8E9F3E0A6E7B3E080E08C1355C0A5
:1007C0008C2FDF91CF911F910F91FF90EF90DF90D1
:1007D000CF9008958091BE039091BF03A091C00374
:1007E000B091C103892B8A2B8B2B09F484CF0E94F3
:1007F0005E020091BE031091BF032091C0033091AF
:10080000C1036C197D098E099F0906171707280770
:10081000390708F070CF8091BD030E94EF01C0E05E
:10082000CFCF85EEB5CF8091BE039091BF03A0914D
:10083000C003B091C103892B8A2B8B2B09F4AECF57
:100840000E945E020091BE031091BF032091C0037D
:100850003091C1036C197D098E099F09061717078E
:100860002807390708F09ACFD6CF91919D938F5FD3
:10087000A5CF8F929F92AF92BF92CF92DF92EF92CD
:10088000FF924B015C010E945E026B017C010E94A1
:100890005E026C197D098E099F09683E73408105CF
:1008A0009105A8F321E0821A9108A108B10888EE09
:1008B000C80E83E0D81EE11CF11C81149104A10430
:1008C000B10429F7FF90EF90DF90CF90BF90AF90E9
:1008D0009F908F900895AF92BF92CF92DF92EF9248
:1008E000FF920F931F93CF93DF936C017B018B01DA
:1008F000040F151FEB015E01AE18BF08C017D1072A
:1009000059F06991D601ED91FC910190F081E02DB3
:10091000C6010995892B79F7C501DF91CF911F9108
:100920000F91FF90EF90DF90CF90BF90AF90089520
:1009300090E080E00895FC01538D448D252F30E038
:10094000842F90E0821B930B541710F0CF960895DC
:1009500001970895FC01918D828D981761F0A28D09
:10096000AE0FBF2FB11D5D968C91928D9F5F9F73CF
:10097000928F90E008958FEF9FEF0895FC01918D85
:10098000828D981731F0828DE80FF11D858D90E0F2
:1009900008958FEF9FEF0895FC01918D228D892F8F
:1009A00090E0805C9F4F821B91098F739927089577
:1009B00082EF93E00E94CC0421E0892B09F420E02F
:1009C000822F089580E090E0892B29F00E94D804BE
:1009D00081110C9400000895FC01A48DA80FB92F7B
:1009E000B11DA35ABF4F2C91848D90E001968F7357
:1009F0009927848FA689B7892C93A089B1898C9176
:100A0000837080648C93938D848D981306C00288C4
:100A1000F389E02D80818F7D80830895EF92FF928E
:100A20000F931F93CF93DF93EC0181E0888F9B8D11
:100A30008C8D98131AC0E889F989808185FF15C0CB
:100A40009FB7F894EE89FF896083E889F9898081EE
:100A50008370806480839FBF81E090E0DF91CF91BD
:100A60001F910F91FF90EF900895F62E0B8D10E0DF
:100A70000F5F1F4F0F731127E02E8C8D8E110CC04E
:100A80000FB607FCFACFE889F989808185FFF5CF99
:100A9000CE010E94EC04F1CFEB8DEC0FFD2FF11D88
:100AA000E35AFF4FF0829FB7F8940B8FEA89FB89D6
:100AB00080818062CFCF0F931F93CF93DF938C0100
:100AC000D0E0C0E0F801EC0FFD1F6491662341F017
:100AD00082EF93E00E940E05892B11F02196F2CF50
:100AE000CE01DF91CF911F910F910895CF93DF93A6
:100AF000EC01888D8823B9F0AA89BB89E889F98936
:100B00008C9185FD03C0808186FD0DC00FB607FC6A
:100B1000F7CF8C9185FFF2CF808185FFEDCFCE019D
:100B20000E94EC04E9CFDF91CF910895FC01908100
:100B300090539A3008F090E0818180532AE0929F90
:100B4000800D11240895DC0150E0E9E4F1E081E03A
:100B5000861730F49491490F511D8F5F3196F8CF6D
:100B6000633038F0CD0183709927892B11F44F5FE2
:100B70005F4F9D012D5F3F4F369527953695279501
:100B80006DE671E0A69FC001A79F900DB69F900DE6
:100B900011240197820F931F840F951F0895CF9200
:100BA000DF92EF92FF92CF93DF93DC011796CC9107
:100BB0001797D0E06111DC2F18962C91189730E030
:100BC000220F331F28593F4F50E040E0F901859133
:100BD0009491FC01F080BA0190E080E0EF2DEC23CD
:100BE000ED1310C04F5F5F4F1D96CD90DD90ED90DF
:100BF000FC9050976C157D058E059F0538F36FEFBF
:100C00007FEFCB01DF91CF91FF90EF90DF90CF90FE
:100C100008958F929F92AF92BF92CF92DF92EF9200
:100C2000FF920F931F93CF93DF93CDB7DEB7C054DE
:100C3000D1400FB6F894DEBF0FBECDBF2FB7F894EA
:100C4000409170035091710360917203709173032E
:100C50002FBFFC0101851285238534856A017B0144
:100C6000C01AD10AE20AF30A97018601003D174033
:100C700021053105B0F4FC018189C05CDE4F0FB65F
:100C8000F894DEBF0FBECDBFDF91CF911F910F91C2
:100C9000FF90EF90DF90CF90BF90AF909F908F909C
:100CA00008958C01FC014187528763877487148201
:100CB000138212821182108262E085810E941002EA
:100CC00061E070E080E090E00E94390461E0F801AA
:100CD00085810E94100260E0F80185810E948501F3
:100CE000F80186818551823028F58BE291E10197E8
:100CF000F1F762E0F80185810E941002F801828913
:100D000090E08230910538F0880F991F880F991F65
:100D100005970197F1F7F89460E0C8010E94CF05AC
:100D20006F3F7F4F8F4F9F4F61F4F801118A789486
:100D300080E0A3CF64E170E080E090E00E9439049D
:100D4000D8CF61E0C8010E94CF056F3F7F4F8F4F22
:100D50009F4F59F3CE0101967C015E019FEBA91ACA
:100D60009EEFB90A670160E0C8010E94CF05F60155
:100D7000608371838283938361E0C8010E94CF0501
:100D8000F6016483758386839783F8E0CF0ED11CC8
:100D9000CA14DB0441F7789430E020E0F70180804A
:100DA0009180A280B3804481558166817781FFEF75
:100DB0008F169F06AF06BF0631F04F3F8FEF5807E3
:100DC0006807780719F4F801118AB2CFF90183E0B6
:100DD000F595E7958A95E1F7E00FF11F8081880F7F
:100DE00084169506A606B706F0F080832F5F3F4F66
:100DF000F8E0EF0EF11C2832310581F6F80144814C
:100E000020818181280F3327331F8281280F311DD4
:100E10008381820F932F911D99274817190699F600
:100E200081E0818B2ACF8160E0CFFC0183898B3008
:100E300051F480E492E4AFE0B0E0FB0184A395A319
:100E4000A6A3B7A3089580E894E8AEE1B0E0F5CF9B
:100E50000895089581E08093C20388E68093E403B7
:100E60001092C3031092E5036FE086EE93E00E94B8
:100E700056010E94830261E088E60E946A03109294
:100E800075038093740386EE93E00E940F0108952A
:100E90001F93CF93DF93EC0181E08093C20388E638
:100EA0008093E4031092C3031092E50360E086EEA2
:100EB00093E00E9456012D811AE0822F612F0E943B
:100EC0005C15682F660F680F660F620F86EE93E061
:100ED0000E9456012C81822F612F0E945C15682F81
:100EE000660F680F660F620F86EE93E00E94560150
:100EF0002B81822F612F0E945C15682F660F680F6F
:100F0000660F620F86EE93E00E94560188814A8147
:100F1000698190E00E94A305069667E070E00E9458
:100F20006815682F811101C067E086EE93E00E948A
:100F300056012A811AE0822F612F0E945C15682FCA
:100F4000660F680F660F620F86EE93E00E945601EF
:100F50002981822F612F0E945C15682F660F680F10
:100F6000660F620F86EE93E00E9456012881822F61
:100F7000612F0E945C15682F660F680F660F620F65
:100F800086EE93E00E9456010E9483020E942A0787
:100F9000C82F81E08093C20388E68093E403109217
:100FA000C3031092E5036FE086EE93E00E945601C2
:100FB0006C2F6F7786EE93E00E945601DF91CF9100
:100FC0001F910C948302FC0101900020E9F73197F6
:100FD000AF01481B590BBC0182EF93E00C946B04EA
:100FE0008F929F92AF92BF920F931F93CF93DF93F5
:100FF000CDB7DEB7A1970FB6F894DEBF0FBECDBF59
:1010000019A2423008F44AE08E010F5D1F4F842E72
:10101000912CB12CA12CA50194010E942B15E62F37
:10102000B901CA01EA30F4F4E05DD801EE938D0114
:10103000232B242B252B79F790E080E0109719F0D3
:10104000CD010E94E307A1960FB6F894DEBF0FBE54
:10105000CDBFDF91CF911F910F91BF90AF909F9027
:101060008F900895E95CE1CFCF93DF930E94E3076F
:10107000EC018AE991E00E94E3078C0F9D1FDF914C
:10108000CF910895CF93DF930E945B05EC018AE92D
:1010900091E00E94E3078C0F9D1FDF91CF9108958F
:1010A0004F925F926F927F928F929F92AF92BF9278
:1010B000CF92DF92EF92FF920F931F93CF936B012A
:1010C0007C01742EAC019B010E949516882399F037
:1010D0008DE991E0CF911F910F91FF90EF90DF90FC
:1010E000CF90BF90AF909F908F907F906F905F90C8
:1010F0004F900C94E30746015701E894B7F82FEF9F
:101100003FEF4FE75FE7C501B4010E9495168111DB
:101110000DC02FEF3FEF4FE75FE7C501B4010E941D
:10112000A61318161CF481EA91E0D4CF2FEF3FEFFD
:101130004FE75FE4C701B6010E94901618161CF431
:1011400085EA91E0C7CF2FEF3FEF4FE75FECC70194
:10115000B6010E94A61387FDF3CF20E030E0A9017D
:10116000C701B6010E94A61310E000E087FF0AC085
:101170006DE282EF93E00E940E058C01F7FAF09485
:10118000F7F8F094C0E060E070E080E09FE37C1648
:1011900041F020E030E040E251E40E94EF15CF5FE3
:1011A000F6CFA70196010E9483152B013C010E94F6
:1011B00061164B015C014AE00E94F0077C01E00EE1
:1011C000F11ECC23C1F1C501B4010E94AB139B01F8
:1011D000AC01C301B2010E9482154B015C016EE2B9
:1011E00082EF93E00E940E05E80EF91EC15018F13F
:1011F00020E030E040E251E4C501B4010E940C144B
:101200002B013C010E9461164B01B12CA12C4AE03C
:10121000C501B4010E94F007E80EF91EC501B40132
:101220000E94AB139B01AC01C301B2010E94821565
:101230004B015C01DBCFC701CF911F910F91FF9054
:10124000EF90DF90CF90BF90AF909F908F907F9066
:101250006F905F904F900895CF92DF92EF92FF9240
:10126000CF93DF936C01990FEE08FF08F7FE1FC0C4
:101270006DE282EF93E00E940E05EC01662777276E
:10128000CB016C197D098E099F094AE00E94F00785
:10129000C80FD91F8AE991E00E94E3078C0F9D1FB8
:1012A000DF91CF91FF90EF90DF90CF9008954AE0CB
:1012B000C701B6010E94F007EC01ECCFFC01808170
:1012C0009181009711F00C94361708950C943617FD
:1012D0000C94361785ED8093BC008091BE039091ED
:1012E000BF03A091C003B091C1030796A11DB11D1A
:1012F00023E0B695A795979587952A95D1F72091E4
:10130000BC0024FD03C01092BC0308954091BE03AD
:101310005091BF036091C0037091C103452B462BD0
:10132000472B69F30097A105B10541F025E32A9504
:10133000F1F700000197A109B109E1CF8091BD0348
:101340000C94EF01EF92FF920F931F93CF93DF93D3
:10135000EC017B018A0188819981009729F02A811B
:101360003B812417350788F4B8016F5F7F4F0E94D7
:10137000BF17009791F0998388831B830A832C8180
:101380003D81232B11F4FC0110821D830C83B701D6
:10139000888199810E9485180CC088819981009765
:1013A00011F00E943617198218821D821C821B823E
:1013B0001A82CE01DF91CF911F910F91FF90EF9094
:1013C0000895EF92FF920F931F93CF93DF93CDB7C2
:1013D000DEB72B970FB6F894DEBF0FBECDBF8C01E2
:1013E0007A014BE050E0CE0101960E949D13CE01A0
:1013F0000A960E949605F8018083E981E154E33161
:1014000018F50E2E000CFF0BE85FF54F0C947C15C1
:10141000560A240A240A6A0A240A540A240A240AB4
:10142000240A1B0A240A240A5D0A680A660A240A96
:10143000240A240A640A8A81813691F18B818E36CE
:1014400089F187E0F8018183CE0105960E94960517
:10145000F801828348E050E0B701CE0101960E9476
:101460009D13CE0101960E949605F8018383CE015B
:1014700004960E949605F8018483CE0107960E9487
:101480009605F80185832B960FB6F894DEBF0FBE44
:10149000CDBFDF91CF911F910F91FF90EF900895F5
:1014A00081E0D0CF86E0CECF82E0CCCF8B81823777
:1014B00011F088E0C7CF84E0C5CF8B81823711F06F
:1014C00085E0C0CF83E0BECF89E0BCCF8AE0BACF51
:1014D0008BE0B8CF8CE0B6CFCF92DF92EF92FF9245
:1014E0000F931F93CF93DF93EB01FB01349620E220
:1014F000DF011D922A95E9F744E250E060E070E0D8
:10150000488359836A837B83FC01458156816781C7
:1015100070854C835D836E837F834CE050E060E098
:1015200070E0488759876A877B872FB7F894409186
:1015300070035091710360917203709173032FBF18
:10154000488B598B6A8B7B8B03811481C8010E9465
:101550000906882349F0F80186818B3028F08D3008
:1015600040F08551823070F160E070E080EC9FE7E0
:101570001BC0618170E090E080E00E94AD132DEC13
:101580003CEC4CEC5DE30E940C146B017C01F80117
:10159000608170E090E080E00E94AD139B01AC019F
:1015A000C701B6010E9483156C8B7D8B8E8B9F8B40
:1015B00081E0DF91CF911F910F91FF90EF90DF902D
:1015C000CF9008956081718176276727762790E014
:1015D00080E00E94AB132DEC3CEC4CEC5DE30E94F0
:1015E0000C14E2CF8F929F92AF92BF92EF92FF9234
:1015F0001F93CF93DF93EB01FB01349620E2DF01D1
:101600001D922A95E9F744E250E060E070E04883DB
:1016100059836A837B83FC0145815681678170858C
:101620004C835D836E837F834DE050E060E070E02B
:10163000488759876A877B872FB7F8944091700352
:101640005091710360917203709173032FBF488BA7
:10165000598B6A8B7B8BE380F480C7010E9409065B
:10166000882341F0F70186818C3009F455C038F4A5
:101670008B30E1F060E070E080EC9FE73EC0855188
:101680008230C0F71281612F70E0762F66276627BF
:101690007F778381682B90E080E00E94AB132DEC74
:1016A0003CEC4CEC5DE30E940C1451C0628170E094
:1016B00090E080E00E94AB134B015C01F7011381C5
:1016C00017FF0AC0AC019B0160E070E080E89FEB6F
:1016D0000E9482154B015C011F70612F70E090E049
:1016E00080E00E94AD132DEC3CEC4CEC5DE30E94DD
:1016F0000C14A50194010E9483156C8B7D8B8E8B3D
:101700009F8B81E0DF91CF911F91FF90EF90BF9071
:10171000AF909F908F9008951281612F70E090E0BC
:1017200080E00E94AB134B015C01F70163816F7095
:1017300070E090E080E00E94AD132DEC3CEC4CECAE
:101740005DE30E940C14A50194010E94831517FF0C
:10175000D4CF9058D2CFCF93DF93EB01FC01838994
:101760004BE050E06FEA71E08C30C1F058F44BE090
:1017700050E069EA71E08B3089F04BE050E061ECB9
:1017800071E00CC04BE050E065EB71E0853131F069
:101790004BE050E06BEB71E0863179F7CE010E94AF
:1017A0008C181B86DF91CF9108950F931F93CF93D1
:1017B000DF938C01EB0188E2DB011D928A95E9F74A
:1017C000F801838194810E94AB0B81E090E0A0E05E
:1017D000B0E08C879D87AE87BF87F80185819681B1
:1017E000A781B085888B998BAA8BBB8B8CE090E00E
:1017F000A0E0B0E08C8B9D8BAE8BBF8BBE01838154
:1018000094810E941507D8011396ED91FC9183896C
:101810008C3009F441C078F48B3009F1188E198EA0
:101820001A8E1B8E1C8E1D8E1E8E1F8E18A219A244
:101830001AA21BA22CC08551823080F780E090E074
:10184000A8ECB2E4888F998FAA8FBB8F1C8E1D8E57
:101850001E8E1F8E8DEC9CECACECBDE314C080E0C2
:1018600090E0A0EAB2E4888F998FAA8FBB8F80E0C6
:1018700090E0A0EAB1E48C8F9D8FAE8FBF8F80E0A7
:1018800090E0A0EAB0E488A399A3AAA3BBA3DF9148
:10189000CF911F910F91089580E090E0AEEBB2E4FC
:1018A000E2CF0F931F93CF93DF938C01EB0188E27C
:1018B000DB011D928A95E9F7F801838194810E94EA
:1018C000AB0B81E090E0A0E0B0E08C879D87AE8715
:1018D000BF87F80185819681A781B085888B998B18
:1018E000AA8BBB8B8DE090E0A0E0B0E08C8B9D8B51
:1018F000AE8BBF8BBE01838194810E941507D801F6
:101900001396ED91FC9183898C3091F178F48B30B2
:10191000B1F0188E198E1A8E1B8E1C8E1D8E1E8E87
:101920001F8E18A219A21AA21BA21DC08531A9F1EF
:10193000863179F780E090E0AAEFB2E432C080E02F
:1019400090E0A8E4B2E4888F998FAA8FBB8F1C8E99
:101950001D8E1E8E1F8E80E090E0A0E0B0E488A374
:1019600099A3AAA3BBA3DF91CF911F910F910895D3
:1019700080E090E0A0E7B2E4888F998FAA8FBB8FB8
:1019800080E090E0A0EAB1EC8C8F9D8FAE8FBF8F8E
:1019900080E090E0A0E0BFE3E2CF80E090E0A0EA4A
:1019A000B2E4888F998FAA8FBB8F80E090E0A0E28D
:1019B000B2EC8C8F9D8FAE8FBF8F8DEC9CECACEC1E
:1019C000BDE3CDCF1F920F920FB60F9211242F932C
:1019D0003F934F935F936F937F938F939F93AF93B7
:1019E000BF93EF93FF938091B900887F803609F40D
:1019F0004AC0F0F5883209F4A7C018F5803109F41F
:101A00009BC0B8F4882309F4F9C0883009F494C065
:101A1000FF91EF91BF91AF919F918F917F916F91C6
:101A20005F914F913F912F910F900FBE0F901F909C
:101A30001895883109F488C0803251F78093BA0331
:101A400014C0803409F49DC040F48033B9F3883366
:101A5000F9F68093BA0385ECB0C0803509F485C0EF
:101A6000883509F496C0883499F60E946A09D0CF67
:101A7000883909F48CC038F5883729F050F4883655
:101A800011F0803729F683E08093BC0310926F0336
:101A900057C0883809F47BC0803919F0803809F0C4
:101AA000B7CF80916F03803208F071C0E0916F036F
:101AB00081E08E0F80936F038091BB00F0E0E15BCB
:101AC000FC4F80833DC0803B39F0E0F4803A09F45C
:101AD00079C0883A09F09CCF84E08093BC031092CF
:101AE0004C0310924B03E0914903F0914A0309958E
:101AF00080914B0381110FC081E080934B031092C2
:101B0000290309C0803C09F4A6CF883C09F4A3CF7F
:101B1000883B09F07DCFE0914C0381E08E0F8093EC
:101B20004C03F0E0E75DFC4F80818093BB00909117
:101B30004C0380914B0329C0809197038093BB0095
:101B400085EC8093BC0064CF9091B9038091B80379
:101B5000981758F5E091B90381E08E0F8093B9038F
:101B6000F0E0E856FC4F8081E9CFE091B90381E0D5
:101B70008E0F8093B9038091BB00F0E0E856FC4FD4
:101B800080839091B9038091B8039817C8F285E8D3
:101B9000D8CFE091B90381E08E0F8093B903809193
:101BA000BB00F0E0E856FC4F80838091BB038111BD
:101BB0005CCF81E08093960384EA8093BC0010920E
:101BC000BC0326CF85EC8093BC001092BC038091AF
:101BD0006F03803230F4E0916F03F0E0E15BFC4F83
:101BE000108260916F0370E0E0914D03F0914E031D
:101BF0008FE493E0099510926F030ACF1092BA0315
:101C000034CF1F920F920FB60F9211242F933F9350
:101C10008F939F93AF93BF938091700390917103C3
:101C2000A0917203B09173033091230323E0230F3B
:101C30002D3758F50196A11DB11D209323038093E4
:101C4000700390937103A0937203B0937303809118
:101C5000240390912503A0912603B09127030196B8
:101C6000A11DB11D8093240390932503A093260307
:101C7000B0932703BF91AF919F918F913F912F9187
:101C80000F900FBE0F901F90189526E8230F029615
:101C9000A11DB11DD2CF1F920F920FB60F9211242A
:101CA0002F933F934F935F936F937F938F939F9364
:101CB000AF93BF93EF93FF9382EF93E00E94EC0406
:101CC000FF91EF91BF91AF919F918F917F916F9114
:101CD0005F914F913F912F910F900FBE0F901F90EA
:101CE00018951F920F920FB60F9211242F938F9376
:101CF0009F93EF93FF93E0910204F091030480819E
:101D0000E0910804F091090482FD1BC0908180914C
:101D10000B048F5F8F7320910C04821741F0E091C8
:101D20000B04F0E0EE50FC4F958F80930B04FF9175
:101D3000EF919F918F912F910F900FBE0F901F9059
:101D400018958081F4CFCF93DF93CDB7DEB7AC97F2
:101D50000FB6F894DEBF0FBECDBF1092E90310920C
:101D6000E80388EE93E0A0E0B0E08093EA0390936C
:101D7000EB03A093EC03B093ED032EE531E0309339
:101D8000E7032093E6031092F5031092F403809387
:101D9000F6039093F703A093F803B093F90380E759
:101DA00091E09093F3038093F20385EC90E090939D
:101DB000FF038093FE0384EC90E0909301048093F2
:101DC000000480EC90E0909303048093020481EC83
:101DD00090E0909305048093040482EC90E090934B
:101DE00007048093060486EC90E0909309048093A6
:101DF000080410920B0410920C0410920D0410921F
:101E00000E041092D8041092D7041092D6041092A7
:101E1000D304E9E4F1E081E08C3051F09491823018
:101E200009F49F5F21E0280F3196992309F4D1C06E
:101E30008093D40481E08093D5042DEA34E08FE0D0
:101E40008093B2048BE08093B304E4E4F1E0E49186
:101E5000E093B404E0E3F1E0E491E093B50440E8FA
:101E60005EE360E070E04093BA045093BB0460937B
:101E7000BC047093BD048093C00480E991E090930A
:101E8000C2048093C1043093C5042093C4048FEF2F
:101E90009FEFDC018093C6049093C704A093C8040D
:101EA000B093C90442E851E05093CB044093CA0474
:101EB0003093CE042093CD048093CF049093D0042C
:101EC000A093D104B093D20418A61FA21AA619A6F3
:101ED0001CA61BA645E050E069EA71E0CE0187969A
:101EE0000E94A20988E0EFE8F4E0DE015996019033
:101EF0000D928A95E1F788E0EFE8F4E0DE01519673
:101F000001900D928A95E1F71AA219A21CA21BA2B8
:101F10001EA21DA26FA178A56115710531F04BA518
:101F20005CA5CE0181960E94A20988E0FE01799607
:101F3000DE01199601900D928A95E1F788E0FE0185
:101F40007196DE01119601900D928A95E1F710923B
:101F5000A8041092A7041092AA041092A904109247
:101F6000AC041092AB0450E040E061EE72E087EA0E
:101F700094E00E94A20969A17AA16115710559F145
:101F80004DA15EA187EA94E00E94A20988E0FE01CB
:101F90003996A7E9B4E001900D928A95E1F788E0BF
:101FA000FE013196AFE9B4E001900D928A95E1F718
:101FB000CE0181960E945E09CE0187960E945E093D
:101FC000AC960FB6F894DEBF0FBECDBFDF91CF91B8
:101FD0000895822F21CF8091A7049091A8040097A3
:101FE00011F00E9436171092A8041092A7041092C4
:101FF000AC041092AB041092AA041092A904C6CFAC
:10200000CF93DF93CDB7DEB7CF57D1090FB6F89492
:10201000DEBF0FBECDBF789484B5826084BD84B529
:10202000816084BD85B5826085BD85B5816085BDD3
:1020300080916E00816080936E001092810080918B
:102040008100826080938100809181008160809313
:102050008100809180008160809380008091B10038
:1020600084608093B1008091B00081608093B00063
:1020700080917A00846080937A0080917A008260F7
:1020800080937A0080917A00816080937A008091B9
:102090007A00806880937A001092C1008FEF9FEFE2
:1020A00090931E0380931D0310921C0385E090E023
:1020B00090931B0380931A038CE990E00E944208DE
:1020C000E0910204F091030482E08083E091FE033A
:1020D000F091FF031082E0910004F09101048FEC75
:1020E000808310920A04E0910604F091070486E0D0
:1020F0008083E0910404F0910504808180618083F5
:10210000E0910404F0910504808188608083E0916F
:102110000404F0910504808180688083E0910404C8
:10212000F091050480818F7D808362E08091B2040C
:102130000E9410022FB7F894809170039091710360
:10214000A0917203B09173032FBF805D9740A109E6
:10215000B1098093B6049093B704A093B804B093E8
:10216000B90487E38093BF0461E080911A030E9461
:10217000100260E084E00E94100210927503109239
:1021800074031092C3031092E5030E94D1018DEFF6
:1021900090E090934A03809349038EEF90E09093F0
:1021A0004E0380934D0381E08093C20388E68093C1
:1021B000E4030E94830281110AC20E942A0790E070
:1021C000880F892F881F990B892B81F08FED91E063
:1021D0000E94340847E850E060E970E0CE010196C3
:1021E0000E94E109CE0101960E94480742E750E0B3
:1021F0006BE770E0CE0101960E94E109CE010196E5
:102200000E944807F9EC2F2EFCEF3F2E44244A94FD
:10221000542C81E08093C20398E69093E4031092DB
:10222000C3031092E50360E086EE93E00E9456013E
:102230000E94830267E088E60E946A031092750399
:102240008093740386EE93E00E940F018F77282F0E
:1022500030E094E0359527959A95E1F7922F990F04
:10226000990FF22EF91AFF0CF80E86EE93E00E94F9
:102270000F019C0144E0359527954A95E1F72F70B1
:102280003327922F990F990FE22EE91AEE0CE80EE0
:1022900086EE93E00E940F019C0154E0359527954E
:1022A0005A95E1F72F703327922F990F990FD22E5D
:1022B000D91ADD0CD80E86EE93E00E940F0186EE4F
:1022C00093E00E940F019C0164E0359527956A9583
:1022D000E1F72F703327922F990F990F022F091BC7
:1022E000000F080F86EE93E00E940F019C0174E03E
:1022F000359527957A95E1F72F703327922F990F0F
:10230000990F122F191B110F180F86EE93E00E94E0
:102310000F019C01E4E035952795EA95E1F72F70D0
:102320003327922F990F990F291B220F820F809329
:10233000D3041093D4040093D504D092D604E09231
:10234000D704F092D804402F612F90E00E94A3059B
:10235000069667E070E00E9468152CE0289FB001A7
:10236000299F700D112460507F4FEC961FAE1EAE5A
:10237000EC97EE961FAE1EAEEE97C258DF4F198255
:102380001882CE57D040FB0101900020E9F7319729
:10239000AF01461B570BCE0186589F4F0E94A209E2
:1023A00082E092E00E94E30788E0EFE9F4E0DE01DA
:1023B000AE58BF4F01900D928A95E1F7EA966CAD49
:1023C0007DAD8EAD9FADEA9742E00E9450088AE94C
:1023D00091E00E94E3078091C3048FA380E991E01C
:1023E0009EA38DA38091C4049091C50499A788A74A
:1023F0008091C6049091C704A091C804B091C9040B
:102400008AA79BA7ACA7BDA7BE016F5F7F4FCE0178
:1024100085960E94F20A8091CC042C968FAF2C975F
:1024200082E891E02B969FAF8EAF2B978091CD04E1
:102430009091CE042E969FAF8EAF2E978091CF04B1
:102440009091D004A091D104B091D20462968CAF47
:102450009DAFAEAFBFAF6297BE016B5D7F4FCE0148
:10246000875B9F4F0E946C0A8EE00E944C029C0189
:10247000990F440B550B2F5F334041095109A4E6D6
:10248000B0E00E94E9142FE43CEF4FEF5FEF0E94B1
:10249000CA146901309322032093210380E10E9432
:1024A0004C029C01990F440B550B2F5F334041099F
:1024B0005109A4E6B0E00E94E914A20191010E9432
:1024C000CA144901890180911D0390911E03C81609
:1024D000D906E9F0D0921E03C0921D0388E092E075
:1024E0000E94E30780912103909122030E942C090E
:1024F00080911D0390911E034F970CF06DC061E019
:1025000080911A030E94850191E090931C038091B1
:102510001603909117030817190771F0909217038B
:10252000809216038DE192E00E94E30780911603EA
:10253000909117030E942C09CD88DE88EF88F88CD3
:10254000A7019601C701B6010E949516882309F4D8
:102550004BC08EED90E00E944208C9ACDAACEBAC07
:10256000FCACA7019601C701B6010E949516811126
:10257000D2C088E0EFE9F4E0DE01AE5ABF4F01902F
:102580000D928A95E1F7A70196016A966CAD7DAD33
:102590008EAD9FAD6A970E94A6138111C1C068EEEF
:1025A00073E080E090E00E943904CE0186589F4F8E
:1025B0000E945E0980E090E0892B09F42ACE0E94F7
:1025C000D804882309F425CE0E9400001BCE86EC97
:1025D00091E00E943408FFCF60E080911A030E94CE
:1025E000850110921C0393CF88E0EFE9F4E0DE014F
:1025F000A659BF4F01900D928A95E1F7A701960168
:10260000AE966CAD7DAD8EAD9FADAE970E94A6131C
:10261000882389F18DE292E00E9434088FE592E0F0
:102620000E94E3076D897E898F89988D42E00E9420
:10263000500883E792E00E94340883ED90E00E9406
:102640005B0569AD7AAD8BAD9CAD42E00E94500850
:1026500081ED90E00E94420820E030E040E752E443
:1026600069AD7AAD8BAD9CAD0E94A61387FD4AC0C3
:1026700086EB92E049C088E0EFE9F4E0DE01AE5974
:10268000BF4F01900D928A95E1F7C9ACDAACEBAC83
:10269000FCACAA962CAD3DAD4EAD5FADAA97C7017F
:1026A000B6010E94A613882349F0A7019601C7012D
:1026B000B6010E949516882309F4ACCF88E0EFE9B3
:1026C000F4E0DE01A65ABF4F01900D928A95E1F722
:1026D000CD88DE88EF88F88CA70196016E966CADE8
:1026E0007DAD8EAD9FAD6E970E94A613882309F431
:1026F00034CFC0929F04D092A004E092A104F09243
:10270000A2042BCF86E792E00E94E30782EE92E0DC
:102710000E943408D3CF89EB90E00E9442083FCF5B
:10272000C092A304D092A404E092A504F092A6045F
:1027300036CF87EA94E00C945E09FB01DC0102C00D
:1027400005900D9241505040D8F708950E94E8132B
:1027500008F481E00895E89409C097FB3EF4909551
:102760008095709561957F4F8F4F9F4F9923A9F06A
:10277000F92F96E9BB279395F695879577956795F9
:10278000B795F111F8CFFAF4BB0F11F460FF1BC03D
:102790006F5F7F4F8F4F9F4F16C0882311F096E9D0
:1027A00011C0772321F09EE8872F762F05C066237E
:1027B00071F096E8862F70E060E02AF09A95660F37
:1027C000771F881FDAF7880F9695879597F90895F0
:1027D000990F0008550FAA0BE0E8FEEF1616170632
:1027E000E807F907C0F012161306E407F50798F09A
:1027F000621B730B840B950B39F40A2661F0232BB3
:10280000242B252B21F408950A2609F4A140A6952E
:102810008FEF811D811D08950E941F140C94901448
:102820000E94821438F00E94891420F0952311F040
:102830000C9479140C947F1411240C94C4140E94E9
:10284000A11470F3959FC1F3950F50E0551F629F3F
:10285000F001729FBB27F00DB11D639FAA27F00DF9
:10286000B11DAA1F649F6627B00DA11D661F829F20
:102870002227B00DA11D621F739FB00DA11D621F05
:10288000839FA00D611D221F749F3327A00D611D22
:10289000231F849F600D211D822F762F6A2F112404
:1028A0009F5750409AF0F1F088234AF0EE0FFF1F37
:1028B000BB1F661F771F881F91505040A9F79E3F8E
:1028C000510580F00C9479140C94C4145F3FE4F328
:1028D000983ED4F3869577956795B795F795E795E4
:1028E0009F5FC1F7FE2B880F911D9695879597F9ED
:1028F000089597F99F6780E870E060E008959FEF82
:1029000080EC089500240A94161617061806090686
:10291000089500240A941216130614060506089555
:10292000092E0394000C11F4882352F0BB0F40F4DD
:10293000BF2B11F460FF04C06F5F7F4F8F4F9F4F1D
:10294000089557FD9058440F551F59F05F3F71F09F
:102950004795880F97FB991F61F09F3F79F0879506
:102960000895121613061406551FF2CF4695F1DF8F
:1029700008C0161617061806991FF1CF869571051F
:10298000610508940895E894BB2766277727CB0153
:1029900097F90895052E97FB1EF400940E94E11408
:1029A00057FD07D00E942B1507FC03D04EF40C9462
:1029B000E11450954095309521953F4F4F4F5F4F13
:1029C000089590958095709561957F4F8F4F9F4F9B
:1029D00008950E944D15A59F900DB49F900DA49F42
:1029E000800D911D112408952F923F924F925F9276
:1029F0006F927F928F929F92AF92BF92CF92DF920F
:102A0000EF92FF920F931F93CF93DF93CDB7DEB773
:102A1000CA1BDB0B0FB6F894DEBF0FBECDBF099407
:102A20002A88398848885F846E847D848C849B845E
:102A3000AA84B984C884DF80EE80FD800C811B816C
:102A4000AA81B981CE0FD11D0FB6F894DEBF0FBE9B
:102A5000CDBFED010895A1E21A2EAA1BBB1BFD01FB
:102A60000DC0AA1FBB1FEE1FFF1FA217B307E4076D
:102A7000F50720F0A21BB30BE40BF50B661F771FC5
:102A8000881F991F1A9469F76095709580959095A5
:102A90009B01AC01BD01CF010895A29FB001B39F7E
:102AA000C001A39F700D811D1124911DB29F700D57
:102AB000811D1124911D0895991B79E004C0991F6F
:102AC000961708F0961B881F7A95C9F78095089588
:102AD000AA1BBB1B51E107C0AA1FBB1FA617B70744
:102AE00010F0A61BB70B881F991F5A95A9F7809560
:102AF0009095BC01CD010895EE0FFF1F0590F49154
:102B0000E02D09945058BB27AA270E949A150C94CF
:102B100090140E94821438F00E94891420F039F435
:102B20009F3F19F426F40C947F140EF4E095E7FB14
:102B30000C947914E92F0E94A11458F3BA17620774
:102B400073078407950720F079F4A6F50C94C31455
:102B50000EF4E0950B2EBA2FA02D0B01B9019001B8
:102B60000C01CA01A0011124FF27591B99F0593FFC
:102B700050F4503E68F11A16F040A22F232F342F44
:102B80004427585FF3CF469537952795A795F04092
:102B90005395C9F77EF41F16BA0B620B730B840BA7
:102BA000BAF09150A1F0FF0FBB1F661F771F881F5F
:102BB000C2F70EC0BA0F621F731F841F48F48795B7
:102BC00077956795B795F7959E3F08F0B0CF9395A9
:102BD000880F08F09927EE0F9795879508950E9422
:102BE00003160C9490140E94891458F00E948214C9
:102BF00040F029F45F3F29F00C94791451110C94A2
:102C0000C4140C947F140E94A11468F39923B1F3A7
:102C1000552391F3951B550BBB27AA276217730702
:102C2000840738F09F5F5F4F220F331F441FAA1F96
:102C3000A9F335D00E2E3AF0E0E832D09150504052
:102C4000E695001CCAF72BD0FE2F29D0660F771F00
:102C5000881FBB1F261737074807AB07B0E809F0E6
:102C6000BB0B802DBF01FF2793585F4F3AF09E3F6B
:102C7000510578F00C9479140C94C4145F3FE4F37C
:102C8000983ED4F3869577956795B795F7959F5FAE
:102C9000C9F7880F911D9695879597F90895E1E0FA
:102CA000660F771F881FBB1F621773078407BA0759
:102CB00020F0621B730B840BBA0BEE1F88F7E095B4
:102CC00008950E94A91488F09F5798F0B92F99276A
:102CD000B751B0F0E1F0660F771F881F991F1AF007
:102CE000BA95C9F714C0B13091F00E94C314B1E095
:102CF00008950C94C314672F782F8827B85F39F094
:102D0000B93FCCF3869577956795B395D9F73EF49F
:102D100090958095709561957F4F8F4F9F4F089547
:102D20000E94E81308F48FEF08950E94E813880BBF
:102D3000990B08950F931F93CF93DF9382309105E2
:102D400010F482E090E0E091DB04F091DC0430E0EC
:102D500020E0B0E0A0E0309799F42115310509F4A6
:102D60004AC0281B390B24303105D8F58A819B8154
:102D70006115710589F1FB0193838283FE0111C006
:102D8000408151810281138148175907E0F04817AB
:102D9000590799F4109761F012960C9312971396B5
:102DA0001C933296CF01DF91CF911F910F9108951F
:102DB0000093DB041093DC04F4CF2115310551F0AE
:102DC0004217530738F0A901DB019A01BD01DF0169
:102DD000F801C1CFEF01F9CF9093DC048093DB04BD
:102DE000CDCFFE01E20FF31F819391932250310961
:102DF00039832883D7CF2091D9043091DA04232B4B
:102E000041F420915601309157013093DA04209318
:102E1000D90420915401309155012115310541F417
:102E20002DB73EB74091580150915901241B350BE5
:102E3000E091D904F091DA04E217F307A0F42E1B15
:102E40003F0B2817390778F0AC014E5F5F4F24170E
:102E5000350748F04E0F5F1F5093DA044093D904B2
:102E6000819391939FCFF0E0E0E09CCFCF93DF93ED
:102E70000097E9F0FC01329713821282A091DB04E3
:102E8000B091DC04ED0130E020E01097A1F4208146
:102E90003181820F931F2091D9043091DA042817D1
:102EA000390709F061C0F093DA04E093D904DF91A7
:102EB000CF910895EA01CE17DF07E8F54A815B81DB
:102EC0009E0141155105B1F7E901FB83EA83499160
:102ED0005991C40FD51FEC17FD0761F480819181D2
:102EE0000296840F951FE9019983888382819381DB
:102EF0009B838A83F0E0E0E012968D919C9113977A
:102F00000097B9F52D913C911197CD010296820F52
:102F1000931F2091D9043091DA042817390739F624
:102F2000309751F51092DC041092DB04B093DA0470
:102F3000A093D904BCCFD383C28340815181840F35
:102F4000951FC817D90761F44E5F5F4F888199813B
:102F5000480F591F518340838A819B8193838283C9
:102F60002115310509F0B0CFF093DC04E093DB04C8
:102F70009ECFFD01DC01C0CF13821282D7CFB0E01B
:102F8000A0E0E5ECF7E10C94F6148C01009751F405
:102F9000CB010E949A168C01C801CDB7DEB7E0E1E3
:102FA0000C941215FC01E60FF71F9C012250310909
:102FB000E217F30708F49DC0D901CD91DC91119778
:102FC000C617D70798F0C530D10530F3CE01049766
:102FD0008617970708F3C61BD70B2297C193D19387
:102FE0006D937C93CF010E943617D6CF5B01AC1A4C
:102FF000BD0A4C018C0E9D1EA091DB04B091DC0437
:10300000512C412CF12CE12C109731F58091D904F1
:103010009091DA048815990509F05CC046165706A8
:1030200008F058C08091540190915501009741F4E7
:103030008DB79EB74091580150915901841B950B53
:10304000E817F90708F055C0F093DA04E093D904C3
:10305000F90171836083A0CF8D919C911197129695
:103060006C90129713967C901397A815B90559F593
:103070006C0142E0C40ED11CCA14DB0420F1AC0187
:103080004A195B09DA011296159780F06282738201
:1030900051834083D9016D937C93E114F10471F065
:1030A000D7011396FC93EE93129776CF22968C0F4E
:1030B0009D1FF90191838083F301EFCFF093DC042E
:1030C000E093DB0469CF4816590608F42C017D0112
:1030D000D3019ACFCB010E949A167C01009749F048
:1030E000AE01B8010E947C18C8010E943617870102
:1030F00053CF10E000E050CFFB01DC0102C0019093
:103100000D9241505040D8F70895FB01DC01019029
:103110000D920020E1F70895FB01DC014150504081
:1031200048F001900D920020C9F701C01D92415056
:103130005040E0F7089510E0CBEAD0E004C0FE0173
:103140000E947C152196CC3AD107C9F7F894FFCF9D
:1031500053756E0000000000000000004D6F6E000F
:103160000000000000000000547565000000000031
:10317000000000005765640000000000000000002F
:1031800054687500000000000000000046726900ED
:103190000000000000000000536174000000000007
:1031A000000000000000DD04800000000000560167
:1031B00029019804FF0022010F0100010000000016
:1031C0000E056B049B047605CC04AA04BE04000023
:1031D00000002807660929076C0AD50B00000000CB
:1031E000280768092907F20A510C0D0A006E616E62
:1031F00000696E66006F76660044485431310044C1
:103200004854313200444854323100444854323238
:10321000004448543F00436F756C646E2774206609
:10322000696E6420525443204D6F64756C65005282
:103230005443206C6F737420706F7765722C206C10
:1032400065747320736574207468652074696D6596
:103250002100444159203A0053756E6C69676874C7
:1032600020696E74656E736974793A2000536F69D2
:103270006C204D6F6973747572653A20003D3D3D59
:103280003D3D3D3D3D3D3D3D3D3D3D3D3D3D3D3D6E
:103290003D3D3D3D3D3D3D3D3D3D3D3D3D3D3D3D5E
:1032A0003D3D3D3D3D3D3D3D3D3D3D3D3D3D006563
:1032B00076656E742E74656D706572617475726575
:1032C0003A20002043000A4B414D49204D454D42D4
:1032D000555455484B414E204B454C454D4241427B
:1032E000414E2055444152412120534952414D20E5
:1032F00054414E414D414E20494E4920534547458A
:103300005241210A0A000A4B414D49205449444187
:103310004B204D454D42555455484B414E204B4551
:103320004C454D424142414E205544415241210AB3
:103330000A003D3D3D3D3D3D3D3D3D3D3D3D3D3D2D
:103340003D3D3D3D3D3D3D3D3D3D3D3D3D3D3D3DAD
:103350003D3D3D3D3D3D3D3D3D3D3D3D3D3D3D3D9D
:063360003D3D3D0A0A009C
:00000001FF
