:100000000C948A000C94B2000C94B2000C94B200D0
:100010000C94B2000C94B2000C94B2000C94B20098
:100020000C94B2000C94B2000C94B2000C94B20088
:100030000C94B2000C94B2000C94B2000C94B20078
:100040000C943E070C94B2000C94AE070C948807F5
:100050000C94B2000C94B2000C94B2000C94B20058
:100060000C94B2000C94B2000000000023002600A3
:1000700029005573696E6720444854787820556E7E
:1000800069666965642053656E736F7200457272AC
:100090006F722072656164696E672068756D69644E
:1000A00069747921004572726F72207265616469AA
:1000B0006E672074656D706572617475726521007C
:1000C00000000000240027002A0000000000250096
:1000D00028002B00000000080002010000030407B4
:1000E00000000000000000000404040404040404F0
:1000F00002020202020203030303030301020408D3
:100100001020408001020408102001020408102081
:10011000E007650B11241FBECFEFD8E0DEBFCDBFD7
:1001200011E0A0E0B1E0EAE5FFE102C005900D9228
:10013000A638B107D9F722E0A6E8B1E001C01D92C8
:10014000A838B207E1F710E0C9E8D0E004C0219771
:10015000FE010E94270DC838D107C9F70E9438094F
:100160000C94A00F0C940000CF93DF9390E0FC015F
:10017000E450FF4F249188519F4FFC0184918823C4
:10018000D1F090E0880F991FFC01E054FF4FA5913A
:10019000B491FC01E653FF4FC591D491623071F4E4
:1001A0009FB7F8943C91822F809583238C93E881AC
:1001B0002E2B28839FBFDF91CF9108958FB7F8949E
:1001C000EC912E2B2C938FBFF6CF8E5080648093B2
:1001D0007C0080917A00806480937A0080917A001C
:1001E00086FDFCCF809178009091790008953FB70B
:1001F000F8948091870190918801A0918901B09134
:100200008A0126B5A89B05C02F3F19F00196A11DB4
:10021000B11D3FBFBA2FA92F982F8827BC01CD0150
:10022000620F711D811D911D42E0660F771F881FAF
:10023000991F4A95D1F708958F929F92AF92BF92DE
:10024000CF92DF92EF92FF924B015C010E94F70088
:100250006B017C010E94F7006C197D098E099F09D2
:10026000683E734081059105A8F321E0821A910848
:10027000A108B10888EEC80E83E0D81EE11CF11C6D
:1002800081149104A104B10429F7FF90EF90DF904D
:10029000CF90BF90AF909F908F900895AF92BF92F4
:1002A000CF92DF92EF92FF920F931F93CF93DF9342
:1002B0006C017B018B01040F151FEB015E01AE1871
:1002C000BF08C017D10759F06991D601ED91FC9193
:1002D0000190F081E02DC6010995892B79F7C501C0
:1002E000DF91CF911F910F91FF90EF90DF90CF9012
:1002F000BF90AF900895FC01538D448D252F30E0C1
:10030000842F90E0821B930B541710F0CF96089522
:1003100001970895FC01918D828D981761F0A28D4F
:10032000AE0FBF2FB11D5D968C91928D9F5F9F7315
:10033000928F90E008958FEF9FEF0895FC01918DCB
:10034000828D981731F0828DE80FF11D858D90E038
:1003500008958FEF9FEF0895FC01918D228D892FD5
:1003600090E0805C9F4F821B91098F7399270895BD
:100370008FE891E00E94AC0121E0892B09F420E094
:10038000822F089580E090E0892B29F00E94B80127
:1003900081110C9400000895FC01A48DA80FB92FC1
:1003A000B11DA35ABF4F2C91848D90E001968F739D
:1003B0009927848FA689B7892C93A089B1898C91BC
:1003C000837080648C93938D848D981306C002880B
:1003D000F389E02D80818F7D80830895EF92FF92D5
:1003E0000F931F93CF93DF93EC0181E0888F9B8D58
:1003F0008C8D98131AC0E889F989808185FF15C012
:100400009FB7F894EE89FF896083E889F989808134
:100410008370806480839FBF81E090E0DF91CF9103
:100420001F910F91FF90EF900895F62E0B8D10E025
:100430000F5F1F4F0F731127E02E8C8D8E110CC094
:100440000FB607FCFACFE889F989808185FFF5CFDF
:10045000CE010E94CC01F1CFEB8DEC0FFD2FF11DF1
:10046000E35AFF4FF0829FB7F8940B8FEA89FB891C
:1004700080818062CFCFCF93DF93EC01888D88237A
:10048000B9F0AA89BB89E889F9898C9185FD03C0F7
:10049000808186FD0DC00FB607FCF7CF8C9185FFDC
:1004A000F2CF808185FFEDCFCE010E94CC01E9CF54
:1004B000DF91CF910895CF92DF92EF92FF92CF9389
:1004C000DF93DC011796CC911797D0E06111DC2FF8
:1004D00018962C91189730E0220F331F28593F4F60
:1004E00050E040E0F90185919491FC01F080BA015F
:1004F00090E080E0EF2DEC23ED1310C04F5F5F4FD5
:100500001D96CD90DD90ED90FC9050976C157D057B
:100510008E059F0538F36FEF7FEFCB01DF91CF9111
:10052000FF90EF90DF90CF9008958F929F92AF92BF
:10053000BF92CF92DF92EF92FF920F931F93CF93D0
:10054000DF93CDB7DEB7C054D1400FB6F894DEBF0D
:100550000FBECDBF2FB7F89440918B0150918C0105
:1005600060918D0170918E012FBFFC010185128574
:10057000238534856A017B01C01AD10AE20AF30A95
:1005800097018601003D174021053105B0F4FC01BB
:100590008189C05CDE4F0FB6F894DEBF0FBECDBFC1
:1005A000DF91CF911F910F91FF90EF90DF90CF904F
:1005B000BF90AF909F908F9008958C01FC01418770
:1005C0005287638774871482138212821182108289
:1005D00062E085810E94B40061E070E080E090E01C
:1005E0000E941C0161E0F80185810E94B400F801BD
:1005F000858190E0FC01EC52FF4F2491FC01E45016
:10060000FF4F3491FC01E851FF4FE491EE23D9F004
:10061000222359F0233009F44CC008F03FC02130A8
:1006200009F44DC0223009F44EC0F0E0EE0FFF1F78
:10063000E653FF4FA591B4918FB7F894EC913095A4
:100640003E233C938FBFF80186818551823008F0AC
:1006500047C08BE291E10197F1F762E0F8018581F3
:100660000E94B400F801828990E08230910538F050
:10067000880F991F880F991F05970197F1F7F89434
:1006800060E0C8010E945B026F3F7F4F8F4F9F4F1A
:1006900071F5F801118A789480E07BCF2730B1F0B2
:1006A0002830D1F0243009F0C0CF809180008F7DB8
:1006B00003C0809180008F7780938000B6CF84B58F
:1006C0008F7784BDB2CF84B58F7DFBCF8091B00092
:1006D0008F778093B000A9CF8091B0008F7DF9CF44
:1006E00064E170E080E090E00E941C01B6CF61E020
:1006F000C8010E945B026F3F7F4F8F4F9F4F49F2AF
:10070000CE0101967C015E019FEBA91A9EEFB90A0A
:10071000670160E0C8010E945B02F601608371839B
:100720008283938361E0C8010E945B02F6016483C7
:10073000758386839783F8E0CF0ED11CAC14BD047B
:1007400041F7789430E020E0F70180809180A2802A
:10075000B3804481558166817781FFEF8F169F06B4
:10076000AF06BF0631F04F3F8FEF58076807780795
:1007700019F4F801118A90CFF90183E0F595E79516
:100780008A95E1F7E00FF11F8081880F84169506A6
:10079000A606B706F0F080832F5F3F4FF8E0EF0E1C
:1007A000F11C2832310581F6F801448120818181D4
:1007B000280F3327331F8281280F311D8381820F39
:1007C000932F911D99274817190699F681E0818B7F
:1007D000E0CE8160E0CFFC0183898B3051F480E46E
:1007E00092E4AFE0B0E0FB0184A395A3A6A3B7A376
:1007F000089580E894E8AEE1B0E0F5CF089508955B
:10080000FC0101900020E9F73197AF01481B590B1B
:10081000BC018FE891E00C944E010F931F93CF938E
:10082000DF938C01D0E0C0E0F801EC0FFD1F649174
:10083000662341F08FE891E00E94EE01892B11F0D0
:100840002196F2CF84E391E00E9400048C0F9D1F5B
:10085000DF91CF911F910F9108950F931F93CF9325
:10086000DF93EC0188819981009759F02A813B81BF
:100870002617370730F081E0DF91CF911F910F915C
:1008800008958B016F5F7F4F0E94C40E009759F04F
:10089000998388831B830A832C813D81232B59F7FD
:1008A000FC011082E8CF80E0E7CFCF93DF93EC012B
:1008B00088819981009711F00E943B0E198218825D
:1008C0001D821C821B821A82DF91CF910895EF92C4
:1008D000FF920F931F93CF93DF938C017B01EB016A
:1008E00009900020E9F72197C61BD70BBE010E9493
:1008F0002D04811109C0C801DF91CF911F910F9183
:10090000FF90EF900C945504F801D583C483B70190
:1009100080819181DF91CF911F910F91FF90EF9096
:100920000C948A0FEF92FF920F931F93CF93DF9354
:10093000EC018617970781F0FB01008111810115F9
:10094000110539F0E480F580B7010E942D04811172
:100950000BC0CE010E945504CE01DF91CF911F91B3
:100960000F91FF90EF900895FD82EC82B80188818D
:1009700099810E948A0FF0CFFC01808191810097BC
:1009800011F00C943B0E08950C943B0E0C943B0E0E
:10099000CF92DF92EF92FF920F931F93CF93DF934B
:1009A000EB01FB01349620E2DF011D922A95E9F765
:1009B00044E250E060E070E0488359836A837B83BF
:1009C000FC0145815681678170854C835D836E8310
:1009D0007F834CE050E060E070E0488759876A8789
:1009E0007B872FB7F89440918B0150918C016091D7
:1009F0008D0170918E012FBF488B598B6A8B7B8B39
:100A000003811481C8010E949502882349F0F801EE
:100A100086818B3028F08D3040F08551823070F126
:100A200060E070E080EC9FE71BC0618170E090E0C7
:100A300080E00E94780B2DEC3CEC4CEC5DE30E94D6
:100A4000D70B6B017C01F801608170E090E080E0E1
:100A50000E94780B9B01AC01C701B6010E942E0DCC
:100A60006C8B7D8B8E8B9F8B81E0DF91CF911F9163
:100A70000F91FF90EF90DF90CF900895608171818A
:100A800076276727762790E080E00E94760B2DEC92
:100A90003CEC4CEC5DE30E94D70BE2CF8F929F922F
:100AA000AF92BF92EF92FF921F93CF93DF93EB0130
:100AB000FB01349620E2DF011D922A95E9F744E21A
:100AC00050E060E070E0488359836A837B83FC01D7
:100AD00045815681678170854C835D836E837F83FA
:100AE0004DE050E060E070E0488759876A877B8777
:100AF0002FB7F89440918B0150918C0160918D013A
:100B000070918E012FBF488B598B6A8B7B8BE38052
:100B1000F480C7010E949502882341F0F701868185
:100B20008C3009F455C038F48B30E1F060E070E0AF
:100B300080EC9FE73EC085518230C0F71281612F63
:100B400070E0762F662766277F778381682B90E099
:100B500080E00E94760B2DEC3CEC4CEC5DE30E94B7
:100B6000D70B51C0628170E090E080E00E94760B6C
:100B70004B015C01F701138117FF0AC0AC019B0117
:100B800060E070E080E89FEB0E942D0D4B015C015E
:100B90001F70612F70E090E080E00E94780B2DECD8
:100BA0003CEC4CEC5DE30E94D70BA50194010E9444
:100BB0002E0D6C8B7D8B8E8B9F8B81E0DF91CF9187
:100BC0001F91FF90EF90BF90AF909F908F900895EE
:100BD0001281612F70E090E080E00E94760B4B0163
:100BE0005C01F70163816F7070E090E080E00E942B
:100BF000780B2DEC3CEC4CEC5DE30E94D70BA5018F
:100C000094010E942E0D17FFD4CF9058D2CFCF93CE
:100C1000DF93EB01FC0183894BE050E06DE371E071
:100C20008C30C1F058F44BE050E067E371E08B305A
:100C300089F04BE050E06FE471E00CC04BE050E015
:100C400063E471E0853131F04BE050E069E471E03C
:100C5000863179F7CE010E94910F1B86DF91CF91EB
:100C600008950F931F93CF93DF938C01EB0188E2DC
:100C7000DB011D928A95E9F7F801838194810E9436
:100C8000070681E090E0A0E0B0E08C879D87AE870A
:100C9000BF87F80185819681A781B085888B998B64
:100CA000AA8BBB8B8CE090E0A0E0B0E08C8B9D8B9E
:100CB000AE8BBF8BBE01838194810E94EB03D80170
:100CC0001396ED91FC9183898C3009F441C078F43E
:100CD0008B3009F1188E198E1A8E1B8E1C8E1D8E6C
:100CE0001E8E1F8E18A219A21AA21BA22CC08551FB
:100CF000823080F780E090E0A8ECB2E4888F998F92
:100D0000AA8FBB8F1C8E1D8E1E8E1F8E8DEC9CECB1
:100D1000ACECBDE314C080E090E0A0EAB2E4888FC0
:100D2000998FAA8FBB8F80E090E0A0EAB1E48C8F0E
:100D30009D8FAE8FBF8F80E090E0A0EAB0E488A3E3
:100D400099A3AAA3BBA3DF91CF911F910F910895FF
:100D500080E090E0AEEBB2E4E2CF0F931F93CF932D
:100D6000DF938C01EB0188E2DB011D928A95E9F7A4
:100D7000F801838194810E94070681E090E0A0E061
:100D8000B0E08C879D87AE87BF87F801858196810B
:100D9000A781B085888B998BAA8BBB8B8DE090E067
:100DA000A0E0B0E08C8B9D8BAE8BBF8BBE018381AE
:100DB00094810E94EB03D8011396ED91FC918389F5
:100DC0008C3091F178F48B30B1F0188E198E1A8E28
:100DD0001B8E1C8E1D8E1E8E1F8E18A219A21AA28B
:100DE0001BA21DC08531A9F1863179F780E090E022
:100DF000AAEFB2E432C080E090E0A8E4B2E4888FC9
:100E0000998FAA8FBB8F1C8E1D8E1E8E1F8E80E029
:100E100090E0A0E0B0E488A399A3AAA3BBA3DF91CC
:100E2000CF911F910F91089580E090E0A0E7B2E488
:100E3000888F998FAA8FBB8F80E090E0A0EAB1ECF9
:100E40008C8F9D8FAE8FBF8F80E090E0A0E0BFE3DE
:100E5000E2CF80E090E0A0EAB2E4888F998FAA8F79
:100E6000BB8F80E090E0A0E2B2EC8C8F9D8FAE8FC4
:100E7000BF8F8DEC9CECACECBDE3CDCF1F920F92FD
:100E80000FB60F9211242F933F938F939F93AF939D
:100E9000BF9380918B0190918C01A0918D01B091B5
:100EA0008E013091860123E0230F2D3758F50196EE
:100EB000A11DB11D2093860180938B0190938C011D
:100EC000A0938D01B0938E0180918701909188014C
:100ED000A0918901B0918A010196A11DB11D809355
:100EE000870190938801A0938901B0938A01BF91F3
:100EF000AF919F918F913F912F910F900FBE0F90C7
:100F00001F90189526E8230F0296A11DB11DD2CF80
:100F10001F920F920FB60F9211242F933F934F936E
:100F20005F936F937F938F939F93AF93BF93EF9351
:100F3000FF938FE891E00E94CC01FF91EF91BF9168
:100F4000AF919F918F917F916F915F914F913F9161
:100F50002F910F900FBE0F901F9018951F920F9218
:100F60000FB60F9211242F938F939F93EF93FF93BC
:100F7000E0919F01F091A0018081E091A501F091A5
:100F8000A60182FD1BC090818091A8018F5F8F73A5
:100F90002091A901821741F0E091A801F0E0E1570A
:100FA000FE4F958F8093A801FF91EF919F918F91B4
:100FB0002F910F900FBE0F901F9018958081F4CF46
:100FC000EF92FF920F931F93CF93DF93CDB7DEB7CE
:100FD000AC970FB6F894DEBF0FBECDBFEFE8F1E0DF
:100FE0001382128288EE93E0A0E0B0E084839583C0
:100FF000A683B7838AE091E09183808385EC90E0BB
:101000009587848784EC90E09787868780EC90E0D2
:10101000918B808B81EC90E0938B828B82EC90E0C3
:10102000958B848B86EC90E0978B868B118E128E3D
:10103000138E148EAEE5B2E082E015968C93159770
:101040008BE016968C931697EEEFF0E0E4911796EE
:10105000EC931797EAEEF0E0E4911896EC9318976A
:1010600040E85EE360E070E01D964D935D936D9304
:101070007C93509753968C9353978AE291E05596C0
:101080009C938E9354970A2E1B2E58961C920E9268
:10109000112457974FEF5FEFBA0159964D935D9327
:1010A0006D937C935C978CE191E05E969C938E931C
:1010B0005D970A2E1B2E91961C920E9211249097EA
:1010C00092964D935D936D937C93959718A61FA26E
:1010D0001AA619A61CA61BA667E371E0CE01879687
:1010E0000E94670488E0E0E4F2E0DE015996019096
:1010F0000D928A95E1F788E0E0E4F2E0DE01519696
:1011000001900D928A95E1F71AA219A21CA21BA2C6
:101110001EA21DA2BE01695D7F4FCE0181960E9475
:10112000920488E0FE017996DE01199601900D92F5
:101130008A95E1F788E0FE017196DE011196019033
:101140000D928A95E1F7E8E4F2E0118A108A138A99
:10115000128A158A148A66E371E088E592E00E949B
:101160006704BE016F5D7F4F88E592E00E949204A4
:1011700088E0FE013996A8E4B2E001900D928A95CC
:10118000E1F788E0FE013196A0E5B2E001900D9212
:101190008A95E1F7CE0181960E94BC04CE01879624
:1011A0000E94BC041AA219A21CA21BA21EA21DA26C
:1011B00064E571E0CE0181960E94670406E312E0C7
:1011C000F80115821482178216821186108666E352
:1011D00071E08AE392E00E946704BE016F5D7F4F79
:1011E0008AE392E00E949204EE24EA94FE2CF80135
:1011F000F182E082F382E282CE0181960E94BC04F9
:101200001AA219A21CA21BA21EA21DA267E671E0CF
:10121000CE0181960E9467040CE212E0F80115826B
:101220001482178216821186108666E371E080E3CD
:1012300092E00E946704BE016F5D7F4F80E392E001
:101240000E949204F801F182E082F382E282CE01F0
:1012500081960E94BC04AC960FB6F894DEBF0FBE18
:10126000CDBFDF91CF911F910F91FF90EF90089527
:10127000CF93DF93CDB7DEB7CD55D1090FB6F89434
:10128000DEBF0FBECDBF789484B5826084BD84B5C7
:10129000816084BD85B5826085BD85B5816085BD71
:1012A00080916E00816080936E0010928100809129
:1012B00081008260809381008091810081608093B1
:1012C0008100809180008160809380008091B100D6
:1012D00084608093B1008091B00081608093B00001
:1012E00080917A00846080937A0080917A00826095
:1012F00080937A0080917A00816080937A00809157
:101300007A00806880937A001092C100E0919F017A
:10131000F091A00182E08083E0919B01F0919C011B
:101320001082E0919D01F0919E018FEC80831092DC
:10133000A701E091A301F091A40186E08083E091F0
:10134000A101F091A201808180618083E091A101DF
:10135000F091A201808188608083E091A101F091E9
:10136000A201808180688083E091A101F091A201B7
:1013700080818F7D808362E0809163020E94B4004F
:101380002FB7F89480918B0190918C01A0918D01E1
:10139000B0918E012FBF805D9740A109B109809364
:1013A000670290936802A0936902B0936A0287E390
:1013B0008093700282E790E00E940D042AE0C22E22
:1013C000D12CE12CF12C99EC892E9CEF992EAA249A
:1013D000AA94BA2C8CE1282E81E0382E8EE00E944F
:1013E000E5009C01990F440B550B2F5F33404109D9
:1013F0005109A4E6B0E00E94B40C2FE43CEF4FEF9B
:101400005FEF0E94950C29018FE00E94E5009C018E
:10141000990F440B550B2F5F334041095109A4E646
:10142000B0E00E94B40CA50194010E94950CB90192
:1014300080913802909139024816590621F0509255
:1014400039024092380280912E0290912F02681743
:101450007907D9F130932F0220932E0285E791E08E
:101460000E94000440902E0250902F02052C000C88
:101470006608770877FEC0C06DE28FE891E00E94B1
:10148000EE0122273327A9012419350946095709F6
:1014900019A28E010F5D1F4FCA01B901A701960164
:1014A0000E94F60C605DF80162938F0121153105F1
:1014B0004105510589F70115110519F0C8010E9470
:1014C000000484E391E00E940004809174028FA3E1
:1014D0008AE291E09EA38DA380917502909176029D
:1014E00099A788A78091770290917802A0917902BC
:1014F000B0917A028AA79BA7ACA7BDA7BE016F5F78
:101500007F4FCE0185960E944E054D885E886F887C
:10151000788CA3019201C301B2010E949A0D882325
:1015200009F480C085EA90E00E940D0480917D025C
:101530008FA33EA22DA280917E0290917F0299A757
:1015400088A78091800290918102A0918202B0913F
:1015500083028AA79BA7ACA7BDA7BE016F5F7F4F81
:10156000CE0185960E94C8044D885E886F88788C6D
:10157000A3019201C301B2010E949A0D811194C08E
:1015800088E0E0E5F2E0DE01DE9601900D928A95BA
:10159000E1F726962CAD3DAD4EAD5FAD2697C3016C
:1015A000B2010E94710B882309F482C088E0E0E553
:1015B000F2E0DE019E9601900D928A95E1F788E0B7
:1015C000FE01BE96DE01D69601900D928A95E1F756
:1015D0002AAD3BAD4CAD5DADC301B2010E94710BB4
:1015E000882309F465C040925402509255026092DB
:1015F0005602709257025CC0A301920119A28E019B
:101600000F5D1F4FCA01B901A70196010E94F60C98
:10161000605DF80162938F01211531054105510587
:1016200089F749CF88E0E0E5F2E0DE01AA5ABF4F32
:1016300001900D928A95E1F76A962CAD3DAD4EADC5
:101640005FAD6A97C301B2010E94710B882309F450
:101650006DCF88E0E0E5F2E0DE01AA5BBF4F0190CC
:101660000D928A95E1F788E0FE01EA5BFF4FDE010B
:10167000A25BBF4F01900D928A95E1F762962CAD67
:101680003DAD4EAD5FAD6297C301B2010E94710BDB
:10169000882309F44BCF409250025092510260923D
:1016A00052027092530242CF8DE890E00E940D04E6
:1016B000E0E0F0E0EF2B09F491CE0E94B80188231E
:1016C00009F488CE0E9400007ECE80E392E00E9462
:1016D000BC048AE392E00E94BC0488E592E00C948A
:1016E000BC040E94B30B08F481E00895E89409C09B
:1016F00097FB3EF490958095709561957F4F8F4F45
:101700009F4F9923A9F0F92F96E9BB279395F6955A
:10171000879577956795B795F111F8CFFAF4BB0FD8
:1017200011F460FF1BC06F5F7F4F8F4F9F4F16C03C
:10173000882311F096E911C0772321F09EE8872FC6
:10174000762F05C0662371F096E8862F70E060E082
:101750002AF09A95660F771F881FDAF7880F9695FB
:10176000879597F90895990F0008550FAA0BE0E89F
:10177000FEEF16161706E807F907C0F01216130653
:10178000E407F50798F0621B730B840B950B39F493
:101790000A2661F0232B242B252B21F408950A26F9
:1017A00009F4A140A6958FEF811D811D08950E9427
:1017B000EA0B0C945B0C0E944D0C38F00E94540C08
:1017C00020F0952311F00C94440C0C944A0C112435
:1017D0000C948F0C0E946C0C70F3959FC1F3950FC5
:1017E00050E0551F629FF001729FBB27F00DB11DA5
:1017F000639FAA27F00DB11DAA1F649F6627B00D35
:10180000A11D661F829F2227B00DA11D621F739F1D
:10181000B00DA11D621F839FA00D611D221F749F2B
:101820003327A00D611D231F849F600D211D822F72
:10183000762F6A2F11249F5750409AF0F1F0882399
:101840004AF0EE0FFF1FBB1F661F771F881F9150C6
:101850005040A9F79E3F510580F00C94440C0C9425
:101860008F0C5F3FE4F3983ED4F3869577956795A8
:10187000B795F795E7959F5FC1F7FE2B880F911DF0
:101880009695879597F9089597F99F6780E870E096
:1018900060E008959FEF80EC089500240A941616E6
:1018A000170618060906089500240A94121613064E
:1018B000140605060895092E0394000C11F48823DC
:1018C00052F0BB0F40F4BF2B11F460FF04C06F5FF8
:1018D0007F4F8F4F9F4F089557FD9058440F551FCE
:1018E00059F05F3F71F04795880F97FB991F61F0A2
:1018F0009F3F79F087950895121613061406551F19
:10190000F2CF4695F1DF08C0161617061806991F84
:10191000F1CF86957105610508940895E894BB2779
:1019200066277727CB0197F90895052E97FB1EF4BC
:1019300000940E94AC0C57FD07D00E94F60C07FCE7
:1019400003D04EF40C94AC0C5095409530952195F5
:101950003F4F4F4F5F4F08959095809570956195DB
:101960007F4F8F4F9F4F08950E94180DA59F900D98
:10197000B49F900DA49F800D911D112408952F9266
:101980003F924F925F926F927F928F929F92AF920F
:10199000BF92CF92DF92EF92FF920F931F93CF935C
:1019A000DF93CDB7DEB7CA1BDB0B0FB6F894DEBFF3
:1019B0000FBECDBF09942A88398848885F846E8419
:1019C0007D848C849B84AA84B984C884DF80EE8063
:1019D000FD800C811B81AA81B981CE0FD11D0FB66C
:1019E000F894DEBF0FBECDBFED010895A1E21A2E1F
:1019F000AA1BBB1BFD010DC0AA1FBB1FEE1FFF1FB3
:101A0000A217B307E407F50720F0A21BB30BE40B02
:101A1000F50B661F771F881F991F1A9469F7609549
:101A20007095809590959B01AC01BD01CF01089503
:101A3000A29FB001B39FC001A39F700D811D11240F
:101A4000911DB29F700D811D1124911D0895EE0FFF
:101A5000FF1F0590F491E02D09945058BB27AA2749
:101A60000E94450D0C945B0C0E944D0C38F00E94B6
:101A7000540C20F039F49F3F19F426F40C944A0CCE
:101A80000EF4E095E7FB0C94440CE92F0E946C0CDB
:101A900058F3BA17620773078407950720F079F4A3
:101AA000A6F50C948E0C0EF4E0950B2EBA2FA02DFB
:101AB0000B01B90190010C01CA01A0011124FF27FB
:101AC000591B99F0593F50F4503E68F11A16F040F6
:101AD000A22F232F342F4427585FF3CF46953795F5
:101AE0002795A795F0405395C9F77EF41F16BA0BBA
:101AF000620B730B840BBAF09150A1F0FF0FBB1F68
:101B0000661F771F881FC2F70EC0BA0F621F731FB0
:101B1000841F48F4879577956795B795F7959E3F0D
:101B200008F0B0CF9395880F08F09927EE0F97959E
:101B3000879508950E94B30B880B990B08950F9316
:101B40001F93CF93DF938230910510F482E090E0F1
:101B5000E0918602F091870230E020E0B0E0A0E062
:101B6000309799F42115310509F44AC0281B390B27
:101B700024303105D8F58A819B816115710589F181
:101B8000FB0193838283FE0111C040815181028158
:101B9000138148175907E0F04817590799F410972F
:101BA00061F012960C93129713961C933296CF0104
:101BB000DF91CF911F910F910895009386021093AA
:101BC0008702F4CF2115310551F04217530738F041
:101BD000A901DB019A01BD01DF01F801C1CFEF01CD
:101BE000F9CF9093870280938602CDCFFE01E20F5A
:101BF000F31F819391932250310939832883D7CFE2
:101C00002091840230918502232B41F4209102011E
:101C100030910301309385022093840220910001CA
:101C2000309101012115310541F42DB73EB74091A6
:101C3000040150910501241B350BE0918402F091C1
:101C40008502E217F307A0F42E1B3F0B2817390774
:101C500078F0AC014E5F5F4F2417350748F04E0F08
:101C60005F1F5093850240938402819391939FCF8D
:101C7000F0E0E0E09CCFCF93DF930097E9F0FC0128
:101C8000329713821282A0918602B0918702ED01F1
:101C900030E020E01097A1F420813181820F931F62
:101CA00020918402309185022817390709F061C01C
:101CB000F0938502E0938402DF91CF910895EA01C9
:101CC000CE17DF07E8F54A815B819E01411551057A
:101CD000B1F7E901FB83EA8349915991C40FD51FFC
:101CE000EC17FD0761F4808191810296840F951FA6
:101CF000E90199838883828193819B838A83F0E0C1
:101D0000E0E012968D919C9113970097B9F52D9173
:101D10003C911197CD010296820F931F209184026E
:101D2000309185022817390739F6309751F510920E
:101D3000870210928602B0938502A0938402BCCFE2
:101D4000D383C28340815181840F951FC817D9075F
:101D500061F44E5F5F4F88819981480F591F51830D
:101D600040838A819B81938382832115310509F009
:101D7000B0CFF0938702E09386029ECFFD01DC0195
:101D8000C0CF13821282D7CFB0E0A0E0EAECFEE031
:101D90000C94C10C8C01009751F4CB010E949F0D53
:101DA0008C01C801CDB7DEB7E0E10C94DD0CFC017D
:101DB000E60FF71F9C0122503109E217F30708F4E0
:101DC0009DC0D901CD91DC911197C617D70798F026
:101DD000C530D10530F3CE0104978617970708F375
:101DE000C61BD70B2297C193D1936D937C93CF01E0
:101DF0000E943B0ED6CF5B01AC1ABD0A4C018C0E83
:101E00009D1EA0918602B0918702512C412CF12C8D
:101E1000E12C109731F5809184029091850288150C
:101E2000990509F05CC04616570608F058C0809125
:101E3000000190910101009741F48DB79EB7409148
:101E4000040150910501841B950BE817F90708F070
:101E500055C0F0938502E0938402F9017183608399
:101E6000A0CF8D919C91119712966C90129713961A
:101E70007C901397A815B90559F56C0142E0C40E82
:101E8000D11CCA14DB0420F1AC014A195B09DA0148
:101E90001296159780F06282738251834083D90134
:101EA0006D937C93E114F10471F0D7011396FC93C8
:101EB000EE93129776CF22968C0F9D1FF901918396
:101EC0008083F301EFCFF0938702E093860269CF1E
:101ED0004816590608F42C017D01D3019ACFCB0195
:101EE0000E949F0D7C01009749F0AE01B8010E944D
:101EF000810FC8010E943B0E870153CF10E000E024
:101F000050CFFB01DC0102C001900D9241505040C6
:101F1000D8F70895FB01DC0101900D920020E1F754
:101F20000895FB01DC014150504048F001900D92B2
:101F30000020C9F701C01D9241505040E0F70895BC
:101F400010E0C9E8D0E004C0FE010E94270D2196F0
:0A1F5000CA38D107C9F7F894FFCF93
:101F5A0000008802800000000000EE014E017B01B3
:101F6A003B02AC018A019E0100000000FE03C4048A
:101F7A00FF03C804310600000000FE03C604FF0385
:101F8A004E05AD060D0A0044485431310044485408
:101F9A003132004448543231004448543232004409
:101FAA0048543F0073756E6C696768745F696E7434
:101FBA00656E7369747900736F696C5F6D6F6973AD
:101FCA007475726500736F696C206D6F69737475CF
:061FDA0072653A200000D0
:00000001FF
