:100000000C94CC000C94F4000C94F4000C94F400C8
:100010000C94F4000C94F4000C94F4000C94F40090
:100020000C94F4000C94F4000C94F4000C94F40080
:100030000C94F4000C94F4000C94F4000C94F40070
:100040000C94400E0C94F4000C94B00E0C948A0E98
:100050000C94F4000C94F4000C94F4000C94F40050
:100060000C94210D0C94F4000000000023002600E5
:10007000290032313A35353A3034004A756E202045
:100080003820323032310032313A35353A303400AE
:100090004A756E2020382032303231005573696E37
:1000A0006720444854787820556E696669656420F5
:1000B00053656E736F72004572726F722072656164
:1000C00064696E672068756D69646974792100459B
:1000D00072726F722072656164696E672068756DF7
:1000E00069646974792100250048756D69646974D3
:1000F000793A20004572726F722072656164696E90
:10010000672068756D69646974792100C2B0430025
:1001100054656D70657261747572653A2000457240
:10012000726F722072656164696E672074656D70AC
:10013000657261747572652100000000002400275B
:10014000002A0000000000250028002B000000000D
:100150000800020100000304070000000000000086
:10016000001F1C1F1E1F1E1F1F1E1F1E0404040431
:100170000404040402020202020203030303030351
:10018000010204081020408001020408102001022E
:1001900004081020E20EA81311241FBECFEFD8E0F0
:1001A000DEBFCDBF11E0A0E0B1E0EAE9F0E302C0BC
:1001B00005900D92AA3FB107D9F723E0AAEFB1E06D
:1001C00001C01D92A83CB207E1F710E0CBECD0E0F3
:1001D00004C02197FE010E949315CA3CD107C9F7BC
:1001E0000E9485100C9440180C940000209122026B
:1001F000260F3327331F21323105ECF4209193026F
:10020000FC0190E080E0243069F082E00895A09144
:1002100022022191AC0140505E4FA40FB52FB11DB9
:100220002C930196861798F380912202680F6093B1
:10023000220280E0089581E00895089508950895C8
:10024000E0914C0280914B02E81730F4F0E0E35B60
:10025000FD4F808190E008958FEF9FEF089590917A
:100260004C0280914B022FEF3FEF981748F4E92F93
:10027000F0E0E35BFD4F208130E09F5F90934C0204
:10028000C901089580914B0290914C02891B990BF2
:100290000895CF92DF92EF92FF920F931F93CF9327
:1002A000DF937C01CB018A0120919902222389F0FE
:1002B000EB016B01C40ED51ECC15DD0569F069910B
:1002C000D701ED91FC910190F081E02DC7010995D6
:1002D000F3CF642F0E94F600C801DF91CF911F91E8
:1002E0000F91FF90EF90DF90CF900895CF93DF9321
:1002F0001F92CDB7DEB76983209199022223F9F0CE
:100300002091BC02203258F021E030E0FC01338320
:10031000228390E080E00F90DF91CF91089580914B
:100320009A02E82FF0E0E556FD4F998190838F5FA8
:1003300080939A028093BC0281E090E0ECCF61E070
:10034000CE0101960E94F600F7CF90E0FC01E35B3E
:10035000FE4F2491FC01E058FE4F3491FC01E4591A
:10036000FE4FE491EE23C9F0222339F0233001F14E
:10037000A8F4213019F1223029F1F0E0EE0FFF1F2F
:10038000ED5BFE4FA591B4918FB7F894EC9161119C
:1003900026C030953E233C938FBF08952730A9F0A7
:1003A0002830C9F0243049F7809180008F7D03C048
:1003B000809180008F7780938000DFCF84B58F7726
:1003C00084BDDBCF84B58F7DFBCF8091B0008F776C
:1003D0008093B000D2CF8091B0008F7DF9CF3E2BBB
:1003E000DACF1092930281E08093920210926D0214
:1003F00061E082E10E94A50161E083E10E94A50124
:10040000E9EBF0E080818E7F808380818D7F808327
:1004100088E48093B80085E48093BC000895CF936E
:10042000DF9391E09093FF018823B9F0C091B80069
:10043000D091BA008091BC008A7B8093BC0060E0C0
:1004400082E10E94A50160E083E10E94A5010E9473
:10045000F101D093BA00C093B800DF91CF91089515
:10046000CF93DF9390E0FC01E058FE4F2491845934
:100470009E4FFC0184918823D1F090E0880F991F52
:10048000FC01E75CFE4FA591B491FC01ED5BFE4FD2
:10049000C591D491623071F49FB7F8943C91822F4A
:1004A000809583238C93E8812E2B28839FBFDF9137
:1004B000CF9108958FB7F894EC912E2B2C938FBF8A
:1004C000F6CF8E50806480937C0080917A008064A7
:1004D00080937A0080917A0086FDFCCF809178002D
:1004E0009091790008953FB7F8948091FB01909125
:1004F000FC01A091FD01B091FE0126B5A89B05C0AD
:100500002F3F19F00196A11DB11D3FBFBA2FA92F92
:10051000982F8827BC01CD01620F711D811D911D8F
:1005200042E0660F771F881F991F4A95D1F70895FB
:10053000CF92DF92EF92FF920F931F93CF93DF93AF
:10054000D091BC0281E0D13208F09CC0C091BB02C6
:100550000E9473026B017C018091930281116CC037
:1005600082E08093930281E0809392028FEF8093E8
:10057000910210929002D0938F02ABE9B2E0EFE6C5
:10058000F2E080E0D8138DC010926E0280916E026E
:10059000CC0FC82BC0936E0280916D02813009F0A0
:1005A00084C010926D020E9473026B017C018091E5
:1005B0006E028093BB008091950290919602A0916B
:1005C0009702B0919802892B8A2B8B2BA1F00E9465
:1005D000730200919502109196022091970230913A
:1005E00098026C197D098E099F09061717072807BD
:1005F000390708F442C08091BC0083FDD8CF85EC58
:100600008093BC000E9473026B017C018091930275
:10061000823009F44CC0809191028F3F09F469C087
:1006200080919102803209F466C0809191028033FA
:1006300009F463C084E026C08091950290919602EF
:10064000A0919702B0919802892B8A2B8B2B09F4E9
:1006500083CF0E947302009195021091960220911F
:100660009702309198026C197D098E099F0906172F
:1006700017072807390708F06FCF809194020E946E
:100680000F0285E010929A021092BC021092990219
:10069000DF91CF911F910F91FF90EF90DF90CF905E
:1006A00008959D9191938F5F6DCF85EEA9CF809135
:1006B000950290919602A0919702B0919802892B91
:1006C0008A2B8B2B09F4A2CF0E9473020091950212
:1006D0001091960220919702309198026C197D0931
:1006E0008E099F09061717072807390708F08ECFCC
:1006F000C4CF80E0C7CF82E0C5CF83E0C3CFCF9225
:10070000DF92EF92FF920F931F93CF93DF93D82F37
:10071000C62F613208F098C00E9473026B017C0101
:100720008091930281116BC081E08093930280934A
:1007300092029FEF90939102109290029C0F9093DF
:100740008F0280936E0280916E02DD0FD82BD093C2
:100750006E0280916D02813009F078C010926D02B6
:100760000E9473026B017C0180916E028093BB003A
:100770008091950290919602A0919702B091980273
:10078000892B8A2B8B2BA1F00E947302009195027A
:100790001091960220919702309198026C197D0970
:1007A0008E099F09061717072807390708F448C05C
:1007B0008091BC0083FDD8CF85EC8093BC000E9463
:1007C00073026B017C0180919302813009F440C077
:1007D000809190028C1710F4C0919002EFE6F2E045
:1007E000ADE4B2E080E08C1355C08C2FDF91CF9147
:1007F0001F910F91FF90EF90DF90CF90089580911F
:10080000950290919602A0919702B0919802892B3F
:100810008A2B8B2B09F484CF0E94730200919502DE
:100820001091960220919702309198026C197D09DF
:100830008E099F09061717072807390708F070CF98
:10084000809194020E940F02C0E0CFCF85EEB5CF19
:100850008091950290919602A0919702B091980292
:10086000892B8A2B8B2B09F4AECF0E947302009147
:1008700095021091960220919702309198026C197E
:100880007D098E099F09061717072807390708F001
:100890009ACFD6CF91919D938F5FA5CF8F929F9244
:1008A000AF92BF92CF92DF92EF92FF924B015C0129
:1008B0000E9473026B017C010E9473026C197D0916
:1008C0008E099F09683E734081059105A8F321E0D8
:1008D000821A9108A108B10888EEC80E83E0D81EDC
:1008E000E11CF11C81149104A104B10429F7FF90CB
:1008F000EF90DF90CF90BF90AF909F908F90089532
:10090000AF92BF92CF92DF92EF92FF920F931F931D
:10091000CF93DF936C017B018B01040F151FEB015B
:100920005E01AE18BF08C017D10759F06991D60112
:10093000ED91FC910190F081E02DC6010995892B84
:1009400079F7C501DF91CF911F910F91FF90EF9043
:10095000DF90CF90BF90AF90089590E080E0089531
:10096000FC01538D448D252F30E0842F90E0821BB5
:10097000930B541710F0CF96089501970895FC013A
:10098000918D828D981761F0A28DAE0FBF2FB11D92
:100990005D968C91928D9F5F9F73928F90E00895EA
:1009A0008FEF9FEF0895FC01918D828D981731F0A4
:1009B000828DE80FF11D858D90E008958FEF9FEFF8
:1009C0000895FC01918D228D892F90E0805C9F4FCE
:1009D000821B91098F739927089589EC92E00E94F8
:1009E000E10421E0892B09F420E0822F089580E0C2
:1009F00090E0892B29F00E94ED0481110C940000F5
:100A00000895FC01A48DA80FB92FB11DA35ABF4FA3
:100A10002C91848D90E001968F739927848FA689FD
:100A2000B7892C93A089B1898C91837080648C9351
:100A3000938D848D981306C00288F389E02D808100
:100A40008F7D80830895EF92FF920F931F93CF9332
:100A5000DF93EC0181E0888F9B8D8C8D98131AC0F9
:100A6000E889F989808185FF15C09FB7F894EE89E0
:100A7000FF896083E889F98980818370806480833D
:100A80009FBF81E090E0DF91CF911F910F91FF9088
:100A9000EF900895F62E0B8D10E00F5F1F4F0F7330
:100AA0001127E02E8C8D8E110CC00FB607FCFACFEB
:100AB000E889F989808185FFF5CFCE010E94010583
:100AC000F1CFEB8DEC0FFD2FF11DE35AFF4FF082BC
:100AD0009FB7F8940B8FEA89FB8980818062CFCF22
:100AE0000F931F93CF93DF938C01D0E0C0E0F80108
:100AF000EC0FFD1F6491662341F089EC92E00E94A7
:100B00002305892B11F02196F2CFCE01DF91CF91F1
:100B10001F910F910895CF93DF93EC01888D882367
:100B2000B9F0AA89BB89E889F9898C9185FD03C050
:100B3000808186FD0DC00FB607FCF7CF8C9185FF35
:100B4000F2CF808185FFEDCFCE010E940105E9CF74
:100B5000DF91CF910895FC01908190539A3008F075
:100B600090E0818180532AE0929F800D11240895A6
:100B7000CF92DF92EF92FF92CF93DF93DC01179633
:100B8000CC911797D0E06111DC2F18962C91189713
:100B900030E0220F331F28593F4F50E040E0F90169
:100BA00085919491FC01F080BA0190E080E0EF2DF6
:100BB000EC23ED1310C04F5F5F4F1D96CD90DD907D
:100BC000ED90FC9050976C157D058E059F0538F3D0
:100BD0006FEF7FEFCB01DF91CF91FF90EF90DF9030
:100BE000CF9008958F929F92AF92BF92CF92DF9253
:100BF000EF92FF920F931F93CF93DF93CDB7DEB7A2
:100C0000C054D1400FB6F894DEBF0FBECDBF2FB792
:100C1000F8944091470250914802609149027091C6
:100C20004A022FBFFC0101851285238534856A01A4
:100C30007B01C01AD10AE20AF30A97018601003D3E
:100C4000174021053105B0F4FC018189C05CDE4FFD
:100C50000FB6F894DEBF0FBECDBFDF91CF911F91CD
:100C60000F91FF90EF90DF90CF90BF90AF909F904B
:100C70008F9008958C01FC014187528763877487A8
:100C80001482138212821182108262E085810E9496
:100C9000300261E070E080E090E00E944E0461E08C
:100CA000F80185810E94300260E0F80185810E9490
:100CB000A501F80186818551823028F58BE291E10A
:100CC0000197F1F762E0F80185810E943002F80196
:100CD000828990E08230910538F0880F991F880F43
:100CE000991F05970197F1F7F89460E0C8010E94F9
:100CF000B8056F3F7F4F8F4F9F4F61F4F801118A06
:100D0000789480E0A3CF64E170E080E090E00E94FE
:100D10004E04D8CF61E0C8010E94B8056F3F7F4FF5
:100D20008F4F9F4F59F3CE0101967C015E019FEBDF
:100D3000A91A9EEFB90A670160E0C8010E94B805D0
:100D4000F601608371838283938361E0C8010E940E
:100D5000B805F6016483758386839783F8E0CF0E28
:100D6000D11CCA14DB0441F7789430E020E0F7018D
:100D700080809180A280B380448155816681778193
:100D8000FFEF8F169F06AF06BF0631F04F3F8FEF84
:100D900058076807780719F4F801118AB2CFF901EA
:100DA00083E0F595E7958A95E1F7E00FF11F8081E3
:100DB000880F84169506A606B706F0F080832F5F8D
:100DC0003F4FF8E0EF0EF11C2832310581F6F801B3
:100DD000448120818181280F3327331F8281280F8E
:100DE000311D8381820F932F911D99274817190672
:100DF00099F681E0818B2ACF8160E0CFFC01838965
:100E00008B3051F480E492E4AFE0B0E0FB0184A3C6
:100E100095A3A6A3B7A3089580E894E8AEE1B0E057
:100E2000F5CF0895089581E08093990288E6809334
:100E3000BB0210929A021092BC026FE08DEB92E01E
:100E40000E9476010E94980261E088E60E947F037A
:100E500010924C0280934B028DEB92E00E942F0186
:100E600008951F93CF93DF93EC0181E08093990263
:100E700088E68093BB0210929A021092BC0260E056
:100E80008DEB92E00E9476012D811AE0822F612F76
:100E90000E947315682F660F680F660F620F8DEB47
:100EA00092E00E9476012C81822F612F0E9473159F
:100EB000682F660F680F660F620F8DEB92E00E943D
:100EC00076012B81822F612F0E947315682F660F88
:100ED000680F660F620F8DEB92E00E9476016981C8
:100EE0009881492F50E08A81282F30E0E1E6F1E037
:100EF00081E0861730F47491270F311D8F5F319692
:100F0000F8CF633020F0937011F42F5F3F4F6DE600
:100F100071E0469FC001479F900D569F900D112490
:100F200005964D5F5F4F5695479556954795840FAB
:100F3000951F820F931F67E070E00E947F15682F56
:100F4000811101C067E08DEB92E00E9476012A8159
:100F50001AE0822F612F0E947315682F660F680FA9
:100F6000660F620F8DEB92E00E9476012981822F3D
:100F7000612F0E947315682F660F680F660F620F4E
:100F80008DEB92E00E9476012881822F612F0E94D2
:100F90007315682F660F680F660F620F8DEB92E076
:100FA0000E9476010E9498020E941307C82F81E0D8
:100FB0008093990288E68093BB0210929A02109265
:100FC000BC026FE08DEB92E00E9476016C2F6F7790
:100FD0008DEB92E00E947601DF91CF911F910C94EE
:100FE0009802FC0101900020E9F73197AF01481BFE
:100FF000590BBC0189EC92E00C948004CF93DF93F1
:101000000E947005EC0186E491E00E94F1078C0FCC
:101010009D1FDF91CF9108958F929F92AF92BF92C3
:101020000F931F93CF93DF93CDB7DEB7A1970FB682
:10103000F894DEBF0FBECDBF19A2423008F44AE0DB
:101040008E010F5D1F4F842E912CB12CA12CA50178
:1010500094010E944215E62FB901CA01EA30F4F466
:10106000E05DD801EE938D01232B242B252B79F7FE
:1010700090E080E0109719F0CD010E94F107A19651
:101080000FB6F894DEBF0FBECDBFDF91CF911F9199
:101090000F91BF90AF909F908F900895E95CE1CF42
:1010A000CF92DF92EF92FF92CF93DF936B017C019F
:1010B0006DE289EC92E00E942305EC016627772718
:1010C000CB016C197D098E099F094AE00E940C082A
:1010D0008C0F9D1FDF91CF91FF90EF90DF90CF900D
:1010E0000895CF93DF930E94F107EC0186E491E02D
:1010F0000E94F1078C0F9D1FDF91CF9108954F92B1
:101100005F926F927F928F929F92AF92BF92CF9297
:10111000DF92EF92FF926B017C01AC019B010E9478
:101120003A16882381F089E491E0FF90EF90DF90F8
:10113000CF90BF90AF909F908F907F906F905F9077
:101140004F900C94F10746015701E894B7F82FEF40
:101150003FEF4FE75FE7C501B4010E943A168111E6
:101160000DC02FEF3FEF4FE75FE7C501B4010E94CD
:10117000BD1318161CF48DE491E0D7CF2FEF3FEF8D
:101180004FE75FE4C701B6010E94351618161CF43C
:1011900081E591E0CACF2FEF3FEF4FE75FECC7014A
:1011A000B6010E94BD1387FDF3CF20E030E0A90116
:1011B000C701B6010E94BD13B12CA12C87FF0AC044
:1011C0006DE289EC92E00E9423055C01F7FAF0944D
:1011D000F7F8F0942AE037ED43EA5BE3C701B60184
:1011E0000E949A152B013C010E9406166B017C019E
:1011F0000E94C2139B01AC01C301B2010E94991568
:101200002B013C014AE0C701B6010E940C087C0199
:10121000EA0CFB1C6EE289EC92E00E942305E80ECA
:10122000F91E20E030E040E251E4C301B2010E9427
:1012300023142B013C010E9406164B01B12CA12C5A
:101240004AE0C501B4010E940C08E80EF91EC50170
:10125000B4010E94C2139B01AC01C301B2010E9400
:10126000991520E030E040E251E40E9423140E94EE
:10127000061690E080E04AE00E940C088E0D9F1D4B
:10128000FF90EF90DF90CF90BF90AF909F908F90A6
:101290007F906F905F904F90089585ED8093BC0094
:1012A0008091950290919602A0919702B091980238
:1012B0000796A11DB11D23E0B695A7959795879533
:1012C0002A95D1F72091BC0024FD03C0109293020F
:1012D0000895409195025091960260919702709105
:1012E0009802452B462B472B69F30097A105B105C2
:1012F00041F025E32A95F1F700000197A109B10912
:10130000E1CF809194020C940F020F931F93CF931F
:10131000DF93EC0188819981009759F02A813B8104
:101320002617370730F081E0DF91CF911F910F91A1
:1013300008958B016F5F7F4F0E946417009759F0EB
:10134000998388831B830A832C813D81232B59F742
:10135000FC011082E8CF80E0E7CFCF93DF93EC0170
:1013600088819981009711F00E94DB1619821882FA
:101370001D821C821B821A82DF91CF910895EF9209
:10138000FF920F931F93CF93DF938C017B01EB01AF
:1013900009900020E9F72197C61BD70BBE010E94D8
:1013A0008509811109C0C801DF91CF911F910F916B
:1013B000FF90EF900C94AD09F801D583C483B70179
:1013C00080819181DF91CF911F910F91FF90EF90DC
:1013D0000C942A18EF92FF920F931F93CF93DF93F1
:1013E000EC018617970781F0FB010081118101153F
:1013F000110539F0E480F580B7010E94850981115B
:101400000BC0CE010E94AD09CE01DF91CF911F919B
:101410000F91FF90EF900895FD82EC82B8018881D2
:1014200099810E942A18F0CFFC0180819181009758
:1014300011F00C94DB1608950C94DB160C94DB165B
:10144000EF92FF920F931F93CF93DF93CDB7DEB749
:101450002B970FB6F894DEBF0FBECDBF8C017A017B
:101460004BE050E0CE0101960E94B413CE010A96E3
:101470000E94AB05F8018083E981E154E33118F55E
:101480000E2E000CFF0BE95BF54F0C949315950A9B
:10149000630A630AA90A630A930A630A630A630A6E
:1014A0005A0A630A630A9C0AA70AA50A630A630A1E
:1014B000630AA30A8A81813691F18B818E3689F184
:1014C00087E0F8018183CE0105960E94AB05F80103
:1014D000828348E050E0B701CE0101960E94B41328
:1014E000CE0101960E94AB05F8018383CE010496DC
:1014F0000E94AB05F8018483CE0107960E94AB05DC
:10150000F80185832B960FB6F894DEBF0FBECDBFD2
:10151000DF91CF911F910F91FF90EF90089581E09F
:10152000D0CF86E0CECF82E0CCCF8B81823711F056
:1015300088E0C7CF84E0C5CF8B81823711F085E08A
:10154000C0CF83E0BECF89E0BCCF8AE0BACF8BE0CA
:10155000B8CF8CE0B6CFCF92DF92EF92FF920F938D
:101560001F93CF93DF93EB01FB01349620E2DF0161
:101570001D922A95E9F744E250E060E070E048836C
:1015800059836A837B83FC0145815681678170851D
:101590004C835D836E837F834CE050E060E070E0BD
:1015A000488759876A877B872FB7F894409147020D
:1015B000509148026091490270914A022FBF488BB6
:1015C000598B6A8B7B8B03811481C8010E94F205C1
:1015D000882349F0F80186818B3028F08D3040F067
:1015E0008551823070F160E070E080EC9FE71BC0B5
:1015F000618170E090E080E00E94C4132DEC3CEC2F
:101600004CEC5DE30E9423146B017C01F8016081C6
:1016100070E090E080E00E94C4139B01AC01C70120
:10162000B6010E949A156C8B7D8B8E8B9F8B81E00F
:10163000DF91CF911F910F91FF90EF90DF90CF90AE
:1016400008956081718176276727762790E080E092
:101650000E94C2132DEC3CEC4CEC5DE30E94231481
:10166000E2CF8F929F92AF92BF92EF92FF921F9321
:10167000CF93DF93EB01FB01349620E2DF011D9253
:101680002A95E9F744E250E060E070E0488359832E
:101690006A837B83FC0145815681678170854C8319
:1016A0005D836E837F834DE050E060E070E04887AB
:1016B00059876A877B872FB7F894409147025091EA
:1016C00048026091490270914A022FBF488B598BA2
:1016D0006A8B7B8BE380F480C7010E94F20588232C
:1016E00041F0F70186818C3009F455C038F48B3015
:1016F000E1F060E070E080EC9FE73EC08551823011
:10170000C0F71281612F70E0762F662766277F77FA
:101710008381682B90E080E00E94C2132DEC3CECAA
:101720004CEC5DE30E94231451C0628170E090E0B4
:1017300080E00E94C2134B015C01F701138117FF87
:101740000AC0AC019B0160E070E080E89FEB0E9462
:1017500099154B015C011F70612F70E090E080E0F3
:101760000E94C4132DEC3CEC4CEC5DE30E9423146E
:10177000A50194010E949A156C8B7D8B8E8B9F8B9B
:1017800081E0DF91CF911F91FF90EF90BF90AF90DC
:101790009F908F9008951281612F70E090E080E01B
:1017A0000E94C2134B015C01F70163816F7070E00E
:1017B00090E080E00E94C4132DEC3CEC4CEC5DE327
:1017C0000E942314A50194010E949A1517FFD4CFFB
:1017D0009058D2CFCF93DF93EB01FC0183894BE08C
:1017E00050E06BE571E08C30C1F058F44BE050E014
:1017F00065E571E08B3089F04BE050E06DE671E01B
:101800000CC04BE050E061E671E0853131F04BE017
:1018100050E067E671E0863179F7CE010E94311819
:101820001B86DF91CF9108950F931F93CF93DF9382
:101830008C01EB0188E2DB011D928A95E9F7F80142
:10184000838194810E94EA0B81E090E0A0E0B0E007
:101850008C879D87AE87BF87F80185819681A78198
:10186000B085888B998BAA8BBB8B8CE090E0A0E035
:10187000B0E08C8B9D8BAE8BBF8BBE01838194813E
:101880000E94FE06D8011396ED91FC9183898C305D
:1018900009F441C078F48B3009F1188E198E1A8E34
:1018A0001B8E1C8E1D8E1E8E1F8E18A219A21AA2B0
:1018B0001BA22CC08551823080F780E090E0A8EC1C
:1018C000B2E4888F998FAA8FBB8F1C8E1D8E1E8EBF
:1018D0001F8E8DEC9CECACECBDE314C080E090E07E
:1018E000A0EAB2E4888F998FAA8FBB8F80E090E046
:1018F000A0EAB1E48C8F9D8FAE8FBF8F80E090E027
:10190000A0EAB0E488A399A3AAA3BBA3DF91CF91D7
:101910001F910F91089580E090E0AEEBB2E4E2CF2A
:101920000F931F93CF93DF938C01EB0188E2DB01D0
:101930001D928A95E9F7F801838194810E94EA0B50
:1019400081E090E0A0E0B0E08C879D87AE87BF8704
:10195000F80185819681A781B085888B998BAA8BA8
:10196000BB8B8DE090E0A0E0B0E08C8B9D8BAE8BCC
:10197000BF8BBE01838194810E94FE06D80113961D
:10198000ED91FC9183898C3091F178F48B30B1F03A
:10199000188E198E1A8E1B8E1C8E1D8E1E8E1F8EFB
:1019A00018A219A21AA21BA21DC08531A9F1863165
:1019B00079F780E090E0AAEFB2E432C080E090E0F6
:1019C000A8E4B2E4888F998FAA8FBB8F1C8E1D8EDE
:1019D0001E8E1F8E80E090E0A0E0B0E488A399A363
:1019E000AAA3BBA3DF91CF911F910F91089580E02F
:1019F00090E0A0E7B2E4888F998FAA8FBB8F80E038
:101A000090E0A0EAB1EC8C8F9D8FAE8FBF8F80E00D
:101A100090E0A0E0BFE3E2CF80E090E0A0EAB2E493
:101A2000888F998FAA8FBB8F80E090E0A0E2B2EC04
:101A30008C8F9D8FAE8FBF8F8DEC9CECACECBDE39B
:101A4000CDCF1F920F920FB60F9211242F933F9379
:101A50004F935F936F937F938F939F93AF93BF93B6
:101A6000EF93FF938091B900887F803609F44AC0D4
:101A7000F0F5883209F4A7C018F5803109F49BC04D
:101A8000B8F4882309F4F9C0883009F494C0FF91B0
:101A9000EF91BF91AF919F918F917F916F915F91E6
:101AA0004F913F912F910F900FBE0F901F9018955F
:101AB000883109F488C0803251F78093910214C0B4
:101AC000803409F49DC040F48033B9F38833F9F6CB
:101AD0008093910285ECB0C0803509F485C08835CB
:101AE00009F496C0883499F60E944D09D0CF883900
:101AF00009F48CC038F5883729F050F4883611F095
:101B0000803729F683E0809393021092460257C0F3
:101B1000883809F47BC0803919F0803809F0B7CFD4
:101B200080914602803208F071C0E091460281E067
:101B30008E0F809346028091BB00F0E0EA5DFD4F7E
:101B400080833DC0803B39F0E0F4803A09F479C0ED
:101B5000883A09F09CCF84E080939302109223028C
:101B600010922202E0912002F091210209958091C9
:101B7000220281110FC081E08093220210920002A4
:101B800009C0803C09F4A6CF883C09F4A3CF883B68
:101B900009F07DCFE091230281E08E0F8093230234
:101BA000F0E0E050FE4F80818093BB0090912302D3
:101BB0008091220229C080916E028093BB0085EC47
:101BC0008093BC0064CF9091900280918F0298170F
:101BD00058F5E091900281E08E0F80939002F0E042
:101BE000E159FD4F8081E9CFE091900281E08E0FB5
:101BF000809390028091BB00F0E0E159FD4F80831B
:101C00009091900280918F029817C8F285E8D8CF02
:101C1000E091900281E08E0F809390028091BB0052
:101C2000F0E0E159FD4F80838091920281115CCFF9
:101C300081E080936D0284EA8093BC00109293024D
:101C400026CF85EC8093BC001092930280914602CF
:101C5000803230F4E0914602F0E0EA5DFD4F108200
:101C60006091460270E0E0912402F091250286E244
:101C700092E00995109246020ACF1092910234CF59
:101C80001F920F920FB60F9211242F933F938F93B1
:101C90009F93AF93BF938091470290914802A09188
:101CA0004902B0914A023091FA0123E0230F2D3707
:101CB00058F50196A11DB11D2093FA0180934702AA
:101CC00090934802A0934902B0934A028091FB018D
:101CD0009091FC01A091FD01B091FE010196A11D22
:101CE000B11D8093FB019093FC01A093FD01B09383
:101CF000FE01BF91AF919F918F913F912F910F90D6
:101D00000FBE0F901F90189526E8230F0296A11D75
:101D1000B11DD2CF1F920F920FB60F9211242F93A5
:101D20003F934F935F936F937F938F939F93AF9363
:101D3000BF93EF93FF9389EC92E00E940105FF911E
:101D4000EF91BF91AF919F918F917F916F915F9133
:101D50004F913F912F910F900FBE0F901F901895AC
:101D60001F920F920FB60F9211242F938F939F9370
:101D7000EF93FF93E091D902F091DA028081E09134
:101D8000DF02F091E00282FD1BC090818091E202AF
:101D90008F5F8F732091E302821741F0E091E2029E
:101DA000F0E0E753FD4F958F8093E202FF91EF91B2
:101DB0009F918F912F910F900FBE0F901F901895AC
:101DC0008081F4CF0F931F93CF93DF93CDB7DEB70E
:101DD000AC970FB6F894DEBF0FBECDBF1092C00215
:101DE0001092BF0288EE93E0A0E0B0E08093C102C1
:101DF0009093C202A093C302B093C4022AE031E0E0
:101E00003093BE022093BD021092CC021092CB02FE
:101E10008093CD029093CE02A093CF02B093D002D4
:101E20008CE191E09093CA028093C90285EC90E026
:101E30009093D6028093D50284EC90E09093D802E0
:101E40008093D70280EC90E09093DA028093D902DD
:101E500081EC90E09093DC028093DB0282EC90E0D6
:101E60009093DE028093DD0286EC90E09093E00296
:101E70008093DF021092E2021092E3021092E402D9
:101E80001092E5022EE933E082E08093A3038BE019
:101E90008093A403E2E8F1E0E491E093A503EEE689
:101EA000F1E0E491E093A60340E85EE360E070E0D7
:101EB0004093AB035093AC036093AD037093AE03B8
:101EC0008093B1038CE391E09093B3038093B203CA
:101ED0003093B6032093B5038FEF9FEFDC0180931F
:101EE000B7039093B803A093B903B093BA034EE23B
:101EF00051E05093BC034093BB033093BF03209346
:101F0000BE038093C0039093C103A093C203B09318
:101F1000C30318A61FA21AA619A61CA61BA665E530
:101F200071E0CE0187960E94BF0988E0E0E8F3E007
:101F3000DE01599601900D928A95E1F788E0E0E87C
:101F4000F3E0DE01519601900D928A95E1F71AA215
:101F500019A21CA21BA21EA21DA2BE01695D7F4F79
:101F6000CE0181960E94EA0988E0FE017996DE01A1
:101F7000199601900D928A95E1F788E0FE0171961D
:101F8000DE01119601900D928A95E1F71092990366
:101F90001092980310929B0310929A0310929D0343
:101FA00010929C0368E471E088E993E00E94BF0905
:101FB000BE016F5D7F4F88E993E00E94EA0988E0E7
:101FC000FE013996A8E8B3E001900D928A95E1F7F9
:101FD00088E0FE013196A0E9B3E001900D928A9568
:101FE000E1F7CE0181960E94140ACE0187960E94E5
:101FF000140A1AA219A21CA21BA21EA21DA262E709
:1020000071E0CE0181960E94BF0910927B0310926D
:102010007A0310927D0310927C0310927F0310923A
:102020007E0368E471E08AE793E00E94BF09BE0185
:102030006F5D7F4F8AE793E00E94EA090FEF1FEF81
:10204000109377030093760310937903009378033A
:10205000CE0181960E94140A1AA219A21CA21BA2E8
:102060001EA21DA265E871E0CE0181960E94BF0903
:102070001092710310927003109273031092720306
:10208000109275031092740368E471E080E793E0A6
:102090000E94BF09BE016F5D7F4F80E793E00E9401
:1020A000EA0910936D0300936C0310936F03009380
:1020B0006E03CE0181960E94140A10926B03109257
:1020C0006A031092690310926603E1E6F1E081E091
:1020D0008C3049F09491823009F49F5F21E0280F01
:1020E0003196992381F08093670381E080936803A0
:1020F000AC960FB6F894DEBF0FBECDBFDF91CF9187
:102100001F910F910895822FE3CFCF93DF93CDB727
:10211000DEB7CD55D1090FB6F894DEBF0FBECDBFE7
:10212000789484B5826084BD84B5816084BD85B5B2
:10213000826085BD85B5816085BD80916E008160BE
:1021400080936E0010928100809181008260809364
:102150008100809181008160809381008091800066
:102160008160809380008091B10084608093B10091
:102170008091B00081608093B00080917A0084608B
:1021800080937A0080917A00826080937A008091B7
:102190007A00816080937A0080917A0080688093D1
:1021A0007A001092C100E091D902F091DA0282E047
:1021B0008083E091D502F091D6021082E091D7029F
:1021C000F091D8028FEC80831092E102E091DD0261
:1021D000F091DE0286E08083E091DB02F091DC0288
:1021E000808180618083E091DB02F091DC0280815C
:1021F00088608083E091DB02F091DC02808180685E
:102200008083E091DB02F091DC0280818F7D80830E
:1022100062E08091A3030E9430022FB7F89480916E
:10222000470290914802A0914902B0914A022FBF03
:10223000805D9740A109B1098093A7039093A803FB
:10224000A093A903B093AA0387E38093B0038CE91A
:1022500090E00E94FE0710924C0210924B021092E6
:102260009A021092BC020E94F1018DE191E09093DC
:102270002102809320028EE191E0909325028093C9
:10228000240281E08093990288E68093BB020E9439
:1022900098028111BBC10E94130790E0880F892F1B
:1022A000881F990B892B81F08CEA91E00E947108BC
:1022B00047E850E060E970E0CE0101960E94200AF4
:1022C000CE0101960E94310742E750E06BE770E0D3
:1022D000CE0101960E94200ACE0101960E9431078C
:1022E0008FEC91E00E947108F9EC4F2EFCEF5F2E0D
:1022F00066246A94762C81E08093990298E6909304
:10230000BB0210929A021092BC0260E08DEB92E048
:102310000E9476010E94980267E088E60E947F038F
:1023200010924C0280934B028DEB92E00E942F01A1
:102330008F77282F30E094E0359527959A95E1F72F
:10234000922F990F990F122F191B110F180F8DEB48
:1023500092E00E942F019C0144E0359527954A9513
:10236000E1F72F703327922F990F990F022F091B36
:10237000000F080F8DEB92E00E942F019C0154E0AA
:10238000359527955A95E1F72F703327922F990F9E
:10239000990FF22EF91AFF0CF80E8DEB92E00E94C5
:1023A0002F018DEB92E00E942F019C0164E0359596
:1023B00027956A95E1F72F703327922F990F990F80
:1023C000E22EE91AEE0CE80E8DEB92E00E942F014E
:1023D0009C0174E0359527957A95E1F72F703327A6
:1023E000922F990F990FD22ED91ADD0CD80E8DEBA2
:1023F00092E00E942F019C01E4E035952795EA9533
:10240000E1F72F703327922F990F990F291B220F75
:10241000820F80936603D0926703E0926803F09284
:10242000690300936A0310936B038EE00E946102BC
:102430009C01990F440B550B265F3340410951090C
:10244000A4E6B0E00E94001524E13CEF4FEF5FEFFF
:102450000E94E11469018FE00E9461029C01990FC2
:10246000440B550B2F5F334041095109A4E6B0E0FE
:102470000E940015A30192010E94E1144901190173
:102480008091780390917903C816D90619F1D092FA
:102490007903C09278038BED91E00E94F1078EE002
:1024A0000E946102BC01990F880B990B97FFB3C082
:1024B0000E94500887EF91E00E94F107B601DD0C01
:1024C000880B990B97FFABC00E94500886E491E0FF
:1024D0000E94F10780916E0390916F0328163906D0
:1024E00021F090926F0380926E038091B4038FA3CA
:1024F0008CE391E09EA38DA38091B5039091B603E8
:1025000099A788A78091B7039091B803A091B903C8
:10251000B091BA038AA79BA7ACA7BDA7BE016F5F06
:102520007F4FCE0185960E94310BCD88DE88EF88E3
:10253000F88CA7019601C701B6010E943A168823BC
:1025400009F471C08EE191E00E94FE078091BD0305
:102550008FA38EE291E09EA38DA38091BE03909104
:10256000BF0399A788A78091C0039091C103A09150
:10257000C203B091C3038AA79BA7ACA7BDA7BE01A6
:102580006F5F7F4FCE0185960E94AB0ACD88DE88B3
:10259000EF88F88CA7019601C701B6010E943A1690
:1025A0008111A0C088E0E0E9F3E0DE01DE96019051
:1025B0000D928A95E1F726962CAD3DAD4EAD5FADFF
:1025C0002697C701B6010E94BD13882309F48EC067
:1025D00089EE90E00E9470056D897E898F89988DC3
:1025E0000E947F0887EE90E00E94FE07CD88DE887B
:1025F000EF88F88CA7019601C701B6010E943A1630
:10260000882309F480C08FEC90E06EC083E991E0EC
:102610000E947108FFCF4AE00E940C084BCF4AE0AD
:102620000E940C0853CF88E0E0E9F3E0DE01AA5AEB
:10263000BF4F01900D928A95E1F76A962CAD3DADA2
:102640004EAD5FAD6A97C701B6010E94BD138823E6
:1026500009F47CCF80E191E00E9470056D897E894C
:102660008F89988D0E947F088CE091E00E94FE0780
:10267000CD88DE88EF88F88CA7019601C701B601E6
:102680000E943A16882319F087EB90E05DCF88E02E
:10269000E0E9F3E0DE01AA5BBF4F01900D928A955D
:1026A000E1F788E0FE01EA5BFF4FDE01A25BBF4F6E
:1026B00001900D928A95E1F762962CAD3DAD4EAD3D
:1026C0005FAD6297C701B6010E94BD13882309F46C
:1026D0003DCFC0929003D0929103E0929203F0928A
:1026E000930334CF84EF90E00E94FE0780E090E0F7
:1026F000892B09F400CE0E94ED04882309F4FBCD58
:102700000E940000F8CD88E0E0E9F3E0DE019E964B
:1027100001900D928A95E1F788E0FE01BE96DE01F8
:10272000D69601900D928A95E1F72AAD3BAD4CAD5E
:102730005DADC701B6010E94BD138823B9F2C092F6
:102740009403D0929503E0929603F0929703CECF34
:1027500080E793E00E94140A8AE793E00E94140A3B
:1027600088E993E00C94140AFB01DC0102C0059097
:102770000D9241505040D8F708950E94FF1308F47D
:1027800081E00895E89409C097FB3EF49095809508
:10279000709561957F4F8F4F9F4F9923A9F0F92F27
:1027A00096E9BB279395F695879577956795B795A5
:1027B000F111F8CFFAF4BB0F11F460FF1BC06F5F8B
:1027C0007F4F8F4F9F4F16C0882311F096E911C09D
:1027D000772321F09EE8872F762F05C0662371F0BE
:1027E00096E8862F70E060E02AF09A95660F771FD2
:1027F000881FDAF7880F9695879597F90895990FAE
:102800000008550FAA0BE0E8FEEF16161706E807BA
:10281000F907C0F012161306E407F50798F0621BDB
:10282000730B840B950B39F40A2661F0232B242BB0
:10283000252B21F408950A2609F4A140A6958FEFCF
:10284000811D811D08950E9436140C94A7140E94C6
:10285000991438F00E94A01420F0952311F00C94E4
:1028600090140C94961411240C94DB140E94B81448
:1028700070F3959FC1F3950F50E0551F629FF001D3
:10288000729FBB27F00DB11D639FAA27F00DB11DEC
:10289000AA1F649F6627B00DA11D661F829F222775
:1028A000B00DA11D621F739FB00DA11D621F839FFC
:1028B000A00D611D221F749F3327A00D611D231FD2
:1028C000849F600D211D822F762F6A2F11249F5720
:1028D00050409AF0F1F088234AF0EE0FFF1FBB1F23
:1028E000661F771F881F91505040A9F79E3F5105E2
:1028F00080F00C9490140C94DB145F3FE4F3983E4A
:10290000D4F3869577956795B795F795E7959F5F8B
:10291000C1F7FE2B880F911D9695879597F908951D
:1029200097F99F6780E870E060E008959FEF80EC82
:10293000089500240A941616170618060906089525
:1029400000240A9412161306140605060895092E8B
:102950000394000C11F4882352F0BB0F40F4BF2BFA
:1029600011F460FF04C06F5F7F4F8F4F9F4F08953A
:1029700057FD9058440F551F59F05F3F71F0479530
:10298000880F97FB991F61F09F3F79F08795089515
:10299000121613061406551FF2CF4695F1DF08C034
:1029A000161617061806991FF1CF86957105610551
:1029B00008940895E894BB2766277727CB0197F9F9
:1029C0000895052E97FB1EF400940E94F81457FDFD
:1029D00007D00E94421507FC03D04EF40C94F81463
:1029E00050954095309521953F4F4F4F5F4F08953B
:1029F00090958095709561957F4F8F4F9F4F08956B
:102A00000E946415A59F900DB49F900DA49F800D0A
:102A1000911D112408952F923F924F925F926F92D1
:102A20007F928F929F92AF92BF92CF92DF92EF925E
:102A3000FF920F931F93CF93DF93CDB7DEB7CA1BDF
:102A4000DB0B0FB6F894DEBF0FBECDBF09942A880A
:102A5000398848885F846E847D848C849B84AA84B2
:102A6000B984C884DF80EE80FD800C811B81AA813F
:102A7000B981CE0FD11D0FB6F894DEBF0FBECDBF0A
:102A8000ED010895A1E21A2EAA1BBB1BFD010DC08A
:102A9000AA1FBB1FEE1FFF1FA217B307E407F5070E
:102AA00020F0A21BB30BE40BF50B661F771F881FEA
:102AB000991F1A9469F760957095809590959B0180
:102AC000AC01BD01CF010895A29FB001B39FC00129
:102AD000A39F700D811D1124911DB29F700D811D4A
:102AE0001124911D0895991B79E004C0991F961730
:102AF00008F0961B881F7A95C9F780950895AA1B40
:102B0000BB1B51E107C0AA1FBB1FA617B70710F0D8
:102B1000A61BB70B881F991F5A95A9F7809590950A
:102B2000BC01CD010895EE0FFF1F0590F491E02D3B
:102B300009945058BB27AA270E94B1150C94A714DA
:102B40000E94991438F00E94A01420F039F49F3F9D
:102B500019F426F40C9496140EF4E095E7FB0C940B
:102B60009014E92F0E94B81458F3BA17620773073C
:102B70008407950720F079F4A6F50C94DA140EF486
:102B8000E0950B2EBA2FA02D0B01B90190010C017D
:102B9000CA01A0011124FF27591B99F0593F50F495
:102BA000503E68F11A16F040A22F232F342F4427ED
:102BB000585FF3CF469537952795A795F0405395E5
:102BC000C9F77EF41F16BA0B620B730B840BBAF0B5
:102BD0009150A1F0FF0FBB1F661F771F881FC2F720
:102BE0000EC0BA0F621F731F841F48F48795779534
:102BF0006795B795F7959E3F08F0B0CF9395880FEE
:102C000008F09927EE0F9795879508950E94C014B4
:102C100088F09F5798F0B92F9927B751B0F0E1F09D
:102C2000660F771F881F991F1AF0BA95C9F714C04D
:102C3000B13091F00E94DA14B1E008950C94DA14E6
:102C4000672F782F8827B85F39F0B93FCCF3869586
:102C500077956795B395D9F73EF4909580957095E3
:102C600061957F4F8F4F9F4F08950E94FF1308F487
:102C70008FEF08950E94FF13880B990B08950F930F
:102C80001F93CF93DF938230910510F482E090E0A0
:102C9000E091C603F091C70330E020E0B0E0A0E08F
:102CA000309799F42115310509F44AC0281B390BD6
:102CB00024303105D8F58A819B816115710589F130
:102CC000FB0193838283FE0111C040815181028107
:102CD000138148175907E0F04817590799F41097DE
:102CE00061F012960C93129713961C933296CF01B3
:102CF000DF91CF911F910F9108950093C603109318
:102D0000C703F4CF2115310551F04217530738F0AE
:102D1000A901DB019A01BD01DF01F801C1CFEF017B
:102D2000F9CF9093C7038093C603CDCFFE01E20F86
:102D3000F31F819391932250310939832883D7CF90
:102D40002091C4033091C503232B41F4209102014B
:102D5000309103013093C5032093C40320910001F7
:102D6000309101012115310541F42DB73EB7409155
:102D7000040150910501241B350BE091C403F0912F
:102D8000C503E217F307A0F42E1B3F0B28173907E2
:102D900078F0AC014E5F5F4F2417350748F04E0FB7
:102DA0005F1F5093C5034093C403819391939FCFBA
:102DB000F0E0E0E09CCFCF93DF930097E9F0FC01D7
:102DC000329713821282A091C603B091C703ED011E
:102DD00030E020E01097A1F420813181820F931F11
:102DE0002091C4033091C5032817390709F061C049
:102DF000F093C503E093C403DF91CF910895EA01F6
:102E0000CE17DF07E8F54A815B819E014115510528
:102E1000B1F7E901FB83EA8349915991C40FD51FAA
:102E2000EC17FD0761F4808191810296840F951F54
:102E3000E90199838883828193819B838A83F0E06F
:102E4000E0E012968D919C9113970097B9F52D9122
:102E50003C911197CD010296820F931F2091C403DC
:102E60003091C5032817390739F6309751F510927C
:102E7000C7031092C603B093C503A093C403BCCF8D
:102E8000D383C28340815181840F951FC817D9070E
:102E900061F44E5F5F4F88819981480F591F5183BC
:102EA00040838A819B81938382832115310509F0B8
:102EB000B0CFF093C703E093C6039ECFFD01DC01C2
:102EC000C0CF13821282D7CFB0E0A0E0EAE6F7E1EC
:102ED0000C940D158C01009751F4CB010E943F1604
:102EE0008C01C801CDB7DEB7E0E10C942915FC01D7
:102EF000E60FF71F9C0122503109E217F30708F48F
:102F00009DC0D901CD91DC911197C617D70798F0D4
:102F1000C530D10530F3CE0104978617970708F323
:102F2000C61BD70B2297C193D1936D937C93CF018E
:102F30000E94DB16D6CF5B01AC1ABD0A4C018C0E89
:102F40009D1EA091C603B091C703512C412CF12CBA
:102F5000E12C109731F58091C4039091C503881539
:102F6000990509F05CC04616570608F058C08091D4
:102F7000000190910101009741F48DB79EB74091F7
:102F8000040150910501841B950BE817F90708F01F
:102F900055C0F093C503E093C403F90171836083C6
:102FA000A0CF8D919C91119712966C9012971396C9
:102FB0007C901397A815B90559F56C0142E0C40E31
:102FC000D11CCA14DB0420F1AC014A195B09DA01F7
:102FD0001296159780F06282738251834083D901E3
:102FE0006D937C93E114F10471F0D7011396FC9377
:102FF000EE93129776CF22968C0F9D1FF901918345
:103000008083F301EFCFF093C703E093C60369CF4A
:103010004816590608F42C017D01D3019ACFCB0143
:103020000E943F167C01009749F0AE01B8010E9452
:103030002118C8010E94DB16870153CF10E000E081
:1030400050CFFB01DC0102C001900D924150504075
:10305000D8F70895FB01DC0101900D920020E1F703
:103060000895FB01DC014150504048F001900D9261
:103070000020C9F701C01D9241505040E0F708956B
:1030800010E0CBECD0E004C0FE010E949315219625
:0A309000CC3CD107C9F7F894FFCF3C
:10309A000000C80380000000000076014901AD0469
:1030AA001F0142012F0120010000000023058004B6
:1030BA00B0048B05E104BF04D3040000000011072B
:1030CA001C0A1207AB0A140C0000000011071E0AA2
:1030DA001207310B900C0D0A006E616E00696E6664
:1030EA00006F766600444854313100444854313206
:1030FA00004448543231004448543232004448545F
:10310A003F0073756E6C696768745F696E74656E8B
:10311A007369747900736F696C5F6D6F6973747525
:10312A00726500436F756C646E27742066696E64FD
:10313A0020525443204D6F64756C650052544320ED
:10314A006C6F737420706F7765722C206C65747362
:10315A0020736574207468652074696D6521005355
:10316A006574757020446F6E65210053756E6C69C5
:10317A006768745F696E74656E736974795F696E86
:0A318A00736964653A20002C2000F0
:00000001FF
